{"scripts/contracts/SlotMachine.sol":{"SlotMachine":{"abi":[{"inputs":[{"internalType":"address","name":"_vrfCoordinator","type":"address"},{"internalType":"address","name":"_linkToken","type":"address"},{"internalType":"bytes32","name":"_keyHash","type":"bytes32"},{"internalType":"uint256","name":"_fee","type":"uint256"}],"stateMutability":"nonpayable","type":"constructor"},{"anonymous":false,"inputs":[{"indexed":true,"internalType":"address","name":"previousOwner","type":"address"},{"indexed":true,"internalType":"address","name":"newOwner","type":"address"}],"name":"OwnershipTransferred","type":"event"},{"inputs":[{"internalType":"address","name":"","type":"address"}],"name":"balances","outputs":[{"internalType":"uint256","name":"","type":"uint256"}],"stateMutability":"view","type":"function"},{"inputs":[],"name":"cashOut","outputs":[],"stateMutability":"nonpayable","type":"function"},{"inputs":[],"name":"deposit","outputs":[],"stateMutability":"payable","type":"function"},{"inputs":[],"name":"owner","outputs":[{"internalType":"address","name":"","type":"address"}],"stateMutability":"view","type":"function"},{"inputs":[{"internalType":"string","name":"","type":"string"},{"internalType":"uint256","name":"","type":"uint256"}],"name":"points","outputs":[{"internalType":"uint256","name":"","type":"uint256"}],"stateMutability":"view","type":"function"},{"inputs":[],"name":"price","outputs":[{"internalType":"uint256","name":"","type":"uint256"}],"stateMutability":"view","type":"function"},{"inputs":[{"internalType":"bytes32","name":"requestId","type":"bytes32"},{"internalType":"uint256","name":"randomness","type":"uint256"}],"name":"rawFulfillRandomness","outputs":[],"stateMutability":"nonpayable","type":"function"},{"inputs":[],"name":"renounceOwnership","outputs":[],"stateMutability":"nonpayable","type":"function"},{"inputs":[{"internalType":"address","name":"","type":"address"}],"name":"slots","outputs":[{"internalType":"bool","name":"redeemed","type":"bool"},{"internalType":"uint256","name":"prize","type":"uint256"}],"stateMutability":"view","type":"function"},{"inputs":[],"name":"spin","outputs":[{"components":[{"internalType":"bool","name":"redeemed","type":"bool"},{"internalType":"string[3]","name":"results","type":"string[3]"},{"internalType":"uint256","name":"prize","type":"uint256"}],"internalType":"struct SlotMachine.Slot","name":"","type":"tuple"}],"stateMutability":"payable","type":"function"},{"inputs":[{"internalType":"uint256","name":"","type":"uint256"}],"name":"symbols","outputs":[{"internalType":"string","name":"","type":"string"}],"stateMutability":"view","type":"function"},{"inputs":[{"internalType":"address","name":"newOwner","type":"address"}],"name":"transferOwnership","outputs":[],"stateMutability":"nonpayable","type":"function"},{"inputs":[{"internalType":"string","name":"symbol","type":"string"},{"internalType":"uint256","name":"twoMatchPayout","type":"uint256"},{"internalType":"uint256","name":"threeMatchPayout","type":"uint256"}],"name":"updatePoints","outputs":[],"stateMutability":"nonpayable","type":"function"},{"inputs":[{"internalType":"uint256","name":"new_price","type":"uint256"}],"name":"updatePrice","outputs":[],"stateMutability":"nonpayable","type":"function"},{"inputs":[],"name":"userBalance","outputs":[{"internalType":"uint256","name":"","type":"uint256"}],"stateMutability":"view","type":"function"},{"inputs":[{"internalType":"uint256","name":"amount","type":"uint256"}],"name":"withdraw","outputs":[],"stateMutability":"nonpayable","type":"function"}],"evm":{"bytecode":{"linkReferences":{},"object":"60c06040526040518061010001604052806040518060400160405280600681526020017f436865727279000000000000000000000000000000000000000000000000000081525081526020016040518060400160405280600581526020017f4c656d6f6e00000000000000000000000000000000000000000000000000000081525081526020016040518060400160405280600481526020017f506c756d0000000000000000000000000000000000000000000000000000000081525081526020016040518060400160405280600681526020017f4f72616e6765000000000000000000000000000000000000000000000000000081525081526020016040518060400160405280600481526020017f42656c6c0000000000000000000000000000000000000000000000000000000081525081526020016040518060400160405280600581526020017f4d656c6f6e00000000000000000000000000000000000000000000000000000081525081526020016040518060400160405280600381526020017f426172000000000000000000000000000000000000000000000000000000000081525081526020016040518060400160405280600581526020017f536576656e0000000000000000000000000000000000000000000000000000008152508152506006906008620001f8929190620006eb565b503480156200020657600080fd5b50604051620036eb380380620036eb83398181016040528101906200022c919062000909565b83836200024e620002426200061f60201b60201c565b6200062760201b60201c565b8173ffffffffffffffffffffffffffffffffffffffff1660a08173ffffffffffffffffffffffffffffffffffffffff16815250508073ffffffffffffffffffffffffffffffffffffffff1660808173ffffffffffffffffffffffffffffffffffffffff1681525050505067010a741a462780006002819055506040518060400160405280676f05b59d3b20000067ffffffffffffffff16815260200167de0b6b3a7640000067ffffffffffffffff1681525060036040516200031090620009d6565b90815260200160405180910390209060026200032e9291906200074b565b506040518060400160405280676124fee993bc000067ffffffffffffffff16815260200167c249fdd32778000067ffffffffffffffff168152506003604051620003789062000a3d565b9081526020016040518091039020906002620003969291906200074b565b5060405180604001604052806753444835ec58000067ffffffffffffffff16815260200167a688906bd8b0000067ffffffffffffffff168152506003604051620003e09062000aa4565b9081526020016040518091039020906002620003fe9291906200074b565b506040518060400160405280674563918244f4000067ffffffffffffffff168152602001678ac7230489e8000067ffffffffffffffff168152506003604051620004489062000b0b565b9081526020016040518091039020906002620004669291906200074b565b506040518060400160405280673782dace9d90000067ffffffffffffffff168152602001676f05b59d3b20000067ffffffffffffffff168152506003604051620004b09062000b72565b9081526020016040518091039020906002620004ce9291906200074b565b5060405180604001604052806729a2241af62c000067ffffffffffffffff1681526020016753444835ec58000067ffffffffffffffff168152506003604051620005189062000bd9565b9081526020016040518091039020906002620005369291906200074b565b506040518060400160405280671bc16d674ec8000067ffffffffffffffff168152602001673782dace9d90000067ffffffffffffffff168152506003604051620005809062000c40565b90815260200160405180910390209060026200059e9291906200074b565b506040518060400160405280670de0b6b3a764000067ffffffffffffffff168152602001671bc16d674ec8000067ffffffffffffffff168152506003604051620005e89062000ca7565b9081526020016040518091039020906002620006069291906200074b565b5081600481905550806005819055505050505062001015565b600033905090565b60008060009054906101000a900473ffffffffffffffffffffffffffffffffffffffff169050816000806101000a81548173ffffffffffffffffffffffffffffffffffffffff021916908373ffffffffffffffffffffffffffffffffffffffff1602179055508173ffffffffffffffffffffffffffffffffffffffff168173ffffffffffffffffffffffffffffffffffffffff167f8be0079c531659141344cd1fd0a4f28419497f9722a3daafe3b4186f6b6457e060405160405180910390a35050565b82805482825590600052602060002090810192821562000738579160200282015b828111156200073757825182908162000726919062000f2e565b50916020019190600101906200070c565b5b5090506200074791906200079c565b5090565b826002810192821562000789579160200282015b8281111562000788578251829067ffffffffffffffff169055916020019190600101906200075f565b5b509050620007989190620007c4565b5090565b5b80821115620007c05760008181620007b69190620007e3565b506001016200079d565b5090565b5b80821115620007df576000816000905550600101620007c5565b5090565b508054620007f19062000d27565b6000825580601f1062000805575062000826565b601f016020900490600052602060002090810190620008259190620007c4565b5b50565b600080fd5b600073ffffffffffffffffffffffffffffffffffffffff82169050919050565b60006200085b826200082e565b9050919050565b6200086d816200084e565b81146200087957600080fd5b50565b6000815190506200088d8162000862565b92915050565b6000819050919050565b620008a88162000893565b8114620008b457600080fd5b50565b600081519050620008c8816200089d565b92915050565b6000819050919050565b620008e381620008ce565b8114620008ef57600080fd5b50565b6000815190506200090381620008d8565b92915050565b6000806000806080858703121562000926576200092562000829565b5b600062000936878288016200087c565b945050602062000949878288016200087c565b93505060406200095c87828801620008b7565b92505060606200096f87828801620008f2565b91505092959194509250565b600081905092915050565b7f4368657272790000000000000000000000000000000000000000000000000000600082015250565b6000620009be6006836200097b565b9150620009cb8262000986565b600682019050919050565b6000620009e382620009af565b9150819050919050565b7f4c656d6f6e000000000000000000000000000000000000000000000000000000600082015250565b600062000a256005836200097b565b915062000a3282620009ed565b600582019050919050565b600062000a4a8262000a16565b9150819050919050565b7f506c756d00000000000000000000000000000000000000000000000000000000600082015250565b600062000a8c6004836200097b565b915062000a998262000a54565b600482019050919050565b600062000ab18262000a7d565b9150819050919050565b7f4f72616e67650000000000000000000000000000000000000000000000000000600082015250565b600062000af36006836200097b565b915062000b008262000abb565b600682019050919050565b600062000b188262000ae4565b9150819050919050565b7f42656c6c00000000000000000000000000000000000000000000000000000000600082015250565b600062000b5a6004836200097b565b915062000b678262000b22565b600482019050919050565b600062000b7f8262000b4b565b9150819050919050565b7f4d656c6f6e000000000000000000000000000000000000000000000000000000600082015250565b600062000bc16005836200097b565b915062000bce8262000b89565b600582019050919050565b600062000be68262000bb2565b9150819050919050565b7f4261720000000000000000000000000000000000000000000000000000000000600082015250565b600062000c286003836200097b565b915062000c358262000bf0565b600382019050919050565b600062000c4d8262000c19565b9150819050919050565b7f536576656e000000000000000000000000000000000000000000000000000000600082015250565b600062000c8f6005836200097b565b915062000c9c8262000c57565b600582019050919050565b600062000cb48262000c80565b9150819050919050565b600081519050919050565b7f4e487b7100000000000000000000000000000000000000000000000000000000600052604160045260246000fd5b7f4e487b7100000000000000000000000000000000000000000000000000000000600052602260045260246000fd5b6000600282049050600182168062000d4057607f821691505b60208210810362000d565762000d5562000cf8565b5b50919050565b60008190508160005260206000209050919050565b60006020601f8301049050919050565b600082821b905092915050565b60006008830262000dc07fffffffffffffffffffffffffffffffffffffffffffffffffffffffffffffffff8262000d81565b62000dcc868362000d81565b95508019841693508086168417925050509392505050565b6000819050919050565b600062000e0f62000e0962000e0384620008ce565b62000de4565b620008ce565b9050919050565b6000819050919050565b62000e2b8362000dee565b62000e4362000e3a8262000e16565b84845462000d8e565b825550505050565b600090565b62000e5a62000e4b565b62000e6781848462000e20565b505050565b5b8181101562000e8f5762000e8360008262000e50565b60018101905062000e6d565b5050565b601f82111562000ede5762000ea88162000d5c565b62000eb38462000d71565b8101602085101562000ec3578190505b62000edb62000ed28562000d71565b83018262000e6c565b50505b505050565b600082821c905092915050565b600062000f036000198460080262000ee3565b1980831691505092915050565b600062000f1e838362000ef0565b9150826002028217905092915050565b62000f398262000cbe565b67ffffffffffffffff81111562000f555762000f5462000cc9565b5b62000f61825462000d27565b62000f6e82828562000e93565b600060209050601f83116001811462000fa6576000841562000f91578287015190505b62000f9d858262000f10565b8655506200100d565b601f19841662000fb68662000d5c565b60005b8281101562000fe05784890151825560018201915060208501945060208101905062000fb9565b8683101562001000578489015162000ffc601f89168262000ef0565b8355505b6001600288020188555050505b505050505050565b60805160a0516126a962001042600039600081816107720152610dfd01526000610dc101526126a96000f3fe6080604052600436106100f35760003560e01c80638da5cb5b1161008a578063ccce413b11610059578063ccce413b14610303578063d0e30db014610340578063f0acd7d51461034a578063f2fde38b14610368576100f3565b80638da5cb5b1461025957806394985ddd14610284578063a035b1fe146102ad578063bf152765146102d8576100f3565b80636f9f9ea7116100c65780636f9f9ea7146101d9578063715018a614610202578063793cd71e146102195780638d6cc56d14610230576100f3565b806327e235e3146100f85780632e1a7d4d146101355780632f95e2101461015e578063393014271461019b575b600080fd5b34801561010457600080fd5b5061011f600480360381019061011a919061150c565b610391565b60405161012c9190611552565b60405180910390f35b34801561014157600080fd5b5061015c60048036038101906101579190611599565b6103a9565b005b34801561016a57600080fd5b506101856004803603810190610180919061170c565b6104a4565b6040516101929190611552565b60405180910390f35b3480156101a757600080fd5b506101c260048036038101906101bd919061150c565b6104e2565b6040516101d0929190611783565b60405180910390f35b3480156101e557600080fd5b5061020060048036038101906101fb91906117ac565b610513565b005b34801561020e57600080fd5b50610217610562565b005b34801561022557600080fd5b5061022e610576565b005b34801561023c57600080fd5b5061025760048036038101906102529190611599565b610735565b005b34801561026557600080fd5b5061026e610747565b60405161027b919061182a565b60405180910390f35b34801561029057600080fd5b506102ab60048036038101906102a6919061187b565b610770565b005b3480156102b957600080fd5b506102c261080c565b6040516102cf9190611552565b60405180910390f35b3480156102e457600080fd5b506102ed610812565b6040516102fa9190611552565b60405180910390f35b34801561030f57600080fd5b5061032a60048036038101906103259190611599565b610859565b604051610337919061193a565b60405180910390f35b610348610905565b005b610352610907565b60405161035f9190611aca565b60405180910390f35b34801561037457600080fd5b5061038f600480360381019061038a919061150c565b610b04565b005b60086020528060005260406000206000915090505481565b6103b1610b87565b804710156103f4576040517f08c379a00000000000000000000000000000000000000000000000000000000081526004016103eb90611b38565b60405180910390fd5b60003373ffffffffffffffffffffffffffffffffffffffff168260405161041a90611b89565b60006040518083038185875af1925050503d8060008114610457576040519150601f19603f3d011682016040523d82523d6000602084013e61045c565b606091505b50509050806104a0576040517f08c379a000000000000000000000000000000000000000000000000000000000815260040161049790611bea565b60405180910390fd5b5050565b60038280516020810182018051848252602083016020850120818352809550505050505081600281106104d657600080fd5b01600091509150505481565b60076020528060005260406000206000915090508060000160009054906101000a900460ff16908060040154905082565b61051b610b87565b6040518060400160405280838152602001828152506003846040516105409190611c46565b908152602001604051809103902090600261055c92919061131a565b50505050565b61056a610b87565b6105746000610c05565b565b6000600860003373ffffffffffffffffffffffffffffffffffffffff1673ffffffffffffffffffffffffffffffffffffffff168152602001908152602001600020549050600081116105fd576040517f08c379a00000000000000000000000000000000000000000000000000000000081526004016105f490611ca9565b60405180910390fd5b80471015610640576040517f08c379a000000000000000000000000000000000000000000000000000000000815260040161063790611d15565b60405180910390fd5b6000600860003373ffffffffffffffffffffffffffffffffffffffff1673ffffffffffffffffffffffffffffffffffffffff1681526020019081526020016000208190555060003373ffffffffffffffffffffffffffffffffffffffff16826040516106ab90611b89565b60006040518083038185875af1925050503d80600081146106e8576040519150601f19603f3d011682016040523d82523d6000602084013e6106ed565b606091505b5050905080610731576040517f08c379a000000000000000000000000000000000000000000000000000000000815260040161072890611bea565b60405180910390fd5b5050565b61073d610b87565b8060028190555050565b60008060009054906101000a900473ffffffffffffffffffffffffffffffffffffffff16905090565b7f000000000000000000000000000000000000000000000000000000000000000073ffffffffffffffffffffffffffffffffffffffff163373ffffffffffffffffffffffffffffffffffffffff16146107fe576040517f08c379a00000000000000000000000000000000000000000000000000000000081526004016107f590611d81565b60405180910390fd5b6108088282610cc9565b5050565b60025481565b6000600860003373ffffffffffffffffffffffffffffffffffffffff1673ffffffffffffffffffffffffffffffffffffffff16815260200190815260200160002054905090565b6006818154811061086957600080fd5b90600052602060002001600091509050805461088490611dd0565b80601f01602080910402602001604051908101604052809291908181526020018280546108b090611dd0565b80156108fd5780601f106108d2576101008083540402835291602001916108fd565b820191906000526020600020905b8154815290600101906020018083116108e057829003601f168201915b505050505081565b565b61090f61135a565b600254341015610954576040517f08c379a000000000000000000000000000000000000000000000000000000000815260040161094b90611e4d565b60405180910390fd5b6000600760003373ffffffffffffffffffffffffffffffffffffffff1673ffffffffffffffffffffffffffffffffffffffff16815260200190815260200160002090508060000160009054906101000a900460ff16806109b8575060008160040154145b6109f7576040517f08c379a00000000000000000000000000000000000000000000000000000000081526004016109ee90611eb9565b60405180910390fd5b610a05600454600554610dbd565b50806040518060600160405290816000820160009054906101000a900460ff1615151515815260200160018201600380602002604051908101604052809291906000905b82821015610aec578382018054610a5f90611dd0565b80601f0160208091040260200160405190810160405280929190818152602001828054610a8b90611dd0565b8015610ad85780601f10610aad57610100808354040283529160200191610ad8565b820191906000526020600020905b815481529060010190602001808311610abb57829003601f168201915b505050505081526020019060010190610a49565b50505050815260200160048201548152505091505090565b610b0c610b87565b600073ffffffffffffffffffffffffffffffffffffffff168173ffffffffffffffffffffffffffffffffffffffff1603610b7b576040517f08c379a0000000000000000000000000000000000000000000000000000000008152600401610b7290611f4b565b60405180910390fd5b610b8481610c05565b50565b610b8f610f0f565b73ffffffffffffffffffffffffffffffffffffffff16610bad610747565b73ffffffffffffffffffffffffffffffffffffffff1614610c03576040517f08c379a0000000000000000000000000000000000000000000000000000000008152600401610bfa90611fb7565b60405180910390fd5b565b60008060009054906101000a900473ffffffffffffffffffffffffffffffffffffffff169050816000806101000a81548173ffffffffffffffffffffffffffffffffffffffff021916908373ffffffffffffffffffffffffffffffffffffffff1602179055508173ffffffffffffffffffffffffffffffffffffffff168173ffffffffffffffffffffffffffffffffffffffff167f8be0079c531659141344cd1fd0a4f28419497f9722a3daafe3b4186f6b6457e060405160405180910390a35050565b6000610cd482610f17565b90506000610ce18261103b565b90506000600760003373ffffffffffffffffffffffffffffffffffffffff1673ffffffffffffffffffffffffffffffffffffffff168152602001908152602001600020905060018160000160006101000a81548160ff0219169083151502179055508281600101906003610d56929190611383565b5081816004018190555081600860003373ffffffffffffffffffffffffffffffffffffffff1673ffffffffffffffffffffffffffffffffffffffff1681526020019081526020016000206000828254610daf9190612006565b925050819055505050505050565b60007f000000000000000000000000000000000000000000000000000000000000000073ffffffffffffffffffffffffffffffffffffffff16634000aea07f000000000000000000000000000000000000000000000000000000000000000084866000604051602001610e31929190612049565b6040516020818303038152906040526040518463ffffffff1660e01b8152600401610e5e939291906120c7565b6020604051808303816000875af1158015610e7d573d6000803e3d6000fd5b505050506040513d601f19601f82011682018060405250810190610ea19190612131565b506000610ec48460003060016000898152602001908152602001600020546112ab565b9050600180600086815260200190815260200160002054610ee59190612006565b6001600086815260200190815260200160002081905550610f0684826112e7565b91505092915050565b600033905090565b610f1f6113cf565b610f276113cf565b60005b600381101561103157600060068054905085610f46919061218d565b905060068181548110610f5c57610f5b6121be565b5b906000526020600020018054610f7190611dd0565b80601f0160208091040260200160405190810160405280929190818152602001828054610f9d90611dd0565b8015610fea5780601f10610fbf57610100808354040283529160200191610fea565b820191906000526020600020905b815481529060010190602001808311610fcd57829003601f168201915b5050505050838360038110611002576110016121be565b5b60200201819052506006805490508561101b91906121ed565b94505080806110299061221e565b915050610f2a565b5080915050919050565b60006110456113f6565b60005b60038110156111395760005b6006805490508110156111255760068181548110611075576110746121be565b5b9060005260206000200160405160200161108f91906122fe565b604051602081830303815290604052805190602001208583600381106110b8576110b76121be565b5b60200201516040516020016110cd9190611c46565b6040516020818303038152906040528051906020012003611112578281600881106110fb576110fa6121be565b5b60200201805180919061110d9061221e565b815250505b808061111d9061221e565b915050611054565b5080806111319061221e565b915050611048565b5060008060005b6008811015611199578284826008811061115d5761115c6121be565b5b602002015111156111865783816008811061117b5761117a6121be565b5b602002015192508091505b80806111919061221e565b915050611140565b506002820361121c57670de0b6b3a76400006002546003600684815481106111c4576111c36121be565b5b906000526020600020016040516111db91906122fe565b90815260200160405180910390206000600281106111fc576111fb6121be565b5b01546112089190612315565b61121291906121ed565b93505050506112a6565b6003820361129e57670de0b6b3a7640000600254600360068481548110611246576112456121be565b5b9060005260206000200160405161125d91906122fe565b908152602001604051809103902060016002811061127e5761127d6121be565b5b015461128a9190612315565b61129491906121ed565b93505050506112a6565b600093505050505b919050565b6000848484846040516020016112c49493929190612357565b6040516020818303038152906040528051906020012060001c9050949350505050565b600082826040516020016112fc9291906123de565b60405160208183030381529060405280519060200120905092915050565b8260028101928215611349579160200282015b8281111561134857825182559160200191906001019061132d565b5b5090506113569190611419565b5090565b60405180606001604052806000151581526020016113766113cf565b8152602001600081525090565b82600381019282156113be579160200282015b828111156113bd5782518290816113ad91906125a1565b5091602001919060010190611396565b5b5090506113cb9190611436565b5090565b60405180606001604052806003905b60608152602001906001900390816113de5790505090565b604051806101000160405280600890602082028036833780820191505090505090565b5b8082111561143257600081600090555060010161141a565b5090565b5b80821115611456576000818161144d919061145a565b50600101611437565b5090565b50805461146690611dd0565b6000825580601f106114785750611497565b601f0160209004906000526020600020908101906114969190611419565b5b50565b6000604051905090565b600080fd5b600080fd5b600073ffffffffffffffffffffffffffffffffffffffff82169050919050565b60006114d9826114ae565b9050919050565b6114e9816114ce565b81146114f457600080fd5b50565b600081359050611506816114e0565b92915050565b600060208284031215611522576115216114a4565b5b6000611530848285016114f7565b91505092915050565b6000819050919050565b61154c81611539565b82525050565b60006020820190506115676000830184611543565b92915050565b61157681611539565b811461158157600080fd5b50565b6000813590506115938161156d565b92915050565b6000602082840312156115af576115ae6114a4565b5b60006115bd84828501611584565b91505092915050565b600080fd5b600080fd5b6000601f19601f8301169050919050565b7f4e487b7100000000000000000000000000000000000000000000000000000000600052604160045260246000fd5b611619826115d0565b810181811067ffffffffffffffff82111715611638576116376115e1565b5b80604052505050565b600061164b61149a565b90506116578282611610565b919050565b600067ffffffffffffffff821115611677576116766115e1565b5b611680826115d0565b9050602081019050919050565b82818337600083830152505050565b60006116af6116aa8461165c565b611641565b9050828152602081018484840111156116cb576116ca6115cb565b5b6116d684828561168d565b509392505050565b600082601f8301126116f3576116f26115c6565b5b813561170384826020860161169c565b91505092915050565b60008060408385031215611723576117226114a4565b5b600083013567ffffffffffffffff811115611741576117406114a9565b5b61174d858286016116de565b925050602061175e85828601611584565b9150509250929050565b60008115159050919050565b61177d81611768565b82525050565b60006040820190506117986000830185611774565b6117a56020830184611543565b9392505050565b6000806000606084860312156117c5576117c46114a4565b5b600084013567ffffffffffffffff8111156117e3576117e26114a9565b5b6117ef868287016116de565b935050602061180086828701611584565b925050604061181186828701611584565b9150509250925092565b611824816114ce565b82525050565b600060208201905061183f600083018461181b565b92915050565b6000819050919050565b61185881611845565b811461186357600080fd5b50565b6000813590506118758161184f565b92915050565b60008060408385031215611892576118916114a4565b5b60006118a085828601611866565b92505060206118b185828601611584565b9150509250929050565b600081519050919050565b600082825260208201905092915050565b60005b838110156118f55780820151818401526020810190506118da565b60008484015250505050565b600061190c826118bb565b61191681856118c6565b93506119268185602086016118d7565b61192f816115d0565b840191505092915050565b600060208201905081810360008301526119548184611901565b905092915050565b61196581611768565b82525050565b600060039050919050565b600081905092915050565b6000819050919050565b600082825260208201905092915050565b60006119a7826118bb565b6119b1818561198b565b93506119c18185602086016118d7565b6119ca816115d0565b840191505092915050565b60006119e1838361199c565b905092915050565b6000602082019050919050565b6000611a018261196b565b611a0b8185611976565b935083602082028501611a1d85611981565b8060005b85811015611a595784840389528151611a3a85826119d5565b9450611a45836119e9565b925060208a01995050600181019050611a21565b50829750879550505050505092915050565b611a7481611539565b82525050565b6000606083016000830151611a92600086018261195c565b5060208301518482036020860152611aaa82826119f6565b9150506040830151611abf6040860182611a6b565b508091505092915050565b60006020820190508181036000830152611ae48184611a7a565b905092915050565b7f496e73756666696369656e742066756e64730000000000000000000000000000600082015250565b6000611b226012836118c6565b9150611b2d82611aec565b602082019050919050565b60006020820190508181036000830152611b5181611b15565b9050919050565b600081905092915050565b50565b6000611b73600083611b58565b9150611b7e82611b63565b600082019050919050565b6000611b9482611b66565b9150819050919050565b7f5769746864726177206661696c65640000000000000000000000000000000000600082015250565b6000611bd4600f836118c6565b9150611bdf82611b9e565b602082019050919050565b60006020820190508181036000830152611c0381611bc7565b9050919050565b600081905092915050565b6000611c20826118bb565b611c2a8185611c0a565b9350611c3a8185602086016118d7565b80840191505092915050565b6000611c528284611c15565b915081905092915050565b7f4e6f2062616c616e636520746f2063617368206f757400000000000000000000600082015250565b6000611c936016836118c6565b9150611c9e82611c5d565b602082019050919050565b60006020820190508181036000830152611cc281611c86565b9050919050565b7f496e73756666696369656e742066756e647320696e20636f6e74726163740000600082015250565b6000611cff601e836118c6565b9150611d0a82611cc9565b602082019050919050565b60006020820190508181036000830152611d2e81611cf2565b9050919050565b7f4f6e6c7920565246436f6f7264696e61746f722063616e2066756c66696c6c00600082015250565b6000611d6b601f836118c6565b9150611d7682611d35565b602082019050919050565b60006020820190508181036000830152611d9a81611d5e565b9050919050565b7f4e487b7100000000000000000000000000000000000000000000000000000000600052602260045260246000fd5b60006002820490506001821680611de857607f821691505b602082108103611dfb57611dfa611da1565b5b50919050565b7f4d696e696d756d20626574206973207468652063757272656e74207072696365600082015250565b6000611e376020836118c6565b9150611e4282611e01565b602082019050919050565b60006020820190508181036000830152611e6681611e2a565b9050919050565b7f50726576696f757320736c6f74206e6f7420636c61696d656400000000000000600082015250565b6000611ea36019836118c6565b9150611eae82611e6d565b602082019050919050565b60006020820190508181036000830152611ed281611e96565b9050919050565b7f4f776e61626c653a206e6577206f776e657220697320746865207a65726f206160008201527f6464726573730000000000000000000000000000000000000000000000000000602082015250565b6000611f356026836118c6565b9150611f4082611ed9565b604082019050919050565b60006020820190508181036000830152611f6481611f28565b9050919050565b7f4f776e61626c653a2063616c6c6572206973206e6f7420746865206f776e6572600082015250565b6000611fa16020836118c6565b9150611fac82611f6b565b602082019050919050565b60006020820190508181036000830152611fd081611f94565b9050919050565b7f4e487b7100000000000000000000000000000000000000000000000000000000600052601160045260246000fd5b600061201182611539565b915061201c83611539565b925082820190508082111561203457612033611fd7565b5b92915050565b61204381611845565b82525050565b600060408201905061205e600083018561203a565b61206b6020830184611543565b9392505050565b600081519050919050565b600082825260208201905092915050565b600061209982612072565b6120a3818561207d565b93506120b38185602086016118d7565b6120bc816115d0565b840191505092915050565b60006060820190506120dc600083018661181b565b6120e96020830185611543565b81810360408301526120fb818461208e565b9050949350505050565b61210e81611768565b811461211957600080fd5b50565b60008151905061212b81612105565b92915050565b600060208284031215612147576121466114a4565b5b60006121558482850161211c565b91505092915050565b7f4e487b7100000000000000000000000000000000000000000000000000000000600052601260045260246000fd5b600061219882611539565b91506121a383611539565b9250826121b3576121b261215e565b5b828206905092915050565b7f4e487b7100000000000000000000000000000000000000000000000000000000600052603260045260246000fd5b60006121f882611539565b915061220383611539565b9250826122135761221261215e565b5b828204905092915050565b600061222982611539565b91507fffffffffffffffffffffffffffffffffffffffffffffffffffffffffffffffff820361225b5761225a611fd7565b5b600182019050919050565b60008190508160005260206000209050919050565b6000815461228881611dd0565b6122928186611c0a565b945060018216600081146122ad57600181146122c2576122f5565b60ff19831686528115158202860193506122f5565b6122cb85612266565b60005b838110156122ed578154818901526001820191506020810190506122ce565b838801955050505b50505092915050565b600061230a828461227b565b915081905092915050565b600061232082611539565b915061232b83611539565b925082820261233981611539565b915082820484148315176123505761234f611fd7565b5b5092915050565b600060808201905061236c600083018761203a565b6123796020830186611543565b612386604083018561181b565b6123936060830184611543565b95945050505050565b6000819050919050565b6123b76123b282611845565b61239c565b82525050565b6000819050919050565b6123d86123d382611539565b6123bd565b82525050565b60006123ea82856123a6565b6020820191506123fa82846123c7565b6020820191508190509392505050565b60006020601f8301049050919050565b600082821b905092915050565b6000600883026124577fffffffffffffffffffffffffffffffffffffffffffffffffffffffffffffffff8261241a565b612461868361241a565b95508019841693508086168417925050509392505050565b6000819050919050565b600061249e61249961249484611539565b612479565b611539565b9050919050565b6000819050919050565b6124b883612483565b6124cc6124c4826124a5565b848454612427565b825550505050565b600090565b6124e16124d4565b6124ec8184846124af565b505050565b5b81811015612510576125056000826124d9565b6001810190506124f2565b5050565b601f8211156125555761252681612266565b61252f8461240a565b8101602085101561253e578190505b61255261254a8561240a565b8301826124f1565b50505b505050565b600082821c905092915050565b60006125786000198460080261255a565b1980831691505092915050565b60006125918383612567565b9150826002028217905092915050565b6125aa826118bb565b67ffffffffffffffff8111156125c3576125c26115e1565b5b6125cd8254611dd0565b6125d8828285612514565b600060209050601f83116001811461260b57600084156125f9578287015190505b6126038582612585565b86555061266b565b601f19841661261986612266565b60005b828110156126415784890151825560018201915060208501945060208101905061261c565b8683101561265e578489015161265a601f891682612567565b8355505b6001600288020188555050505b50505050505056fea26469706673582212202f2aaef136c13c3c9aeabd2fb5121b3ba1963f4cdda4609614da0381db6866de64736f6c63430008130033","opcodes":"PUSH1 0xC0 PUSH1 0x40 MSTORE PUSH1 0x40 MLOAD DUP1 PUSH2 0x100 ADD PUSH1 0x40 MSTORE DUP1 PUSH1 0x40 MLOAD DUP1 PUSH1 0x40 ADD PUSH1 0x40 MSTORE DUP1 PUSH1 0x6 DUP2 MSTORE PUSH1 0x20 ADD PUSH32 0x4368657272790000000000000000000000000000000000000000000000000000 DUP2 MSTORE POP DUP2 MSTORE PUSH1 0x20 ADD PUSH1 0x40 MLOAD DUP1 PUSH1 0x40 ADD PUSH1 0x40 MSTORE DUP1 PUSH1 0x5 DUP2 MSTORE PUSH1 0x20 ADD PUSH32 0x4C656D6F6E000000000000000000000000000000000000000000000000000000 DUP2 MSTORE POP DUP2 MSTORE PUSH1 0x20 ADD PUSH1 0x40 MLOAD DUP1 PUSH1 0x40 ADD PUSH1 0x40 MSTORE DUP1 PUSH1 0x4 DUP2 MSTORE PUSH1 0x20 ADD PUSH32 0x506C756D00000000000000000000000000000000000000000000000000000000 DUP2 MSTORE POP DUP2 MSTORE PUSH1 0x20 ADD PUSH1 0x40 MLOAD DUP1 PUSH1 0x40 ADD PUSH1 0x40 MSTORE DUP1 PUSH1 0x6 DUP2 MSTORE PUSH1 0x20 ADD PUSH32 0x4F72616E67650000000000000000000000000000000000000000000000000000 DUP2 MSTORE POP DUP2 MSTORE PUSH1 0x20 ADD PUSH1 0x40 MLOAD DUP1 PUSH1 0x40 ADD PUSH1 0x40 MSTORE DUP1 PUSH1 0x4 DUP2 MSTORE PUSH1 0x20 ADD PUSH32 0x42656C6C00000000000000000000000000000000000000000000000000000000 DUP2 MSTORE POP DUP2 MSTORE PUSH1 0x20 ADD PUSH1 0x40 MLOAD DUP1 PUSH1 0x40 ADD PUSH1 0x40 MSTORE DUP1 PUSH1 0x5 DUP2 MSTORE PUSH1 0x20 ADD PUSH32 0x4D656C6F6E000000000000000000000000000000000000000000000000000000 DUP2 MSTORE POP DUP2 MSTORE PUSH1 0x20 ADD PUSH1 0x40 MLOAD DUP1 PUSH1 0x40 ADD PUSH1 0x40 MSTORE DUP1 PUSH1 0x3 DUP2 MSTORE PUSH1 0x20 ADD PUSH32 0x4261720000000000000000000000000000000000000000000000000000000000 DUP2 MSTORE POP DUP2 MSTORE PUSH1 0x20 ADD PUSH1 0x40 MLOAD DUP1 PUSH1 0x40 ADD PUSH1 0x40 MSTORE DUP1 PUSH1 0x5 DUP2 MSTORE PUSH1 0x20 ADD PUSH32 0x536576656E000000000000000000000000000000000000000000000000000000 DUP2 MSTORE POP DUP2 MSTORE POP PUSH1 0x6 SWAP1 PUSH1 0x8 PUSH3 0x1F8 SWAP3 SWAP2 SWAP1 PUSH3 0x6EB JUMP JUMPDEST POP CALLVALUE DUP1 ISZERO PUSH3 0x206 JUMPI PUSH1 0x0 DUP1 REVERT JUMPDEST POP PUSH1 0x40 MLOAD PUSH3 0x36EB CODESIZE SUB DUP1 PUSH3 0x36EB DUP4 CODECOPY DUP2 DUP2 ADD PUSH1 0x40 MSTORE DUP2 ADD SWAP1 PUSH3 0x22C SWAP2 SWAP1 PUSH3 0x909 JUMP JUMPDEST DUP4 DUP4 PUSH3 0x24E PUSH3 0x242 PUSH3 0x61F PUSH1 0x20 SHL PUSH1 0x20 SHR JUMP JUMPDEST PUSH3 0x627 PUSH1 0x20 SHL PUSH1 0x20 SHR JUMP JUMPDEST DUP2 PUSH20 0xFFFFFFFFFFFFFFFFFFFFFFFFFFFFFFFFFFFFFFFF AND PUSH1 0xA0 DUP2 PUSH20 0xFFFFFFFFFFFFFFFFFFFFFFFFFFFFFFFFFFFFFFFF AND DUP2 MSTORE POP POP DUP1 PUSH20 0xFFFFFFFFFFFFFFFFFFFFFFFFFFFFFFFFFFFFFFFF AND PUSH1 0x80 DUP2 PUSH20 0xFFFFFFFFFFFFFFFFFFFFFFFFFFFFFFFFFFFFFFFF AND DUP2 MSTORE POP POP POP POP PUSH8 0x10A741A46278000 PUSH1 0x2 DUP2 SWAP1 SSTORE POP PUSH1 0x40 MLOAD DUP1 PUSH1 0x40 ADD PUSH1 0x40 MSTORE DUP1 PUSH8 0x6F05B59D3B200000 PUSH8 0xFFFFFFFFFFFFFFFF AND DUP2 MSTORE PUSH1 0x20 ADD PUSH8 0xDE0B6B3A76400000 PUSH8 0xFFFFFFFFFFFFFFFF AND DUP2 MSTORE POP PUSH1 0x3 PUSH1 0x40 MLOAD PUSH3 0x310 SWAP1 PUSH3 0x9D6 JUMP JUMPDEST SWAP1 DUP2 MSTORE PUSH1 0x20 ADD PUSH1 0x40 MLOAD DUP1 SWAP2 SUB SWAP1 KECCAK256 SWAP1 PUSH1 0x2 PUSH3 0x32E SWAP3 SWAP2 SWAP1 PUSH3 0x74B JUMP JUMPDEST POP PUSH1 0x40 MLOAD DUP1 PUSH1 0x40 ADD PUSH1 0x40 MSTORE DUP1 PUSH8 0x6124FEE993BC0000 PUSH8 0xFFFFFFFFFFFFFFFF AND DUP2 MSTORE PUSH1 0x20 ADD PUSH8 0xC249FDD327780000 PUSH8 0xFFFFFFFFFFFFFFFF AND DUP2 MSTORE POP PUSH1 0x3 PUSH1 0x40 MLOAD PUSH3 0x378 SWAP1 PUSH3 0xA3D JUMP JUMPDEST SWAP1 DUP2 MSTORE PUSH1 0x20 ADD PUSH1 0x40 MLOAD DUP1 SWAP2 SUB SWAP1 KECCAK256 SWAP1 PUSH1 0x2 PUSH3 0x396 SWAP3 SWAP2 SWAP1 PUSH3 0x74B JUMP JUMPDEST POP PUSH1 0x40 MLOAD DUP1 PUSH1 0x40 ADD PUSH1 0x40 MSTORE DUP1 PUSH8 0x53444835EC580000 PUSH8 0xFFFFFFFFFFFFFFFF AND DUP2 MSTORE PUSH1 0x20 ADD PUSH8 0xA688906BD8B00000 PUSH8 0xFFFFFFFFFFFFFFFF AND DUP2 MSTORE POP PUSH1 0x3 PUSH1 0x40 MLOAD PUSH3 0x3E0 SWAP1 PUSH3 0xAA4 JUMP JUMPDEST SWAP1 DUP2 MSTORE PUSH1 0x20 ADD PUSH1 0x40 MLOAD DUP1 SWAP2 SUB SWAP1 KECCAK256 SWAP1 PUSH1 0x2 PUSH3 0x3FE SWAP3 SWAP2 SWAP1 PUSH3 0x74B JUMP JUMPDEST POP PUSH1 0x40 MLOAD DUP1 PUSH1 0x40 ADD PUSH1 0x40 MSTORE DUP1 PUSH8 0x4563918244F40000 PUSH8 0xFFFFFFFFFFFFFFFF AND DUP2 MSTORE PUSH1 0x20 ADD PUSH8 0x8AC7230489E80000 PUSH8 0xFFFFFFFFFFFFFFFF AND DUP2 MSTORE POP PUSH1 0x3 PUSH1 0x40 MLOAD PUSH3 0x448 SWAP1 PUSH3 0xB0B JUMP JUMPDEST SWAP1 DUP2 MSTORE PUSH1 0x20 ADD PUSH1 0x40 MLOAD DUP1 SWAP2 SUB SWAP1 KECCAK256 SWAP1 PUSH1 0x2 PUSH3 0x466 SWAP3 SWAP2 SWAP1 PUSH3 0x74B JUMP JUMPDEST POP PUSH1 0x40 MLOAD DUP1 PUSH1 0x40 ADD PUSH1 0x40 MSTORE DUP1 PUSH8 0x3782DACE9D900000 PUSH8 0xFFFFFFFFFFFFFFFF AND DUP2 MSTORE PUSH1 0x20 ADD PUSH8 0x6F05B59D3B200000 PUSH8 0xFFFFFFFFFFFFFFFF AND DUP2 MSTORE POP PUSH1 0x3 PUSH1 0x40 MLOAD PUSH3 0x4B0 SWAP1 PUSH3 0xB72 JUMP JUMPDEST SWAP1 DUP2 MSTORE PUSH1 0x20 ADD PUSH1 0x40 MLOAD DUP1 SWAP2 SUB SWAP1 KECCAK256 SWAP1 PUSH1 0x2 PUSH3 0x4CE SWAP3 SWAP2 SWAP1 PUSH3 0x74B JUMP JUMPDEST POP PUSH1 0x40 MLOAD DUP1 PUSH1 0x40 ADD PUSH1 0x40 MSTORE DUP1 PUSH8 0x29A2241AF62C0000 PUSH8 0xFFFFFFFFFFFFFFFF AND DUP2 MSTORE PUSH1 0x20 ADD PUSH8 0x53444835EC580000 PUSH8 0xFFFFFFFFFFFFFFFF AND DUP2 MSTORE POP PUSH1 0x3 PUSH1 0x40 MLOAD PUSH3 0x518 SWAP1 PUSH3 0xBD9 JUMP JUMPDEST SWAP1 DUP2 MSTORE PUSH1 0x20 ADD PUSH1 0x40 MLOAD DUP1 SWAP2 SUB SWAP1 KECCAK256 SWAP1 PUSH1 0x2 PUSH3 0x536 SWAP3 SWAP2 SWAP1 PUSH3 0x74B JUMP JUMPDEST POP PUSH1 0x40 MLOAD DUP1 PUSH1 0x40 ADD PUSH1 0x40 MSTORE DUP1 PUSH8 0x1BC16D674EC80000 PUSH8 0xFFFFFFFFFFFFFFFF AND DUP2 MSTORE PUSH1 0x20 ADD PUSH8 0x3782DACE9D900000 PUSH8 0xFFFFFFFFFFFFFFFF AND DUP2 MSTORE POP PUSH1 0x3 PUSH1 0x40 MLOAD PUSH3 0x580 SWAP1 PUSH3 0xC40 JUMP JUMPDEST SWAP1 DUP2 MSTORE PUSH1 0x20 ADD PUSH1 0x40 MLOAD DUP1 SWAP2 SUB SWAP1 KECCAK256 SWAP1 PUSH1 0x2 PUSH3 0x59E SWAP3 SWAP2 SWAP1 PUSH3 0x74B JUMP JUMPDEST POP PUSH1 0x40 MLOAD DUP1 PUSH1 0x40 ADD PUSH1 0x40 MSTORE DUP1 PUSH8 0xDE0B6B3A7640000 PUSH8 0xFFFFFFFFFFFFFFFF AND DUP2 MSTORE PUSH1 0x20 ADD PUSH8 0x1BC16D674EC80000 PUSH8 0xFFFFFFFFFFFFFFFF AND DUP2 MSTORE POP PUSH1 0x3 PUSH1 0x40 MLOAD PUSH3 0x5E8 SWAP1 PUSH3 0xCA7 JUMP JUMPDEST SWAP1 DUP2 MSTORE PUSH1 0x20 ADD PUSH1 0x40 MLOAD DUP1 SWAP2 SUB SWAP1 KECCAK256 SWAP1 PUSH1 0x2 PUSH3 0x606 SWAP3 SWAP2 SWAP1 PUSH3 0x74B JUMP JUMPDEST POP DUP2 PUSH1 0x4 DUP2 SWAP1 SSTORE POP DUP1 PUSH1 0x5 DUP2 SWAP1 SSTORE POP POP POP POP POP PUSH3 0x1015 JUMP JUMPDEST PUSH1 0x0 CALLER SWAP1 POP SWAP1 JUMP JUMPDEST PUSH1 0x0 DUP1 PUSH1 0x0 SWAP1 SLOAD SWAP1 PUSH2 0x100 EXP SWAP1 DIV PUSH20 0xFFFFFFFFFFFFFFFFFFFFFFFFFFFFFFFFFFFFFFFF AND SWAP1 POP DUP2 PUSH1 0x0 DUP1 PUSH2 0x100 EXP DUP2 SLOAD DUP2 PUSH20 0xFFFFFFFFFFFFFFFFFFFFFFFFFFFFFFFFFFFFFFFF MUL NOT AND SWAP1 DUP4 PUSH20 0xFFFFFFFFFFFFFFFFFFFFFFFFFFFFFFFFFFFFFFFF AND MUL OR SWAP1 SSTORE POP DUP2 PUSH20 0xFFFFFFFFFFFFFFFFFFFFFFFFFFFFFFFFFFFFFFFF AND DUP2 PUSH20 0xFFFFFFFFFFFFFFFFFFFFFFFFFFFFFFFFFFFFFFFF AND PUSH32 0x8BE0079C531659141344CD1FD0A4F28419497F9722A3DAAFE3B4186F6B6457E0 PUSH1 0x40 MLOAD PUSH1 0x40 MLOAD DUP1 SWAP2 SUB SWAP1 LOG3 POP POP JUMP JUMPDEST DUP3 DUP1 SLOAD DUP3 DUP3 SSTORE SWAP1 PUSH1 0x0 MSTORE PUSH1 0x20 PUSH1 0x0 KECCAK256 SWAP1 DUP2 ADD SWAP3 DUP3 ISZERO PUSH3 0x738 JUMPI SWAP2 PUSH1 0x20 MUL DUP3 ADD JUMPDEST DUP3 DUP2 GT ISZERO PUSH3 0x737 JUMPI DUP3 MLOAD DUP3 SWAP1 DUP2 PUSH3 0x726 SWAP2 SWAP1 PUSH3 0xF2E JUMP JUMPDEST POP SWAP2 PUSH1 0x20 ADD SWAP2 SWAP1 PUSH1 0x1 ADD SWAP1 PUSH3 0x70C JUMP JUMPDEST JUMPDEST POP SWAP1 POP PUSH3 0x747 SWAP2 SWAP1 PUSH3 0x79C JUMP JUMPDEST POP SWAP1 JUMP JUMPDEST DUP3 PUSH1 0x2 DUP2 ADD SWAP3 DUP3 ISZERO PUSH3 0x789 JUMPI SWAP2 PUSH1 0x20 MUL DUP3 ADD JUMPDEST DUP3 DUP2 GT ISZERO PUSH3 0x788 JUMPI DUP3 MLOAD DUP3 SWAP1 PUSH8 0xFFFFFFFFFFFFFFFF AND SWAP1 SSTORE SWAP2 PUSH1 0x20 ADD SWAP2 SWAP1 PUSH1 0x1 ADD SWAP1 PUSH3 0x75F JUMP JUMPDEST JUMPDEST POP SWAP1 POP PUSH3 0x798 SWAP2 SWAP1 PUSH3 0x7C4 JUMP JUMPDEST POP SWAP1 JUMP JUMPDEST JUMPDEST DUP1 DUP3 GT ISZERO PUSH3 0x7C0 JUMPI PUSH1 0x0 DUP2 DUP2 PUSH3 0x7B6 SWAP2 SWAP1 PUSH3 0x7E3 JUMP JUMPDEST POP PUSH1 0x1 ADD PUSH3 0x79D JUMP JUMPDEST POP SWAP1 JUMP JUMPDEST JUMPDEST DUP1 DUP3 GT ISZERO PUSH3 0x7DF JUMPI PUSH1 0x0 DUP2 PUSH1 0x0 SWAP1 SSTORE POP PUSH1 0x1 ADD PUSH3 0x7C5 JUMP JUMPDEST POP SWAP1 JUMP JUMPDEST POP DUP1 SLOAD PUSH3 0x7F1 SWAP1 PUSH3 0xD27 JUMP JUMPDEST PUSH1 0x0 DUP3 SSTORE DUP1 PUSH1 0x1F LT PUSH3 0x805 JUMPI POP PUSH3 0x826 JUMP JUMPDEST PUSH1 0x1F ADD PUSH1 0x20 SWAP1 DIV SWAP1 PUSH1 0x0 MSTORE PUSH1 0x20 PUSH1 0x0 KECCAK256 SWAP1 DUP2 ADD SWAP1 PUSH3 0x825 SWAP2 SWAP1 PUSH3 0x7C4 JUMP JUMPDEST JUMPDEST POP JUMP JUMPDEST PUSH1 0x0 DUP1 REVERT JUMPDEST PUSH1 0x0 PUSH20 0xFFFFFFFFFFFFFFFFFFFFFFFFFFFFFFFFFFFFFFFF DUP3 AND SWAP1 POP SWAP2 SWAP1 POP JUMP JUMPDEST PUSH1 0x0 PUSH3 0x85B DUP3 PUSH3 0x82E JUMP JUMPDEST SWAP1 POP SWAP2 SWAP1 POP JUMP JUMPDEST PUSH3 0x86D DUP2 PUSH3 0x84E JUMP JUMPDEST DUP2 EQ PUSH3 0x879 JUMPI PUSH1 0x0 DUP1 REVERT JUMPDEST POP JUMP JUMPDEST PUSH1 0x0 DUP2 MLOAD SWAP1 POP PUSH3 0x88D DUP2 PUSH3 0x862 JUMP JUMPDEST SWAP3 SWAP2 POP POP JUMP JUMPDEST PUSH1 0x0 DUP2 SWAP1 POP SWAP2 SWAP1 POP JUMP JUMPDEST PUSH3 0x8A8 DUP2 PUSH3 0x893 JUMP JUMPDEST DUP2 EQ PUSH3 0x8B4 JUMPI PUSH1 0x0 DUP1 REVERT JUMPDEST POP JUMP JUMPDEST PUSH1 0x0 DUP2 MLOAD SWAP1 POP PUSH3 0x8C8 DUP2 PUSH3 0x89D JUMP JUMPDEST SWAP3 SWAP2 POP POP JUMP JUMPDEST PUSH1 0x0 DUP2 SWAP1 POP SWAP2 SWAP1 POP JUMP JUMPDEST PUSH3 0x8E3 DUP2 PUSH3 0x8CE JUMP JUMPDEST DUP2 EQ PUSH3 0x8EF JUMPI PUSH1 0x0 DUP1 REVERT JUMPDEST POP JUMP JUMPDEST PUSH1 0x0 DUP2 MLOAD SWAP1 POP PUSH3 0x903 DUP2 PUSH3 0x8D8 JUMP JUMPDEST SWAP3 SWAP2 POP POP JUMP JUMPDEST PUSH1 0x0 DUP1 PUSH1 0x0 DUP1 PUSH1 0x80 DUP6 DUP8 SUB SLT ISZERO PUSH3 0x926 JUMPI PUSH3 0x925 PUSH3 0x829 JUMP JUMPDEST JUMPDEST PUSH1 0x0 PUSH3 0x936 DUP8 DUP3 DUP9 ADD PUSH3 0x87C JUMP JUMPDEST SWAP5 POP POP PUSH1 0x20 PUSH3 0x949 DUP8 DUP3 DUP9 ADD PUSH3 0x87C JUMP JUMPDEST SWAP4 POP POP PUSH1 0x40 PUSH3 0x95C DUP8 DUP3 DUP9 ADD PUSH3 0x8B7 JUMP JUMPDEST SWAP3 POP POP PUSH1 0x60 PUSH3 0x96F DUP8 DUP3 DUP9 ADD PUSH3 0x8F2 JUMP JUMPDEST SWAP2 POP POP SWAP3 SWAP6 SWAP2 SWAP5 POP SWAP3 POP JUMP JUMPDEST PUSH1 0x0 DUP2 SWAP1 POP SWAP3 SWAP2 POP POP JUMP JUMPDEST PUSH32 0x4368657272790000000000000000000000000000000000000000000000000000 PUSH1 0x0 DUP3 ADD MSTORE POP JUMP JUMPDEST PUSH1 0x0 PUSH3 0x9BE PUSH1 0x6 DUP4 PUSH3 0x97B JUMP JUMPDEST SWAP2 POP PUSH3 0x9CB DUP3 PUSH3 0x986 JUMP JUMPDEST PUSH1 0x6 DUP3 ADD SWAP1 POP SWAP2 SWAP1 POP JUMP JUMPDEST PUSH1 0x0 PUSH3 0x9E3 DUP3 PUSH3 0x9AF JUMP JUMPDEST SWAP2 POP DUP2 SWAP1 POP SWAP2 SWAP1 POP JUMP JUMPDEST PUSH32 0x4C656D6F6E000000000000000000000000000000000000000000000000000000 PUSH1 0x0 DUP3 ADD MSTORE POP JUMP JUMPDEST PUSH1 0x0 PUSH3 0xA25 PUSH1 0x5 DUP4 PUSH3 0x97B JUMP JUMPDEST SWAP2 POP PUSH3 0xA32 DUP3 PUSH3 0x9ED JUMP JUMPDEST PUSH1 0x5 DUP3 ADD SWAP1 POP SWAP2 SWAP1 POP JUMP JUMPDEST PUSH1 0x0 PUSH3 0xA4A DUP3 PUSH3 0xA16 JUMP JUMPDEST SWAP2 POP DUP2 SWAP1 POP SWAP2 SWAP1 POP JUMP JUMPDEST PUSH32 0x506C756D00000000000000000000000000000000000000000000000000000000 PUSH1 0x0 DUP3 ADD MSTORE POP JUMP JUMPDEST PUSH1 0x0 PUSH3 0xA8C PUSH1 0x4 DUP4 PUSH3 0x97B JUMP JUMPDEST SWAP2 POP PUSH3 0xA99 DUP3 PUSH3 0xA54 JUMP JUMPDEST PUSH1 0x4 DUP3 ADD SWAP1 POP SWAP2 SWAP1 POP JUMP JUMPDEST PUSH1 0x0 PUSH3 0xAB1 DUP3 PUSH3 0xA7D JUMP JUMPDEST SWAP2 POP DUP2 SWAP1 POP SWAP2 SWAP1 POP JUMP JUMPDEST PUSH32 0x4F72616E67650000000000000000000000000000000000000000000000000000 PUSH1 0x0 DUP3 ADD MSTORE POP JUMP JUMPDEST PUSH1 0x0 PUSH3 0xAF3 PUSH1 0x6 DUP4 PUSH3 0x97B JUMP JUMPDEST SWAP2 POP PUSH3 0xB00 DUP3 PUSH3 0xABB JUMP JUMPDEST PUSH1 0x6 DUP3 ADD SWAP1 POP SWAP2 SWAP1 POP JUMP JUMPDEST PUSH1 0x0 PUSH3 0xB18 DUP3 PUSH3 0xAE4 JUMP JUMPDEST SWAP2 POP DUP2 SWAP1 POP SWAP2 SWAP1 POP JUMP JUMPDEST PUSH32 0x42656C6C00000000000000000000000000000000000000000000000000000000 PUSH1 0x0 DUP3 ADD MSTORE POP JUMP JUMPDEST PUSH1 0x0 PUSH3 0xB5A PUSH1 0x4 DUP4 PUSH3 0x97B JUMP JUMPDEST SWAP2 POP PUSH3 0xB67 DUP3 PUSH3 0xB22 JUMP JUMPDEST PUSH1 0x4 DUP3 ADD SWAP1 POP SWAP2 SWAP1 POP JUMP JUMPDEST PUSH1 0x0 PUSH3 0xB7F DUP3 PUSH3 0xB4B JUMP JUMPDEST SWAP2 POP DUP2 SWAP1 POP SWAP2 SWAP1 POP JUMP JUMPDEST PUSH32 0x4D656C6F6E000000000000000000000000000000000000000000000000000000 PUSH1 0x0 DUP3 ADD MSTORE POP JUMP JUMPDEST PUSH1 0x0 PUSH3 0xBC1 PUSH1 0x5 DUP4 PUSH3 0x97B JUMP JUMPDEST SWAP2 POP PUSH3 0xBCE DUP3 PUSH3 0xB89 JUMP JUMPDEST PUSH1 0x5 DUP3 ADD SWAP1 POP SWAP2 SWAP1 POP JUMP JUMPDEST PUSH1 0x0 PUSH3 0xBE6 DUP3 PUSH3 0xBB2 JUMP JUMPDEST SWAP2 POP DUP2 SWAP1 POP SWAP2 SWAP1 POP JUMP JUMPDEST PUSH32 0x4261720000000000000000000000000000000000000000000000000000000000 PUSH1 0x0 DUP3 ADD MSTORE POP JUMP JUMPDEST PUSH1 0x0 PUSH3 0xC28 PUSH1 0x3 DUP4 PUSH3 0x97B JUMP JUMPDEST SWAP2 POP PUSH3 0xC35 DUP3 PUSH3 0xBF0 JUMP JUMPDEST PUSH1 0x3 DUP3 ADD SWAP1 POP SWAP2 SWAP1 POP JUMP JUMPDEST PUSH1 0x0 PUSH3 0xC4D DUP3 PUSH3 0xC19 JUMP JUMPDEST SWAP2 POP DUP2 SWAP1 POP SWAP2 SWAP1 POP JUMP JUMPDEST PUSH32 0x536576656E000000000000000000000000000000000000000000000000000000 PUSH1 0x0 DUP3 ADD MSTORE POP JUMP JUMPDEST PUSH1 0x0 PUSH3 0xC8F PUSH1 0x5 DUP4 PUSH3 0x97B JUMP JUMPDEST SWAP2 POP PUSH3 0xC9C DUP3 PUSH3 0xC57 JUMP JUMPDEST PUSH1 0x5 DUP3 ADD SWAP1 POP SWAP2 SWAP1 POP JUMP JUMPDEST PUSH1 0x0 PUSH3 0xCB4 DUP3 PUSH3 0xC80 JUMP JUMPDEST SWAP2 POP DUP2 SWAP1 POP SWAP2 SWAP1 POP JUMP JUMPDEST PUSH1 0x0 DUP2 MLOAD SWAP1 POP SWAP2 SWAP1 POP JUMP JUMPDEST PUSH32 0x4E487B7100000000000000000000000000000000000000000000000000000000 PUSH1 0x0 MSTORE PUSH1 0x41 PUSH1 0x4 MSTORE PUSH1 0x24 PUSH1 0x0 REVERT JUMPDEST PUSH32 0x4E487B7100000000000000000000000000000000000000000000000000000000 PUSH1 0x0 MSTORE PUSH1 0x22 PUSH1 0x4 MSTORE PUSH1 0x24 PUSH1 0x0 REVERT JUMPDEST PUSH1 0x0 PUSH1 0x2 DUP3 DIV SWAP1 POP PUSH1 0x1 DUP3 AND DUP1 PUSH3 0xD40 JUMPI PUSH1 0x7F DUP3 AND SWAP2 POP JUMPDEST PUSH1 0x20 DUP3 LT DUP2 SUB PUSH3 0xD56 JUMPI PUSH3 0xD55 PUSH3 0xCF8 JUMP JUMPDEST JUMPDEST POP SWAP2 SWAP1 POP JUMP JUMPDEST PUSH1 0x0 DUP2 SWAP1 POP DUP2 PUSH1 0x0 MSTORE PUSH1 0x20 PUSH1 0x0 KECCAK256 SWAP1 POP SWAP2 SWAP1 POP JUMP JUMPDEST PUSH1 0x0 PUSH1 0x20 PUSH1 0x1F DUP4 ADD DIV SWAP1 POP SWAP2 SWAP1 POP JUMP JUMPDEST PUSH1 0x0 DUP3 DUP3 SHL SWAP1 POP SWAP3 SWAP2 POP POP JUMP JUMPDEST PUSH1 0x0 PUSH1 0x8 DUP4 MUL PUSH3 0xDC0 PUSH32 0xFFFFFFFFFFFFFFFFFFFFFFFFFFFFFFFFFFFFFFFFFFFFFFFFFFFFFFFFFFFFFFFF DUP3 PUSH3 0xD81 JUMP JUMPDEST PUSH3 0xDCC DUP7 DUP4 PUSH3 0xD81 JUMP JUMPDEST SWAP6 POP DUP1 NOT DUP5 AND SWAP4 POP DUP1 DUP7 AND DUP5 OR SWAP3 POP POP POP SWAP4 SWAP3 POP POP POP JUMP JUMPDEST PUSH1 0x0 DUP2 SWAP1 POP SWAP2 SWAP1 POP JUMP JUMPDEST PUSH1 0x0 PUSH3 0xE0F PUSH3 0xE09 PUSH3 0xE03 DUP5 PUSH3 0x8CE JUMP JUMPDEST PUSH3 0xDE4 JUMP JUMPDEST PUSH3 0x8CE JUMP JUMPDEST SWAP1 POP SWAP2 SWAP1 POP JUMP JUMPDEST PUSH1 0x0 DUP2 SWAP1 POP SWAP2 SWAP1 POP JUMP JUMPDEST PUSH3 0xE2B DUP4 PUSH3 0xDEE JUMP JUMPDEST PUSH3 0xE43 PUSH3 0xE3A DUP3 PUSH3 0xE16 JUMP JUMPDEST DUP5 DUP5 SLOAD PUSH3 0xD8E JUMP JUMPDEST DUP3 SSTORE POP POP POP POP JUMP JUMPDEST PUSH1 0x0 SWAP1 JUMP JUMPDEST PUSH3 0xE5A PUSH3 0xE4B JUMP JUMPDEST PUSH3 0xE67 DUP2 DUP5 DUP5 PUSH3 0xE20 JUMP JUMPDEST POP POP POP JUMP JUMPDEST JUMPDEST DUP2 DUP2 LT ISZERO PUSH3 0xE8F JUMPI PUSH3 0xE83 PUSH1 0x0 DUP3 PUSH3 0xE50 JUMP JUMPDEST PUSH1 0x1 DUP2 ADD SWAP1 POP PUSH3 0xE6D JUMP JUMPDEST POP POP JUMP JUMPDEST PUSH1 0x1F DUP3 GT ISZERO PUSH3 0xEDE JUMPI PUSH3 0xEA8 DUP2 PUSH3 0xD5C JUMP JUMPDEST PUSH3 0xEB3 DUP5 PUSH3 0xD71 JUMP JUMPDEST DUP2 ADD PUSH1 0x20 DUP6 LT ISZERO PUSH3 0xEC3 JUMPI DUP2 SWAP1 POP JUMPDEST PUSH3 0xEDB PUSH3 0xED2 DUP6 PUSH3 0xD71 JUMP JUMPDEST DUP4 ADD DUP3 PUSH3 0xE6C JUMP JUMPDEST POP POP JUMPDEST POP POP POP JUMP JUMPDEST PUSH1 0x0 DUP3 DUP3 SHR SWAP1 POP SWAP3 SWAP2 POP POP JUMP JUMPDEST PUSH1 0x0 PUSH3 0xF03 PUSH1 0x0 NOT DUP5 PUSH1 0x8 MUL PUSH3 0xEE3 JUMP JUMPDEST NOT DUP1 DUP4 AND SWAP2 POP POP SWAP3 SWAP2 POP POP JUMP JUMPDEST PUSH1 0x0 PUSH3 0xF1E DUP4 DUP4 PUSH3 0xEF0 JUMP JUMPDEST SWAP2 POP DUP3 PUSH1 0x2 MUL DUP3 OR SWAP1 POP SWAP3 SWAP2 POP POP JUMP JUMPDEST PUSH3 0xF39 DUP3 PUSH3 0xCBE JUMP JUMPDEST PUSH8 0xFFFFFFFFFFFFFFFF DUP2 GT ISZERO PUSH3 0xF55 JUMPI PUSH3 0xF54 PUSH3 0xCC9 JUMP JUMPDEST JUMPDEST PUSH3 0xF61 DUP3 SLOAD PUSH3 0xD27 JUMP JUMPDEST PUSH3 0xF6E DUP3 DUP3 DUP6 PUSH3 0xE93 JUMP JUMPDEST PUSH1 0x0 PUSH1 0x20 SWAP1 POP PUSH1 0x1F DUP4 GT PUSH1 0x1 DUP2 EQ PUSH3 0xFA6 JUMPI PUSH1 0x0 DUP5 ISZERO PUSH3 0xF91 JUMPI DUP3 DUP8 ADD MLOAD SWAP1 POP JUMPDEST PUSH3 0xF9D DUP6 DUP3 PUSH3 0xF10 JUMP JUMPDEST DUP7 SSTORE POP PUSH3 0x100D JUMP JUMPDEST PUSH1 0x1F NOT DUP5 AND PUSH3 0xFB6 DUP7 PUSH3 0xD5C JUMP JUMPDEST PUSH1 0x0 JUMPDEST DUP3 DUP2 LT ISZERO PUSH3 0xFE0 JUMPI DUP5 DUP10 ADD MLOAD DUP3 SSTORE PUSH1 0x1 DUP3 ADD SWAP2 POP PUSH1 0x20 DUP6 ADD SWAP5 POP PUSH1 0x20 DUP2 ADD SWAP1 POP PUSH3 0xFB9 JUMP JUMPDEST DUP7 DUP4 LT ISZERO PUSH3 0x1000 JUMPI DUP5 DUP10 ADD MLOAD PUSH3 0xFFC PUSH1 0x1F DUP10 AND DUP3 PUSH3 0xEF0 JUMP JUMPDEST DUP4 SSTORE POP JUMPDEST PUSH1 0x1 PUSH1 0x2 DUP9 MUL ADD DUP9 SSTORE POP POP POP JUMPDEST POP POP POP POP POP POP JUMP JUMPDEST PUSH1 0x80 MLOAD PUSH1 0xA0 MLOAD PUSH2 0x26A9 PUSH3 0x1042 PUSH1 0x0 CODECOPY PUSH1 0x0 DUP2 DUP2 PUSH2 0x772 ADD MSTORE PUSH2 0xDFD ADD MSTORE PUSH1 0x0 PUSH2 0xDC1 ADD MSTORE PUSH2 0x26A9 PUSH1 0x0 RETURN INVALID PUSH1 0x80 PUSH1 0x40 MSTORE PUSH1 0x4 CALLDATASIZE LT PUSH2 0xF3 JUMPI PUSH1 0x0 CALLDATALOAD PUSH1 0xE0 SHR DUP1 PUSH4 0x8DA5CB5B GT PUSH2 0x8A JUMPI DUP1 PUSH4 0xCCCE413B GT PUSH2 0x59 JUMPI DUP1 PUSH4 0xCCCE413B EQ PUSH2 0x303 JUMPI DUP1 PUSH4 0xD0E30DB0 EQ PUSH2 0x340 JUMPI DUP1 PUSH4 0xF0ACD7D5 EQ PUSH2 0x34A JUMPI DUP1 PUSH4 0xF2FDE38B EQ PUSH2 0x368 JUMPI PUSH2 0xF3 JUMP JUMPDEST DUP1 PUSH4 0x8DA5CB5B EQ PUSH2 0x259 JUMPI DUP1 PUSH4 0x94985DDD EQ PUSH2 0x284 JUMPI DUP1 PUSH4 0xA035B1FE EQ PUSH2 0x2AD JUMPI DUP1 PUSH4 0xBF152765 EQ PUSH2 0x2D8 JUMPI PUSH2 0xF3 JUMP JUMPDEST DUP1 PUSH4 0x6F9F9EA7 GT PUSH2 0xC6 JUMPI DUP1 PUSH4 0x6F9F9EA7 EQ PUSH2 0x1D9 JUMPI DUP1 PUSH4 0x715018A6 EQ PUSH2 0x202 JUMPI DUP1 PUSH4 0x793CD71E EQ PUSH2 0x219 JUMPI DUP1 PUSH4 0x8D6CC56D EQ PUSH2 0x230 JUMPI PUSH2 0xF3 JUMP JUMPDEST DUP1 PUSH4 0x27E235E3 EQ PUSH2 0xF8 JUMPI DUP1 PUSH4 0x2E1A7D4D EQ PUSH2 0x135 JUMPI DUP1 PUSH4 0x2F95E210 EQ PUSH2 0x15E JUMPI DUP1 PUSH4 0x39301427 EQ PUSH2 0x19B JUMPI JUMPDEST PUSH1 0x0 DUP1 REVERT JUMPDEST CALLVALUE DUP1 ISZERO PUSH2 0x104 JUMPI PUSH1 0x0 DUP1 REVERT JUMPDEST POP PUSH2 0x11F PUSH1 0x4 DUP1 CALLDATASIZE SUB DUP2 ADD SWAP1 PUSH2 0x11A SWAP2 SWAP1 PUSH2 0x150C JUMP JUMPDEST PUSH2 0x391 JUMP JUMPDEST PUSH1 0x40 MLOAD PUSH2 0x12C SWAP2 SWAP1 PUSH2 0x1552 JUMP JUMPDEST PUSH1 0x40 MLOAD DUP1 SWAP2 SUB SWAP1 RETURN JUMPDEST CALLVALUE DUP1 ISZERO PUSH2 0x141 JUMPI PUSH1 0x0 DUP1 REVERT JUMPDEST POP PUSH2 0x15C PUSH1 0x4 DUP1 CALLDATASIZE SUB DUP2 ADD SWAP1 PUSH2 0x157 SWAP2 SWAP1 PUSH2 0x1599 JUMP JUMPDEST PUSH2 0x3A9 JUMP JUMPDEST STOP JUMPDEST CALLVALUE DUP1 ISZERO PUSH2 0x16A JUMPI PUSH1 0x0 DUP1 REVERT JUMPDEST POP PUSH2 0x185 PUSH1 0x4 DUP1 CALLDATASIZE SUB DUP2 ADD SWAP1 PUSH2 0x180 SWAP2 SWAP1 PUSH2 0x170C JUMP JUMPDEST PUSH2 0x4A4 JUMP JUMPDEST PUSH1 0x40 MLOAD PUSH2 0x192 SWAP2 SWAP1 PUSH2 0x1552 JUMP JUMPDEST PUSH1 0x40 MLOAD DUP1 SWAP2 SUB SWAP1 RETURN JUMPDEST CALLVALUE DUP1 ISZERO PUSH2 0x1A7 JUMPI PUSH1 0x0 DUP1 REVERT JUMPDEST POP PUSH2 0x1C2 PUSH1 0x4 DUP1 CALLDATASIZE SUB DUP2 ADD SWAP1 PUSH2 0x1BD SWAP2 SWAP1 PUSH2 0x150C JUMP JUMPDEST PUSH2 0x4E2 JUMP JUMPDEST PUSH1 0x40 MLOAD PUSH2 0x1D0 SWAP3 SWAP2 SWAP1 PUSH2 0x1783 JUMP JUMPDEST PUSH1 0x40 MLOAD DUP1 SWAP2 SUB SWAP1 RETURN JUMPDEST CALLVALUE DUP1 ISZERO PUSH2 0x1E5 JUMPI PUSH1 0x0 DUP1 REVERT JUMPDEST POP PUSH2 0x200 PUSH1 0x4 DUP1 CALLDATASIZE SUB DUP2 ADD SWAP1 PUSH2 0x1FB SWAP2 SWAP1 PUSH2 0x17AC JUMP JUMPDEST PUSH2 0x513 JUMP JUMPDEST STOP JUMPDEST CALLVALUE DUP1 ISZERO PUSH2 0x20E JUMPI PUSH1 0x0 DUP1 REVERT JUMPDEST POP PUSH2 0x217 PUSH2 0x562 JUMP JUMPDEST STOP JUMPDEST CALLVALUE DUP1 ISZERO PUSH2 0x225 JUMPI PUSH1 0x0 DUP1 REVERT JUMPDEST POP PUSH2 0x22E PUSH2 0x576 JUMP JUMPDEST STOP JUMPDEST CALLVALUE DUP1 ISZERO PUSH2 0x23C JUMPI PUSH1 0x0 DUP1 REVERT JUMPDEST POP PUSH2 0x257 PUSH1 0x4 DUP1 CALLDATASIZE SUB DUP2 ADD SWAP1 PUSH2 0x252 SWAP2 SWAP1 PUSH2 0x1599 JUMP JUMPDEST PUSH2 0x735 JUMP JUMPDEST STOP JUMPDEST CALLVALUE DUP1 ISZERO PUSH2 0x265 JUMPI PUSH1 0x0 DUP1 REVERT JUMPDEST POP PUSH2 0x26E PUSH2 0x747 JUMP JUMPDEST PUSH1 0x40 MLOAD PUSH2 0x27B SWAP2 SWAP1 PUSH2 0x182A JUMP JUMPDEST PUSH1 0x40 MLOAD DUP1 SWAP2 SUB SWAP1 RETURN JUMPDEST CALLVALUE DUP1 ISZERO PUSH2 0x290 JUMPI PUSH1 0x0 DUP1 REVERT JUMPDEST POP PUSH2 0x2AB PUSH1 0x4 DUP1 CALLDATASIZE SUB DUP2 ADD SWAP1 PUSH2 0x2A6 SWAP2 SWAP1 PUSH2 0x187B JUMP JUMPDEST PUSH2 0x770 JUMP JUMPDEST STOP JUMPDEST CALLVALUE DUP1 ISZERO PUSH2 0x2B9 JUMPI PUSH1 0x0 DUP1 REVERT JUMPDEST POP PUSH2 0x2C2 PUSH2 0x80C JUMP JUMPDEST PUSH1 0x40 MLOAD PUSH2 0x2CF SWAP2 SWAP1 PUSH2 0x1552 JUMP JUMPDEST PUSH1 0x40 MLOAD DUP1 SWAP2 SUB SWAP1 RETURN JUMPDEST CALLVALUE DUP1 ISZERO PUSH2 0x2E4 JUMPI PUSH1 0x0 DUP1 REVERT JUMPDEST POP PUSH2 0x2ED PUSH2 0x812 JUMP JUMPDEST PUSH1 0x40 MLOAD PUSH2 0x2FA SWAP2 SWAP1 PUSH2 0x1552 JUMP JUMPDEST PUSH1 0x40 MLOAD DUP1 SWAP2 SUB SWAP1 RETURN JUMPDEST CALLVALUE DUP1 ISZERO PUSH2 0x30F JUMPI PUSH1 0x0 DUP1 REVERT JUMPDEST POP PUSH2 0x32A PUSH1 0x4 DUP1 CALLDATASIZE SUB DUP2 ADD SWAP1 PUSH2 0x325 SWAP2 SWAP1 PUSH2 0x1599 JUMP JUMPDEST PUSH2 0x859 JUMP JUMPDEST PUSH1 0x40 MLOAD PUSH2 0x337 SWAP2 SWAP1 PUSH2 0x193A JUMP JUMPDEST PUSH1 0x40 MLOAD DUP1 SWAP2 SUB SWAP1 RETURN JUMPDEST PUSH2 0x348 PUSH2 0x905 JUMP JUMPDEST STOP JUMPDEST PUSH2 0x352 PUSH2 0x907 JUMP JUMPDEST PUSH1 0x40 MLOAD PUSH2 0x35F SWAP2 SWAP1 PUSH2 0x1ACA JUMP JUMPDEST PUSH1 0x40 MLOAD DUP1 SWAP2 SUB SWAP1 RETURN JUMPDEST CALLVALUE DUP1 ISZERO PUSH2 0x374 JUMPI PUSH1 0x0 DUP1 REVERT JUMPDEST POP PUSH2 0x38F PUSH1 0x4 DUP1 CALLDATASIZE SUB DUP2 ADD SWAP1 PUSH2 0x38A SWAP2 SWAP1 PUSH2 0x150C JUMP JUMPDEST PUSH2 0xB04 JUMP JUMPDEST STOP JUMPDEST PUSH1 0x8 PUSH1 0x20 MSTORE DUP1 PUSH1 0x0 MSTORE PUSH1 0x40 PUSH1 0x0 KECCAK256 PUSH1 0x0 SWAP2 POP SWAP1 POP SLOAD DUP2 JUMP JUMPDEST PUSH2 0x3B1 PUSH2 0xB87 JUMP JUMPDEST DUP1 SELFBALANCE LT ISZERO PUSH2 0x3F4 JUMPI PUSH1 0x40 MLOAD PUSH32 0x8C379A000000000000000000000000000000000000000000000000000000000 DUP2 MSTORE PUSH1 0x4 ADD PUSH2 0x3EB SWAP1 PUSH2 0x1B38 JUMP JUMPDEST PUSH1 0x40 MLOAD DUP1 SWAP2 SUB SWAP1 REVERT JUMPDEST PUSH1 0x0 CALLER PUSH20 0xFFFFFFFFFFFFFFFFFFFFFFFFFFFFFFFFFFFFFFFF AND DUP3 PUSH1 0x40 MLOAD PUSH2 0x41A SWAP1 PUSH2 0x1B89 JUMP JUMPDEST PUSH1 0x0 PUSH1 0x40 MLOAD DUP1 DUP4 SUB DUP2 DUP6 DUP8 GAS CALL SWAP3 POP POP POP RETURNDATASIZE DUP1 PUSH1 0x0 DUP2 EQ PUSH2 0x457 JUMPI PUSH1 0x40 MLOAD SWAP2 POP PUSH1 0x1F NOT PUSH1 0x3F RETURNDATASIZE ADD AND DUP3 ADD PUSH1 0x40 MSTORE RETURNDATASIZE DUP3 MSTORE RETURNDATASIZE PUSH1 0x0 PUSH1 0x20 DUP5 ADD RETURNDATACOPY PUSH2 0x45C JUMP JUMPDEST PUSH1 0x60 SWAP2 POP JUMPDEST POP POP SWAP1 POP DUP1 PUSH2 0x4A0 JUMPI PUSH1 0x40 MLOAD PUSH32 0x8C379A000000000000000000000000000000000000000000000000000000000 DUP2 MSTORE PUSH1 0x4 ADD PUSH2 0x497 SWAP1 PUSH2 0x1BEA JUMP JUMPDEST PUSH1 0x40 MLOAD DUP1 SWAP2 SUB SWAP1 REVERT JUMPDEST POP POP JUMP JUMPDEST PUSH1 0x3 DUP3 DUP1 MLOAD PUSH1 0x20 DUP2 ADD DUP3 ADD DUP1 MLOAD DUP5 DUP3 MSTORE PUSH1 0x20 DUP4 ADD PUSH1 0x20 DUP6 ADD KECCAK256 DUP2 DUP4 MSTORE DUP1 SWAP6 POP POP POP POP POP POP DUP2 PUSH1 0x2 DUP2 LT PUSH2 0x4D6 JUMPI PUSH1 0x0 DUP1 REVERT JUMPDEST ADD PUSH1 0x0 SWAP2 POP SWAP2 POP POP SLOAD DUP2 JUMP JUMPDEST PUSH1 0x7 PUSH1 0x20 MSTORE DUP1 PUSH1 0x0 MSTORE PUSH1 0x40 PUSH1 0x0 KECCAK256 PUSH1 0x0 SWAP2 POP SWAP1 POP DUP1 PUSH1 0x0 ADD PUSH1 0x0 SWAP1 SLOAD SWAP1 PUSH2 0x100 EXP SWAP1 DIV PUSH1 0xFF AND SWAP1 DUP1 PUSH1 0x4 ADD SLOAD SWAP1 POP DUP3 JUMP JUMPDEST PUSH2 0x51B PUSH2 0xB87 JUMP JUMPDEST PUSH1 0x40 MLOAD DUP1 PUSH1 0x40 ADD PUSH1 0x40 MSTORE DUP1 DUP4 DUP2 MSTORE PUSH1 0x20 ADD DUP3 DUP2 MSTORE POP PUSH1 0x3 DUP5 PUSH1 0x40 MLOAD PUSH2 0x540 SWAP2 SWAP1 PUSH2 0x1C46 JUMP JUMPDEST SWAP1 DUP2 MSTORE PUSH1 0x20 ADD PUSH1 0x40 MLOAD DUP1 SWAP2 SUB SWAP1 KECCAK256 SWAP1 PUSH1 0x2 PUSH2 0x55C SWAP3 SWAP2 SWAP1 PUSH2 0x131A JUMP JUMPDEST POP POP POP POP JUMP JUMPDEST PUSH2 0x56A PUSH2 0xB87 JUMP JUMPDEST PUSH2 0x574 PUSH1 0x0 PUSH2 0xC05 JUMP JUMPDEST JUMP JUMPDEST PUSH1 0x0 PUSH1 0x8 PUSH1 0x0 CALLER PUSH20 0xFFFFFFFFFFFFFFFFFFFFFFFFFFFFFFFFFFFFFFFF AND PUSH20 0xFFFFFFFFFFFFFFFFFFFFFFFFFFFFFFFFFFFFFFFF AND DUP2 MSTORE PUSH1 0x20 ADD SWAP1 DUP2 MSTORE PUSH1 0x20 ADD PUSH1 0x0 KECCAK256 SLOAD SWAP1 POP PUSH1 0x0 DUP2 GT PUSH2 0x5FD JUMPI PUSH1 0x40 MLOAD PUSH32 0x8C379A000000000000000000000000000000000000000000000000000000000 DUP2 MSTORE PUSH1 0x4 ADD PUSH2 0x5F4 SWAP1 PUSH2 0x1CA9 JUMP JUMPDEST PUSH1 0x40 MLOAD DUP1 SWAP2 SUB SWAP1 REVERT JUMPDEST DUP1 SELFBALANCE LT ISZERO PUSH2 0x640 JUMPI PUSH1 0x40 MLOAD PUSH32 0x8C379A000000000000000000000000000000000000000000000000000000000 DUP2 MSTORE PUSH1 0x4 ADD PUSH2 0x637 SWAP1 PUSH2 0x1D15 JUMP JUMPDEST PUSH1 0x40 MLOAD DUP1 SWAP2 SUB SWAP1 REVERT JUMPDEST PUSH1 0x0 PUSH1 0x8 PUSH1 0x0 CALLER PUSH20 0xFFFFFFFFFFFFFFFFFFFFFFFFFFFFFFFFFFFFFFFF AND PUSH20 0xFFFFFFFFFFFFFFFFFFFFFFFFFFFFFFFFFFFFFFFF AND DUP2 MSTORE PUSH1 0x20 ADD SWAP1 DUP2 MSTORE PUSH1 0x20 ADD PUSH1 0x0 KECCAK256 DUP2 SWAP1 SSTORE POP PUSH1 0x0 CALLER PUSH20 0xFFFFFFFFFFFFFFFFFFFFFFFFFFFFFFFFFFFFFFFF AND DUP3 PUSH1 0x40 MLOAD PUSH2 0x6AB SWAP1 PUSH2 0x1B89 JUMP JUMPDEST PUSH1 0x0 PUSH1 0x40 MLOAD DUP1 DUP4 SUB DUP2 DUP6 DUP8 GAS CALL SWAP3 POP POP POP RETURNDATASIZE DUP1 PUSH1 0x0 DUP2 EQ PUSH2 0x6E8 JUMPI PUSH1 0x40 MLOAD SWAP2 POP PUSH1 0x1F NOT PUSH1 0x3F RETURNDATASIZE ADD AND DUP3 ADD PUSH1 0x40 MSTORE RETURNDATASIZE DUP3 MSTORE RETURNDATASIZE PUSH1 0x0 PUSH1 0x20 DUP5 ADD RETURNDATACOPY PUSH2 0x6ED JUMP JUMPDEST PUSH1 0x60 SWAP2 POP JUMPDEST POP POP SWAP1 POP DUP1 PUSH2 0x731 JUMPI PUSH1 0x40 MLOAD PUSH32 0x8C379A000000000000000000000000000000000000000000000000000000000 DUP2 MSTORE PUSH1 0x4 ADD PUSH2 0x728 SWAP1 PUSH2 0x1BEA JUMP JUMPDEST PUSH1 0x40 MLOAD DUP1 SWAP2 SUB SWAP1 REVERT JUMPDEST POP POP JUMP JUMPDEST PUSH2 0x73D PUSH2 0xB87 JUMP JUMPDEST DUP1 PUSH1 0x2 DUP2 SWAP1 SSTORE POP POP JUMP JUMPDEST PUSH1 0x0 DUP1 PUSH1 0x0 SWAP1 SLOAD SWAP1 PUSH2 0x100 EXP SWAP1 DIV PUSH20 0xFFFFFFFFFFFFFFFFFFFFFFFFFFFFFFFFFFFFFFFF AND SWAP1 POP SWAP1 JUMP JUMPDEST PUSH32 0x0 PUSH20 0xFFFFFFFFFFFFFFFFFFFFFFFFFFFFFFFFFFFFFFFF AND CALLER PUSH20 0xFFFFFFFFFFFFFFFFFFFFFFFFFFFFFFFFFFFFFFFF AND EQ PUSH2 0x7FE JUMPI PUSH1 0x40 MLOAD PUSH32 0x8C379A000000000000000000000000000000000000000000000000000000000 DUP2 MSTORE PUSH1 0x4 ADD PUSH2 0x7F5 SWAP1 PUSH2 0x1D81 JUMP JUMPDEST PUSH1 0x40 MLOAD DUP1 SWAP2 SUB SWAP1 REVERT JUMPDEST PUSH2 0x808 DUP3 DUP3 PUSH2 0xCC9 JUMP JUMPDEST POP POP JUMP JUMPDEST PUSH1 0x2 SLOAD DUP2 JUMP JUMPDEST PUSH1 0x0 PUSH1 0x8 PUSH1 0x0 CALLER PUSH20 0xFFFFFFFFFFFFFFFFFFFFFFFFFFFFFFFFFFFFFFFF AND PUSH20 0xFFFFFFFFFFFFFFFFFFFFFFFFFFFFFFFFFFFFFFFF AND DUP2 MSTORE PUSH1 0x20 ADD SWAP1 DUP2 MSTORE PUSH1 0x20 ADD PUSH1 0x0 KECCAK256 SLOAD SWAP1 POP SWAP1 JUMP JUMPDEST PUSH1 0x6 DUP2 DUP2 SLOAD DUP2 LT PUSH2 0x869 JUMPI PUSH1 0x0 DUP1 REVERT JUMPDEST SWAP1 PUSH1 0x0 MSTORE PUSH1 0x20 PUSH1 0x0 KECCAK256 ADD PUSH1 0x0 SWAP2 POP SWAP1 POP DUP1 SLOAD PUSH2 0x884 SWAP1 PUSH2 0x1DD0 JUMP JUMPDEST DUP1 PUSH1 0x1F ADD PUSH1 0x20 DUP1 SWAP2 DIV MUL PUSH1 0x20 ADD PUSH1 0x40 MLOAD SWAP1 DUP2 ADD PUSH1 0x40 MSTORE DUP1 SWAP3 SWAP2 SWAP1 DUP2 DUP2 MSTORE PUSH1 0x20 ADD DUP3 DUP1 SLOAD PUSH2 0x8B0 SWAP1 PUSH2 0x1DD0 JUMP JUMPDEST DUP1 ISZERO PUSH2 0x8FD JUMPI DUP1 PUSH1 0x1F LT PUSH2 0x8D2 JUMPI PUSH2 0x100 DUP1 DUP4 SLOAD DIV MUL DUP4 MSTORE SWAP2 PUSH1 0x20 ADD SWAP2 PUSH2 0x8FD JUMP JUMPDEST DUP3 ADD SWAP2 SWAP1 PUSH1 0x0 MSTORE PUSH1 0x20 PUSH1 0x0 KECCAK256 SWAP1 JUMPDEST DUP2 SLOAD DUP2 MSTORE SWAP1 PUSH1 0x1 ADD SWAP1 PUSH1 0x20 ADD DUP1 DUP4 GT PUSH2 0x8E0 JUMPI DUP3 SWAP1 SUB PUSH1 0x1F AND DUP3 ADD SWAP2 JUMPDEST POP POP POP POP POP DUP2 JUMP JUMPDEST JUMP JUMPDEST PUSH2 0x90F PUSH2 0x135A JUMP JUMPDEST PUSH1 0x2 SLOAD CALLVALUE LT ISZERO PUSH2 0x954 JUMPI PUSH1 0x40 MLOAD PUSH32 0x8C379A000000000000000000000000000000000000000000000000000000000 DUP2 MSTORE PUSH1 0x4 ADD PUSH2 0x94B SWAP1 PUSH2 0x1E4D JUMP JUMPDEST PUSH1 0x40 MLOAD DUP1 SWAP2 SUB SWAP1 REVERT JUMPDEST PUSH1 0x0 PUSH1 0x7 PUSH1 0x0 CALLER PUSH20 0xFFFFFFFFFFFFFFFFFFFFFFFFFFFFFFFFFFFFFFFF AND PUSH20 0xFFFFFFFFFFFFFFFFFFFFFFFFFFFFFFFFFFFFFFFF AND DUP2 MSTORE PUSH1 0x20 ADD SWAP1 DUP2 MSTORE PUSH1 0x20 ADD PUSH1 0x0 KECCAK256 SWAP1 POP DUP1 PUSH1 0x0 ADD PUSH1 0x0 SWAP1 SLOAD SWAP1 PUSH2 0x100 EXP SWAP1 DIV PUSH1 0xFF AND DUP1 PUSH2 0x9B8 JUMPI POP PUSH1 0x0 DUP2 PUSH1 0x4 ADD SLOAD EQ JUMPDEST PUSH2 0x9F7 JUMPI PUSH1 0x40 MLOAD PUSH32 0x8C379A000000000000000000000000000000000000000000000000000000000 DUP2 MSTORE PUSH1 0x4 ADD PUSH2 0x9EE SWAP1 PUSH2 0x1EB9 JUMP JUMPDEST PUSH1 0x40 MLOAD DUP1 SWAP2 SUB SWAP1 REVERT JUMPDEST PUSH2 0xA05 PUSH1 0x4 SLOAD PUSH1 0x5 SLOAD PUSH2 0xDBD JUMP JUMPDEST POP DUP1 PUSH1 0x40 MLOAD DUP1 PUSH1 0x60 ADD PUSH1 0x40 MSTORE SWAP1 DUP2 PUSH1 0x0 DUP3 ADD PUSH1 0x0 SWAP1 SLOAD SWAP1 PUSH2 0x100 EXP SWAP1 DIV PUSH1 0xFF AND ISZERO ISZERO ISZERO ISZERO DUP2 MSTORE PUSH1 0x20 ADD PUSH1 0x1 DUP3 ADD PUSH1 0x3 DUP1 PUSH1 0x20 MUL PUSH1 0x40 MLOAD SWAP1 DUP2 ADD PUSH1 0x40 MSTORE DUP1 SWAP3 SWAP2 SWAP1 PUSH1 0x0 SWAP1 JUMPDEST DUP3 DUP3 LT ISZERO PUSH2 0xAEC JUMPI DUP4 DUP3 ADD DUP1 SLOAD PUSH2 0xA5F SWAP1 PUSH2 0x1DD0 JUMP JUMPDEST DUP1 PUSH1 0x1F ADD PUSH1 0x20 DUP1 SWAP2 DIV MUL PUSH1 0x20 ADD PUSH1 0x40 MLOAD SWAP1 DUP2 ADD PUSH1 0x40 MSTORE DUP1 SWAP3 SWAP2 SWAP1 DUP2 DUP2 MSTORE PUSH1 0x20 ADD DUP3 DUP1 SLOAD PUSH2 0xA8B SWAP1 PUSH2 0x1DD0 JUMP JUMPDEST DUP1 ISZERO PUSH2 0xAD8 JUMPI DUP1 PUSH1 0x1F LT PUSH2 0xAAD JUMPI PUSH2 0x100 DUP1 DUP4 SLOAD DIV MUL DUP4 MSTORE SWAP2 PUSH1 0x20 ADD SWAP2 PUSH2 0xAD8 JUMP JUMPDEST DUP3 ADD SWAP2 SWAP1 PUSH1 0x0 MSTORE PUSH1 0x20 PUSH1 0x0 KECCAK256 SWAP1 JUMPDEST DUP2 SLOAD DUP2 MSTORE SWAP1 PUSH1 0x1 ADD SWAP1 PUSH1 0x20 ADD DUP1 DUP4 GT PUSH2 0xABB JUMPI DUP3 SWAP1 SUB PUSH1 0x1F AND DUP3 ADD SWAP2 JUMPDEST POP POP POP POP POP DUP2 MSTORE PUSH1 0x20 ADD SWAP1 PUSH1 0x1 ADD SWAP1 PUSH2 0xA49 JUMP JUMPDEST POP POP POP POP DUP2 MSTORE PUSH1 0x20 ADD PUSH1 0x4 DUP3 ADD SLOAD DUP2 MSTORE POP POP SWAP2 POP POP SWAP1 JUMP JUMPDEST PUSH2 0xB0C PUSH2 0xB87 JUMP JUMPDEST PUSH1 0x0 PUSH20 0xFFFFFFFFFFFFFFFFFFFFFFFFFFFFFFFFFFFFFFFF AND DUP2 PUSH20 0xFFFFFFFFFFFFFFFFFFFFFFFFFFFFFFFFFFFFFFFF AND SUB PUSH2 0xB7B JUMPI PUSH1 0x40 MLOAD PUSH32 0x8C379A000000000000000000000000000000000000000000000000000000000 DUP2 MSTORE PUSH1 0x4 ADD PUSH2 0xB72 SWAP1 PUSH2 0x1F4B JUMP JUMPDEST PUSH1 0x40 MLOAD DUP1 SWAP2 SUB SWAP1 REVERT JUMPDEST PUSH2 0xB84 DUP2 PUSH2 0xC05 JUMP JUMPDEST POP JUMP JUMPDEST PUSH2 0xB8F PUSH2 0xF0F JUMP JUMPDEST PUSH20 0xFFFFFFFFFFFFFFFFFFFFFFFFFFFFFFFFFFFFFFFF AND PUSH2 0xBAD PUSH2 0x747 JUMP JUMPDEST PUSH20 0xFFFFFFFFFFFFFFFFFFFFFFFFFFFFFFFFFFFFFFFF AND EQ PUSH2 0xC03 JUMPI PUSH1 0x40 MLOAD PUSH32 0x8C379A000000000000000000000000000000000000000000000000000000000 DUP2 MSTORE PUSH1 0x4 ADD PUSH2 0xBFA SWAP1 PUSH2 0x1FB7 JUMP JUMPDEST PUSH1 0x40 MLOAD DUP1 SWAP2 SUB SWAP1 REVERT JUMPDEST JUMP JUMPDEST PUSH1 0x0 DUP1 PUSH1 0x0 SWAP1 SLOAD SWAP1 PUSH2 0x100 EXP SWAP1 DIV PUSH20 0xFFFFFFFFFFFFFFFFFFFFFFFFFFFFFFFFFFFFFFFF AND SWAP1 POP DUP2 PUSH1 0x0 DUP1 PUSH2 0x100 EXP DUP2 SLOAD DUP2 PUSH20 0xFFFFFFFFFFFFFFFFFFFFFFFFFFFFFFFFFFFFFFFF MUL NOT AND SWAP1 DUP4 PUSH20 0xFFFFFFFFFFFFFFFFFFFFFFFFFFFFFFFFFFFFFFFF AND MUL OR SWAP1 SSTORE POP DUP2 PUSH20 0xFFFFFFFFFFFFFFFFFFFFFFFFFFFFFFFFFFFFFFFF AND DUP2 PUSH20 0xFFFFFFFFFFFFFFFFFFFFFFFFFFFFFFFFFFFFFFFF AND PUSH32 0x8BE0079C531659141344CD1FD0A4F28419497F9722A3DAAFE3B4186F6B6457E0 PUSH1 0x40 MLOAD PUSH1 0x40 MLOAD DUP1 SWAP2 SUB SWAP1 LOG3 POP POP JUMP JUMPDEST PUSH1 0x0 PUSH2 0xCD4 DUP3 PUSH2 0xF17 JUMP JUMPDEST SWAP1 POP PUSH1 0x0 PUSH2 0xCE1 DUP3 PUSH2 0x103B JUMP JUMPDEST SWAP1 POP PUSH1 0x0 PUSH1 0x7 PUSH1 0x0 CALLER PUSH20 0xFFFFFFFFFFFFFFFFFFFFFFFFFFFFFFFFFFFFFFFF AND PUSH20 0xFFFFFFFFFFFFFFFFFFFFFFFFFFFFFFFFFFFFFFFF AND DUP2 MSTORE PUSH1 0x20 ADD SWAP1 DUP2 MSTORE PUSH1 0x20 ADD PUSH1 0x0 KECCAK256 SWAP1 POP PUSH1 0x1 DUP2 PUSH1 0x0 ADD PUSH1 0x0 PUSH2 0x100 EXP DUP2 SLOAD DUP2 PUSH1 0xFF MUL NOT AND SWAP1 DUP4 ISZERO ISZERO MUL OR SWAP1 SSTORE POP DUP3 DUP2 PUSH1 0x1 ADD SWAP1 PUSH1 0x3 PUSH2 0xD56 SWAP3 SWAP2 SWAP1 PUSH2 0x1383 JUMP JUMPDEST POP DUP2 DUP2 PUSH1 0x4 ADD DUP2 SWAP1 SSTORE POP DUP2 PUSH1 0x8 PUSH1 0x0 CALLER PUSH20 0xFFFFFFFFFFFFFFFFFFFFFFFFFFFFFFFFFFFFFFFF AND PUSH20 0xFFFFFFFFFFFFFFFFFFFFFFFFFFFFFFFFFFFFFFFF AND DUP2 MSTORE PUSH1 0x20 ADD SWAP1 DUP2 MSTORE PUSH1 0x20 ADD PUSH1 0x0 KECCAK256 PUSH1 0x0 DUP3 DUP3 SLOAD PUSH2 0xDAF SWAP2 SWAP1 PUSH2 0x2006 JUMP JUMPDEST SWAP3 POP POP DUP2 SWAP1 SSTORE POP POP POP POP POP POP JUMP JUMPDEST PUSH1 0x0 PUSH32 0x0 PUSH20 0xFFFFFFFFFFFFFFFFFFFFFFFFFFFFFFFFFFFFFFFF AND PUSH4 0x4000AEA0 PUSH32 0x0 DUP5 DUP7 PUSH1 0x0 PUSH1 0x40 MLOAD PUSH1 0x20 ADD PUSH2 0xE31 SWAP3 SWAP2 SWAP1 PUSH2 0x2049 JUMP JUMPDEST PUSH1 0x40 MLOAD PUSH1 0x20 DUP2 DUP4 SUB SUB DUP2 MSTORE SWAP1 PUSH1 0x40 MSTORE PUSH1 0x40 MLOAD DUP5 PUSH4 0xFFFFFFFF AND PUSH1 0xE0 SHL DUP2 MSTORE PUSH1 0x4 ADD PUSH2 0xE5E SWAP4 SWAP3 SWAP2 SWAP1 PUSH2 0x20C7 JUMP JUMPDEST PUSH1 0x20 PUSH1 0x40 MLOAD DUP1 DUP4 SUB DUP2 PUSH1 0x0 DUP8 GAS CALL ISZERO DUP1 ISZERO PUSH2 0xE7D JUMPI RETURNDATASIZE PUSH1 0x0 DUP1 RETURNDATACOPY RETURNDATASIZE PUSH1 0x0 REVERT JUMPDEST POP POP POP POP PUSH1 0x40 MLOAD RETURNDATASIZE PUSH1 0x1F NOT PUSH1 0x1F DUP3 ADD AND DUP3 ADD DUP1 PUSH1 0x40 MSTORE POP DUP2 ADD SWAP1 PUSH2 0xEA1 SWAP2 SWAP1 PUSH2 0x2131 JUMP JUMPDEST POP PUSH1 0x0 PUSH2 0xEC4 DUP5 PUSH1 0x0 ADDRESS PUSH1 0x1 PUSH1 0x0 DUP10 DUP2 MSTORE PUSH1 0x20 ADD SWAP1 DUP2 MSTORE PUSH1 0x20 ADD PUSH1 0x0 KECCAK256 SLOAD PUSH2 0x12AB JUMP JUMPDEST SWAP1 POP PUSH1 0x1 DUP1 PUSH1 0x0 DUP7 DUP2 MSTORE PUSH1 0x20 ADD SWAP1 DUP2 MSTORE PUSH1 0x20 ADD PUSH1 0x0 KECCAK256 SLOAD PUSH2 0xEE5 SWAP2 SWAP1 PUSH2 0x2006 JUMP JUMPDEST PUSH1 0x1 PUSH1 0x0 DUP7 DUP2 MSTORE PUSH1 0x20 ADD SWAP1 DUP2 MSTORE PUSH1 0x20 ADD PUSH1 0x0 KECCAK256 DUP2 SWAP1 SSTORE POP PUSH2 0xF06 DUP5 DUP3 PUSH2 0x12E7 JUMP JUMPDEST SWAP2 POP POP SWAP3 SWAP2 POP POP JUMP JUMPDEST PUSH1 0x0 CALLER SWAP1 POP SWAP1 JUMP JUMPDEST PUSH2 0xF1F PUSH2 0x13CF JUMP JUMPDEST PUSH2 0xF27 PUSH2 0x13CF JUMP JUMPDEST PUSH1 0x0 JUMPDEST PUSH1 0x3 DUP2 LT ISZERO PUSH2 0x1031 JUMPI PUSH1 0x0 PUSH1 0x6 DUP1 SLOAD SWAP1 POP DUP6 PUSH2 0xF46 SWAP2 SWAP1 PUSH2 0x218D JUMP JUMPDEST SWAP1 POP PUSH1 0x6 DUP2 DUP2 SLOAD DUP2 LT PUSH2 0xF5C JUMPI PUSH2 0xF5B PUSH2 0x21BE JUMP JUMPDEST JUMPDEST SWAP1 PUSH1 0x0 MSTORE PUSH1 0x20 PUSH1 0x0 KECCAK256 ADD DUP1 SLOAD PUSH2 0xF71 SWAP1 PUSH2 0x1DD0 JUMP JUMPDEST DUP1 PUSH1 0x1F ADD PUSH1 0x20 DUP1 SWAP2 DIV MUL PUSH1 0x20 ADD PUSH1 0x40 MLOAD SWAP1 DUP2 ADD PUSH1 0x40 MSTORE DUP1 SWAP3 SWAP2 SWAP1 DUP2 DUP2 MSTORE PUSH1 0x20 ADD DUP3 DUP1 SLOAD PUSH2 0xF9D SWAP1 PUSH2 0x1DD0 JUMP JUMPDEST DUP1 ISZERO PUSH2 0xFEA JUMPI DUP1 PUSH1 0x1F LT PUSH2 0xFBF JUMPI PUSH2 0x100 DUP1 DUP4 SLOAD DIV MUL DUP4 MSTORE SWAP2 PUSH1 0x20 ADD SWAP2 PUSH2 0xFEA JUMP JUMPDEST DUP3 ADD SWAP2 SWAP1 PUSH1 0x0 MSTORE PUSH1 0x20 PUSH1 0x0 KECCAK256 SWAP1 JUMPDEST DUP2 SLOAD DUP2 MSTORE SWAP1 PUSH1 0x1 ADD SWAP1 PUSH1 0x20 ADD DUP1 DUP4 GT PUSH2 0xFCD JUMPI DUP3 SWAP1 SUB PUSH1 0x1F AND DUP3 ADD SWAP2 JUMPDEST POP POP POP POP POP DUP4 DUP4 PUSH1 0x3 DUP2 LT PUSH2 0x1002 JUMPI PUSH2 0x1001 PUSH2 0x21BE JUMP JUMPDEST JUMPDEST PUSH1 0x20 MUL ADD DUP2 SWAP1 MSTORE POP PUSH1 0x6 DUP1 SLOAD SWAP1 POP DUP6 PUSH2 0x101B SWAP2 SWAP1 PUSH2 0x21ED JUMP JUMPDEST SWAP5 POP POP DUP1 DUP1 PUSH2 0x1029 SWAP1 PUSH2 0x221E JUMP JUMPDEST SWAP2 POP POP PUSH2 0xF2A JUMP JUMPDEST POP DUP1 SWAP2 POP POP SWAP2 SWAP1 POP JUMP JUMPDEST PUSH1 0x0 PUSH2 0x1045 PUSH2 0x13F6 JUMP JUMPDEST PUSH1 0x0 JUMPDEST PUSH1 0x3 DUP2 LT ISZERO PUSH2 0x1139 JUMPI PUSH1 0x0 JUMPDEST PUSH1 0x6 DUP1 SLOAD SWAP1 POP DUP2 LT ISZERO PUSH2 0x1125 JUMPI PUSH1 0x6 DUP2 DUP2 SLOAD DUP2 LT PUSH2 0x1075 JUMPI PUSH2 0x1074 PUSH2 0x21BE JUMP JUMPDEST JUMPDEST SWAP1 PUSH1 0x0 MSTORE PUSH1 0x20 PUSH1 0x0 KECCAK256 ADD PUSH1 0x40 MLOAD PUSH1 0x20 ADD PUSH2 0x108F SWAP2 SWAP1 PUSH2 0x22FE JUMP JUMPDEST PUSH1 0x40 MLOAD PUSH1 0x20 DUP2 DUP4 SUB SUB DUP2 MSTORE SWAP1 PUSH1 0x40 MSTORE DUP1 MLOAD SWAP1 PUSH1 0x20 ADD KECCAK256 DUP6 DUP4 PUSH1 0x3 DUP2 LT PUSH2 0x10B8 JUMPI PUSH2 0x10B7 PUSH2 0x21BE JUMP JUMPDEST JUMPDEST PUSH1 0x20 MUL ADD MLOAD PUSH1 0x40 MLOAD PUSH1 0x20 ADD PUSH2 0x10CD SWAP2 SWAP1 PUSH2 0x1C46 JUMP JUMPDEST PUSH1 0x40 MLOAD PUSH1 0x20 DUP2 DUP4 SUB SUB DUP2 MSTORE SWAP1 PUSH1 0x40 MSTORE DUP1 MLOAD SWAP1 PUSH1 0x20 ADD KECCAK256 SUB PUSH2 0x1112 JUMPI DUP3 DUP2 PUSH1 0x8 DUP2 LT PUSH2 0x10FB JUMPI PUSH2 0x10FA PUSH2 0x21BE JUMP JUMPDEST JUMPDEST PUSH1 0x20 MUL ADD DUP1 MLOAD DUP1 SWAP2 SWAP1 PUSH2 0x110D SWAP1 PUSH2 0x221E JUMP JUMPDEST DUP2 MSTORE POP POP JUMPDEST DUP1 DUP1 PUSH2 0x111D SWAP1 PUSH2 0x221E JUMP JUMPDEST SWAP2 POP POP PUSH2 0x1054 JUMP JUMPDEST POP DUP1 DUP1 PUSH2 0x1131 SWAP1 PUSH2 0x221E JUMP JUMPDEST SWAP2 POP POP PUSH2 0x1048 JUMP JUMPDEST POP PUSH1 0x0 DUP1 PUSH1 0x0 JUMPDEST PUSH1 0x8 DUP2 LT ISZERO PUSH2 0x1199 JUMPI DUP3 DUP5 DUP3 PUSH1 0x8 DUP2 LT PUSH2 0x115D JUMPI PUSH2 0x115C PUSH2 0x21BE JUMP JUMPDEST JUMPDEST PUSH1 0x20 MUL ADD MLOAD GT ISZERO PUSH2 0x1186 JUMPI DUP4 DUP2 PUSH1 0x8 DUP2 LT PUSH2 0x117B JUMPI PUSH2 0x117A PUSH2 0x21BE JUMP JUMPDEST JUMPDEST PUSH1 0x20 MUL ADD MLOAD SWAP3 POP DUP1 SWAP2 POP JUMPDEST DUP1 DUP1 PUSH2 0x1191 SWAP1 PUSH2 0x221E JUMP JUMPDEST SWAP2 POP POP PUSH2 0x1140 JUMP JUMPDEST POP PUSH1 0x2 DUP3 SUB PUSH2 0x121C JUMPI PUSH8 0xDE0B6B3A7640000 PUSH1 0x2 SLOAD PUSH1 0x3 PUSH1 0x6 DUP5 DUP2 SLOAD DUP2 LT PUSH2 0x11C4 JUMPI PUSH2 0x11C3 PUSH2 0x21BE JUMP JUMPDEST JUMPDEST SWAP1 PUSH1 0x0 MSTORE PUSH1 0x20 PUSH1 0x0 KECCAK256 ADD PUSH1 0x40 MLOAD PUSH2 0x11DB SWAP2 SWAP1 PUSH2 0x22FE JUMP JUMPDEST SWAP1 DUP2 MSTORE PUSH1 0x20 ADD PUSH1 0x40 MLOAD DUP1 SWAP2 SUB SWAP1 KECCAK256 PUSH1 0x0 PUSH1 0x2 DUP2 LT PUSH2 0x11FC JUMPI PUSH2 0x11FB PUSH2 0x21BE JUMP JUMPDEST JUMPDEST ADD SLOAD PUSH2 0x1208 SWAP2 SWAP1 PUSH2 0x2315 JUMP JUMPDEST PUSH2 0x1212 SWAP2 SWAP1 PUSH2 0x21ED JUMP JUMPDEST SWAP4 POP POP POP POP PUSH2 0x12A6 JUMP JUMPDEST PUSH1 0x3 DUP3 SUB PUSH2 0x129E JUMPI PUSH8 0xDE0B6B3A7640000 PUSH1 0x2 SLOAD PUSH1 0x3 PUSH1 0x6 DUP5 DUP2 SLOAD DUP2 LT PUSH2 0x1246 JUMPI PUSH2 0x1245 PUSH2 0x21BE JUMP JUMPDEST JUMPDEST SWAP1 PUSH1 0x0 MSTORE PUSH1 0x20 PUSH1 0x0 KECCAK256 ADD PUSH1 0x40 MLOAD PUSH2 0x125D SWAP2 SWAP1 PUSH2 0x22FE JUMP JUMPDEST SWAP1 DUP2 MSTORE PUSH1 0x20 ADD PUSH1 0x40 MLOAD DUP1 SWAP2 SUB SWAP1 KECCAK256 PUSH1 0x1 PUSH1 0x2 DUP2 LT PUSH2 0x127E JUMPI PUSH2 0x127D PUSH2 0x21BE JUMP JUMPDEST JUMPDEST ADD SLOAD PUSH2 0x128A SWAP2 SWAP1 PUSH2 0x2315 JUMP JUMPDEST PUSH2 0x1294 SWAP2 SWAP1 PUSH2 0x21ED JUMP JUMPDEST SWAP4 POP POP POP POP PUSH2 0x12A6 JUMP JUMPDEST PUSH1 0x0 SWAP4 POP POP POP POP JUMPDEST SWAP2 SWAP1 POP JUMP JUMPDEST PUSH1 0x0 DUP5 DUP5 DUP5 DUP5 PUSH1 0x40 MLOAD PUSH1 0x20 ADD PUSH2 0x12C4 SWAP5 SWAP4 SWAP3 SWAP2 SWAP1 PUSH2 0x2357 JUMP JUMPDEST PUSH1 0x40 MLOAD PUSH1 0x20 DUP2 DUP4 SUB SUB DUP2 MSTORE SWAP1 PUSH1 0x40 MSTORE DUP1 MLOAD SWAP1 PUSH1 0x20 ADD KECCAK256 PUSH1 0x0 SHR SWAP1 POP SWAP5 SWAP4 POP POP POP POP JUMP JUMPDEST PUSH1 0x0 DUP3 DUP3 PUSH1 0x40 MLOAD PUSH1 0x20 ADD PUSH2 0x12FC SWAP3 SWAP2 SWAP1 PUSH2 0x23DE JUMP JUMPDEST PUSH1 0x40 MLOAD PUSH1 0x20 DUP2 DUP4 SUB SUB DUP2 MSTORE SWAP1 PUSH1 0x40 MSTORE DUP1 MLOAD SWAP1 PUSH1 0x20 ADD KECCAK256 SWAP1 POP SWAP3 SWAP2 POP POP JUMP JUMPDEST DUP3 PUSH1 0x2 DUP2 ADD SWAP3 DUP3 ISZERO PUSH2 0x1349 JUMPI SWAP2 PUSH1 0x20 MUL DUP3 ADD JUMPDEST DUP3 DUP2 GT ISZERO PUSH2 0x1348 JUMPI DUP3 MLOAD DUP3 SSTORE SWAP2 PUSH1 0x20 ADD SWAP2 SWAP1 PUSH1 0x1 ADD SWAP1 PUSH2 0x132D JUMP JUMPDEST JUMPDEST POP SWAP1 POP PUSH2 0x1356 SWAP2 SWAP1 PUSH2 0x1419 JUMP JUMPDEST POP SWAP1 JUMP JUMPDEST PUSH1 0x40 MLOAD DUP1 PUSH1 0x60 ADD PUSH1 0x40 MSTORE DUP1 PUSH1 0x0 ISZERO ISZERO DUP2 MSTORE PUSH1 0x20 ADD PUSH2 0x1376 PUSH2 0x13CF JUMP JUMPDEST DUP2 MSTORE PUSH1 0x20 ADD PUSH1 0x0 DUP2 MSTORE POP SWAP1 JUMP JUMPDEST DUP3 PUSH1 0x3 DUP2 ADD SWAP3 DUP3 ISZERO PUSH2 0x13BE JUMPI SWAP2 PUSH1 0x20 MUL DUP3 ADD JUMPDEST DUP3 DUP2 GT ISZERO PUSH2 0x13BD JUMPI DUP3 MLOAD DUP3 SWAP1 DUP2 PUSH2 0x13AD SWAP2 SWAP1 PUSH2 0x25A1 JUMP JUMPDEST POP SWAP2 PUSH1 0x20 ADD SWAP2 SWAP1 PUSH1 0x1 ADD SWAP1 PUSH2 0x1396 JUMP JUMPDEST JUMPDEST POP SWAP1 POP PUSH2 0x13CB SWAP2 SWAP1 PUSH2 0x1436 JUMP JUMPDEST POP SWAP1 JUMP JUMPDEST PUSH1 0x40 MLOAD DUP1 PUSH1 0x60 ADD PUSH1 0x40 MSTORE DUP1 PUSH1 0x3 SWAP1 JUMPDEST PUSH1 0x60 DUP2 MSTORE PUSH1 0x20 ADD SWAP1 PUSH1 0x1 SWAP1 SUB SWAP1 DUP2 PUSH2 0x13DE JUMPI SWAP1 POP POP SWAP1 JUMP JUMPDEST PUSH1 0x40 MLOAD DUP1 PUSH2 0x100 ADD PUSH1 0x40 MSTORE DUP1 PUSH1 0x8 SWAP1 PUSH1 0x20 DUP3 MUL DUP1 CALLDATASIZE DUP4 CALLDATACOPY DUP1 DUP3 ADD SWAP2 POP POP SWAP1 POP POP SWAP1 JUMP JUMPDEST JUMPDEST DUP1 DUP3 GT ISZERO PUSH2 0x1432 JUMPI PUSH1 0x0 DUP2 PUSH1 0x0 SWAP1 SSTORE POP PUSH1 0x1 ADD PUSH2 0x141A JUMP JUMPDEST POP SWAP1 JUMP JUMPDEST JUMPDEST DUP1 DUP3 GT ISZERO PUSH2 0x1456 JUMPI PUSH1 0x0 DUP2 DUP2 PUSH2 0x144D SWAP2 SWAP1 PUSH2 0x145A JUMP JUMPDEST POP PUSH1 0x1 ADD PUSH2 0x1437 JUMP JUMPDEST POP SWAP1 JUMP JUMPDEST POP DUP1 SLOAD PUSH2 0x1466 SWAP1 PUSH2 0x1DD0 JUMP JUMPDEST PUSH1 0x0 DUP3 SSTORE DUP1 PUSH1 0x1F LT PUSH2 0x1478 JUMPI POP PUSH2 0x1497 JUMP JUMPDEST PUSH1 0x1F ADD PUSH1 0x20 SWAP1 DIV SWAP1 PUSH1 0x0 MSTORE PUSH1 0x20 PUSH1 0x0 KECCAK256 SWAP1 DUP2 ADD SWAP1 PUSH2 0x1496 SWAP2 SWAP1 PUSH2 0x1419 JUMP JUMPDEST JUMPDEST POP JUMP JUMPDEST PUSH1 0x0 PUSH1 0x40 MLOAD SWAP1 POP SWAP1 JUMP JUMPDEST PUSH1 0x0 DUP1 REVERT JUMPDEST PUSH1 0x0 DUP1 REVERT JUMPDEST PUSH1 0x0 PUSH20 0xFFFFFFFFFFFFFFFFFFFFFFFFFFFFFFFFFFFFFFFF DUP3 AND SWAP1 POP SWAP2 SWAP1 POP JUMP JUMPDEST PUSH1 0x0 PUSH2 0x14D9 DUP3 PUSH2 0x14AE JUMP JUMPDEST SWAP1 POP SWAP2 SWAP1 POP JUMP JUMPDEST PUSH2 0x14E9 DUP2 PUSH2 0x14CE JUMP JUMPDEST DUP2 EQ PUSH2 0x14F4 JUMPI PUSH1 0x0 DUP1 REVERT JUMPDEST POP JUMP JUMPDEST PUSH1 0x0 DUP2 CALLDATALOAD SWAP1 POP PUSH2 0x1506 DUP2 PUSH2 0x14E0 JUMP JUMPDEST SWAP3 SWAP2 POP POP JUMP JUMPDEST PUSH1 0x0 PUSH1 0x20 DUP3 DUP5 SUB SLT ISZERO PUSH2 0x1522 JUMPI PUSH2 0x1521 PUSH2 0x14A4 JUMP JUMPDEST JUMPDEST PUSH1 0x0 PUSH2 0x1530 DUP5 DUP3 DUP6 ADD PUSH2 0x14F7 JUMP JUMPDEST SWAP2 POP POP SWAP3 SWAP2 POP POP JUMP JUMPDEST PUSH1 0x0 DUP2 SWAP1 POP SWAP2 SWAP1 POP JUMP JUMPDEST PUSH2 0x154C DUP2 PUSH2 0x1539 JUMP JUMPDEST DUP3 MSTORE POP POP JUMP JUMPDEST PUSH1 0x0 PUSH1 0x20 DUP3 ADD SWAP1 POP PUSH2 0x1567 PUSH1 0x0 DUP4 ADD DUP5 PUSH2 0x1543 JUMP JUMPDEST SWAP3 SWAP2 POP POP JUMP JUMPDEST PUSH2 0x1576 DUP2 PUSH2 0x1539 JUMP JUMPDEST DUP2 EQ PUSH2 0x1581 JUMPI PUSH1 0x0 DUP1 REVERT JUMPDEST POP JUMP JUMPDEST PUSH1 0x0 DUP2 CALLDATALOAD SWAP1 POP PUSH2 0x1593 DUP2 PUSH2 0x156D JUMP JUMPDEST SWAP3 SWAP2 POP POP JUMP JUMPDEST PUSH1 0x0 PUSH1 0x20 DUP3 DUP5 SUB SLT ISZERO PUSH2 0x15AF JUMPI PUSH2 0x15AE PUSH2 0x14A4 JUMP JUMPDEST JUMPDEST PUSH1 0x0 PUSH2 0x15BD DUP5 DUP3 DUP6 ADD PUSH2 0x1584 JUMP JUMPDEST SWAP2 POP POP SWAP3 SWAP2 POP POP JUMP JUMPDEST PUSH1 0x0 DUP1 REVERT JUMPDEST PUSH1 0x0 DUP1 REVERT JUMPDEST PUSH1 0x0 PUSH1 0x1F NOT PUSH1 0x1F DUP4 ADD AND SWAP1 POP SWAP2 SWAP1 POP JUMP JUMPDEST PUSH32 0x4E487B7100000000000000000000000000000000000000000000000000000000 PUSH1 0x0 MSTORE PUSH1 0x41 PUSH1 0x4 MSTORE PUSH1 0x24 PUSH1 0x0 REVERT JUMPDEST PUSH2 0x1619 DUP3 PUSH2 0x15D0 JUMP JUMPDEST DUP2 ADD DUP2 DUP2 LT PUSH8 0xFFFFFFFFFFFFFFFF DUP3 GT OR ISZERO PUSH2 0x1638 JUMPI PUSH2 0x1637 PUSH2 0x15E1 JUMP JUMPDEST JUMPDEST DUP1 PUSH1 0x40 MSTORE POP POP POP JUMP JUMPDEST PUSH1 0x0 PUSH2 0x164B PUSH2 0x149A JUMP JUMPDEST SWAP1 POP PUSH2 0x1657 DUP3 DUP3 PUSH2 0x1610 JUMP JUMPDEST SWAP2 SWAP1 POP JUMP JUMPDEST PUSH1 0x0 PUSH8 0xFFFFFFFFFFFFFFFF DUP3 GT ISZERO PUSH2 0x1677 JUMPI PUSH2 0x1676 PUSH2 0x15E1 JUMP JUMPDEST JUMPDEST PUSH2 0x1680 DUP3 PUSH2 0x15D0 JUMP JUMPDEST SWAP1 POP PUSH1 0x20 DUP2 ADD SWAP1 POP SWAP2 SWAP1 POP JUMP JUMPDEST DUP3 DUP2 DUP4 CALLDATACOPY PUSH1 0x0 DUP4 DUP4 ADD MSTORE POP POP POP JUMP JUMPDEST PUSH1 0x0 PUSH2 0x16AF PUSH2 0x16AA DUP5 PUSH2 0x165C JUMP JUMPDEST PUSH2 0x1641 JUMP JUMPDEST SWAP1 POP DUP3 DUP2 MSTORE PUSH1 0x20 DUP2 ADD DUP5 DUP5 DUP5 ADD GT ISZERO PUSH2 0x16CB JUMPI PUSH2 0x16CA PUSH2 0x15CB JUMP JUMPDEST JUMPDEST PUSH2 0x16D6 DUP5 DUP3 DUP6 PUSH2 0x168D JUMP JUMPDEST POP SWAP4 SWAP3 POP POP POP JUMP JUMPDEST PUSH1 0x0 DUP3 PUSH1 0x1F DUP4 ADD SLT PUSH2 0x16F3 JUMPI PUSH2 0x16F2 PUSH2 0x15C6 JUMP JUMPDEST JUMPDEST DUP2 CALLDATALOAD PUSH2 0x1703 DUP5 DUP3 PUSH1 0x20 DUP7 ADD PUSH2 0x169C JUMP JUMPDEST SWAP2 POP POP SWAP3 SWAP2 POP POP JUMP JUMPDEST PUSH1 0x0 DUP1 PUSH1 0x40 DUP4 DUP6 SUB SLT ISZERO PUSH2 0x1723 JUMPI PUSH2 0x1722 PUSH2 0x14A4 JUMP JUMPDEST JUMPDEST PUSH1 0x0 DUP4 ADD CALLDATALOAD PUSH8 0xFFFFFFFFFFFFFFFF DUP2 GT ISZERO PUSH2 0x1741 JUMPI PUSH2 0x1740 PUSH2 0x14A9 JUMP JUMPDEST JUMPDEST PUSH2 0x174D DUP6 DUP3 DUP7 ADD PUSH2 0x16DE JUMP JUMPDEST SWAP3 POP POP PUSH1 0x20 PUSH2 0x175E DUP6 DUP3 DUP7 ADD PUSH2 0x1584 JUMP JUMPDEST SWAP2 POP POP SWAP3 POP SWAP3 SWAP1 POP JUMP JUMPDEST PUSH1 0x0 DUP2 ISZERO ISZERO SWAP1 POP SWAP2 SWAP1 POP JUMP JUMPDEST PUSH2 0x177D DUP2 PUSH2 0x1768 JUMP JUMPDEST DUP3 MSTORE POP POP JUMP JUMPDEST PUSH1 0x0 PUSH1 0x40 DUP3 ADD SWAP1 POP PUSH2 0x1798 PUSH1 0x0 DUP4 ADD DUP6 PUSH2 0x1774 JUMP JUMPDEST PUSH2 0x17A5 PUSH1 0x20 DUP4 ADD DUP5 PUSH2 0x1543 JUMP JUMPDEST SWAP4 SWAP3 POP POP POP JUMP JUMPDEST PUSH1 0x0 DUP1 PUSH1 0x0 PUSH1 0x60 DUP5 DUP7 SUB SLT ISZERO PUSH2 0x17C5 JUMPI PUSH2 0x17C4 PUSH2 0x14A4 JUMP JUMPDEST JUMPDEST PUSH1 0x0 DUP5 ADD CALLDATALOAD PUSH8 0xFFFFFFFFFFFFFFFF DUP2 GT ISZERO PUSH2 0x17E3 JUMPI PUSH2 0x17E2 PUSH2 0x14A9 JUMP JUMPDEST JUMPDEST PUSH2 0x17EF DUP7 DUP3 DUP8 ADD PUSH2 0x16DE JUMP JUMPDEST SWAP4 POP POP PUSH1 0x20 PUSH2 0x1800 DUP7 DUP3 DUP8 ADD PUSH2 0x1584 JUMP JUMPDEST SWAP3 POP POP PUSH1 0x40 PUSH2 0x1811 DUP7 DUP3 DUP8 ADD PUSH2 0x1584 JUMP JUMPDEST SWAP2 POP POP SWAP3 POP SWAP3 POP SWAP3 JUMP JUMPDEST PUSH2 0x1824 DUP2 PUSH2 0x14CE JUMP JUMPDEST DUP3 MSTORE POP POP JUMP JUMPDEST PUSH1 0x0 PUSH1 0x20 DUP3 ADD SWAP1 POP PUSH2 0x183F PUSH1 0x0 DUP4 ADD DUP5 PUSH2 0x181B JUMP JUMPDEST SWAP3 SWAP2 POP POP JUMP JUMPDEST PUSH1 0x0 DUP2 SWAP1 POP SWAP2 SWAP1 POP JUMP JUMPDEST PUSH2 0x1858 DUP2 PUSH2 0x1845 JUMP JUMPDEST DUP2 EQ PUSH2 0x1863 JUMPI PUSH1 0x0 DUP1 REVERT JUMPDEST POP JUMP JUMPDEST PUSH1 0x0 DUP2 CALLDATALOAD SWAP1 POP PUSH2 0x1875 DUP2 PUSH2 0x184F JUMP JUMPDEST SWAP3 SWAP2 POP POP JUMP JUMPDEST PUSH1 0x0 DUP1 PUSH1 0x40 DUP4 DUP6 SUB SLT ISZERO PUSH2 0x1892 JUMPI PUSH2 0x1891 PUSH2 0x14A4 JUMP JUMPDEST JUMPDEST PUSH1 0x0 PUSH2 0x18A0 DUP6 DUP3 DUP7 ADD PUSH2 0x1866 JUMP JUMPDEST SWAP3 POP POP PUSH1 0x20 PUSH2 0x18B1 DUP6 DUP3 DUP7 ADD PUSH2 0x1584 JUMP JUMPDEST SWAP2 POP POP SWAP3 POP SWAP3 SWAP1 POP JUMP JUMPDEST PUSH1 0x0 DUP2 MLOAD SWAP1 POP SWAP2 SWAP1 POP JUMP JUMPDEST PUSH1 0x0 DUP3 DUP3 MSTORE PUSH1 0x20 DUP3 ADD SWAP1 POP SWAP3 SWAP2 POP POP JUMP JUMPDEST PUSH1 0x0 JUMPDEST DUP4 DUP2 LT ISZERO PUSH2 0x18F5 JUMPI DUP1 DUP3 ADD MLOAD DUP2 DUP5 ADD MSTORE PUSH1 0x20 DUP2 ADD SWAP1 POP PUSH2 0x18DA JUMP JUMPDEST PUSH1 0x0 DUP5 DUP5 ADD MSTORE POP POP POP POP JUMP JUMPDEST PUSH1 0x0 PUSH2 0x190C DUP3 PUSH2 0x18BB JUMP JUMPDEST PUSH2 0x1916 DUP2 DUP6 PUSH2 0x18C6 JUMP JUMPDEST SWAP4 POP PUSH2 0x1926 DUP2 DUP6 PUSH1 0x20 DUP7 ADD PUSH2 0x18D7 JUMP JUMPDEST PUSH2 0x192F DUP2 PUSH2 0x15D0 JUMP JUMPDEST DUP5 ADD SWAP2 POP POP SWAP3 SWAP2 POP POP JUMP JUMPDEST PUSH1 0x0 PUSH1 0x20 DUP3 ADD SWAP1 POP DUP2 DUP2 SUB PUSH1 0x0 DUP4 ADD MSTORE PUSH2 0x1954 DUP2 DUP5 PUSH2 0x1901 JUMP JUMPDEST SWAP1 POP SWAP3 SWAP2 POP POP JUMP JUMPDEST PUSH2 0x1965 DUP2 PUSH2 0x1768 JUMP JUMPDEST DUP3 MSTORE POP POP JUMP JUMPDEST PUSH1 0x0 PUSH1 0x3 SWAP1 POP SWAP2 SWAP1 POP JUMP JUMPDEST PUSH1 0x0 DUP2 SWAP1 POP SWAP3 SWAP2 POP POP JUMP JUMPDEST PUSH1 0x0 DUP2 SWAP1 POP SWAP2 SWAP1 POP JUMP JUMPDEST PUSH1 0x0 DUP3 DUP3 MSTORE PUSH1 0x20 DUP3 ADD SWAP1 POP SWAP3 SWAP2 POP POP JUMP JUMPDEST PUSH1 0x0 PUSH2 0x19A7 DUP3 PUSH2 0x18BB JUMP JUMPDEST PUSH2 0x19B1 DUP2 DUP6 PUSH2 0x198B JUMP JUMPDEST SWAP4 POP PUSH2 0x19C1 DUP2 DUP6 PUSH1 0x20 DUP7 ADD PUSH2 0x18D7 JUMP JUMPDEST PUSH2 0x19CA DUP2 PUSH2 0x15D0 JUMP JUMPDEST DUP5 ADD SWAP2 POP POP SWAP3 SWAP2 POP POP JUMP JUMPDEST PUSH1 0x0 PUSH2 0x19E1 DUP4 DUP4 PUSH2 0x199C JUMP JUMPDEST SWAP1 POP SWAP3 SWAP2 POP POP JUMP JUMPDEST PUSH1 0x0 PUSH1 0x20 DUP3 ADD SWAP1 POP SWAP2 SWAP1 POP JUMP JUMPDEST PUSH1 0x0 PUSH2 0x1A01 DUP3 PUSH2 0x196B JUMP JUMPDEST PUSH2 0x1A0B DUP2 DUP6 PUSH2 0x1976 JUMP JUMPDEST SWAP4 POP DUP4 PUSH1 0x20 DUP3 MUL DUP6 ADD PUSH2 0x1A1D DUP6 PUSH2 0x1981 JUMP JUMPDEST DUP1 PUSH1 0x0 JUMPDEST DUP6 DUP2 LT ISZERO PUSH2 0x1A59 JUMPI DUP5 DUP5 SUB DUP10 MSTORE DUP2 MLOAD PUSH2 0x1A3A DUP6 DUP3 PUSH2 0x19D5 JUMP JUMPDEST SWAP5 POP PUSH2 0x1A45 DUP4 PUSH2 0x19E9 JUMP JUMPDEST SWAP3 POP PUSH1 0x20 DUP11 ADD SWAP10 POP POP PUSH1 0x1 DUP2 ADD SWAP1 POP PUSH2 0x1A21 JUMP JUMPDEST POP DUP3 SWAP8 POP DUP8 SWAP6 POP POP POP POP POP POP SWAP3 SWAP2 POP POP JUMP JUMPDEST PUSH2 0x1A74 DUP2 PUSH2 0x1539 JUMP JUMPDEST DUP3 MSTORE POP POP JUMP JUMPDEST PUSH1 0x0 PUSH1 0x60 DUP4 ADD PUSH1 0x0 DUP4 ADD MLOAD PUSH2 0x1A92 PUSH1 0x0 DUP7 ADD DUP3 PUSH2 0x195C JUMP JUMPDEST POP PUSH1 0x20 DUP4 ADD MLOAD DUP5 DUP3 SUB PUSH1 0x20 DUP7 ADD MSTORE PUSH2 0x1AAA DUP3 DUP3 PUSH2 0x19F6 JUMP JUMPDEST SWAP2 POP POP PUSH1 0x40 DUP4 ADD MLOAD PUSH2 0x1ABF PUSH1 0x40 DUP7 ADD DUP3 PUSH2 0x1A6B JUMP JUMPDEST POP DUP1 SWAP2 POP POP SWAP3 SWAP2 POP POP JUMP JUMPDEST PUSH1 0x0 PUSH1 0x20 DUP3 ADD SWAP1 POP DUP2 DUP2 SUB PUSH1 0x0 DUP4 ADD MSTORE PUSH2 0x1AE4 DUP2 DUP5 PUSH2 0x1A7A JUMP JUMPDEST SWAP1 POP SWAP3 SWAP2 POP POP JUMP JUMPDEST PUSH32 0x496E73756666696369656E742066756E64730000000000000000000000000000 PUSH1 0x0 DUP3 ADD MSTORE POP JUMP JUMPDEST PUSH1 0x0 PUSH2 0x1B22 PUSH1 0x12 DUP4 PUSH2 0x18C6 JUMP JUMPDEST SWAP2 POP PUSH2 0x1B2D DUP3 PUSH2 0x1AEC JUMP JUMPDEST PUSH1 0x20 DUP3 ADD SWAP1 POP SWAP2 SWAP1 POP JUMP JUMPDEST PUSH1 0x0 PUSH1 0x20 DUP3 ADD SWAP1 POP DUP2 DUP2 SUB PUSH1 0x0 DUP4 ADD MSTORE PUSH2 0x1B51 DUP2 PUSH2 0x1B15 JUMP JUMPDEST SWAP1 POP SWAP2 SWAP1 POP JUMP JUMPDEST PUSH1 0x0 DUP2 SWAP1 POP SWAP3 SWAP2 POP POP JUMP JUMPDEST POP JUMP JUMPDEST PUSH1 0x0 PUSH2 0x1B73 PUSH1 0x0 DUP4 PUSH2 0x1B58 JUMP JUMPDEST SWAP2 POP PUSH2 0x1B7E DUP3 PUSH2 0x1B63 JUMP JUMPDEST PUSH1 0x0 DUP3 ADD SWAP1 POP SWAP2 SWAP1 POP JUMP JUMPDEST PUSH1 0x0 PUSH2 0x1B94 DUP3 PUSH2 0x1B66 JUMP JUMPDEST SWAP2 POP DUP2 SWAP1 POP SWAP2 SWAP1 POP JUMP JUMPDEST PUSH32 0x5769746864726177206661696C65640000000000000000000000000000000000 PUSH1 0x0 DUP3 ADD MSTORE POP JUMP JUMPDEST PUSH1 0x0 PUSH2 0x1BD4 PUSH1 0xF DUP4 PUSH2 0x18C6 JUMP JUMPDEST SWAP2 POP PUSH2 0x1BDF DUP3 PUSH2 0x1B9E JUMP JUMPDEST PUSH1 0x20 DUP3 ADD SWAP1 POP SWAP2 SWAP1 POP JUMP JUMPDEST PUSH1 0x0 PUSH1 0x20 DUP3 ADD SWAP1 POP DUP2 DUP2 SUB PUSH1 0x0 DUP4 ADD MSTORE PUSH2 0x1C03 DUP2 PUSH2 0x1BC7 JUMP JUMPDEST SWAP1 POP SWAP2 SWAP1 POP JUMP JUMPDEST PUSH1 0x0 DUP2 SWAP1 POP SWAP3 SWAP2 POP POP JUMP JUMPDEST PUSH1 0x0 PUSH2 0x1C20 DUP3 PUSH2 0x18BB JUMP JUMPDEST PUSH2 0x1C2A DUP2 DUP6 PUSH2 0x1C0A JUMP JUMPDEST SWAP4 POP PUSH2 0x1C3A DUP2 DUP6 PUSH1 0x20 DUP7 ADD PUSH2 0x18D7 JUMP JUMPDEST DUP1 DUP5 ADD SWAP2 POP POP SWAP3 SWAP2 POP POP JUMP JUMPDEST PUSH1 0x0 PUSH2 0x1C52 DUP3 DUP5 PUSH2 0x1C15 JUMP JUMPDEST SWAP2 POP DUP2 SWAP1 POP SWAP3 SWAP2 POP POP JUMP JUMPDEST PUSH32 0x4E6F2062616C616E636520746F2063617368206F757400000000000000000000 PUSH1 0x0 DUP3 ADD MSTORE POP JUMP JUMPDEST PUSH1 0x0 PUSH2 0x1C93 PUSH1 0x16 DUP4 PUSH2 0x18C6 JUMP JUMPDEST SWAP2 POP PUSH2 0x1C9E DUP3 PUSH2 0x1C5D JUMP JUMPDEST PUSH1 0x20 DUP3 ADD SWAP1 POP SWAP2 SWAP1 POP JUMP JUMPDEST PUSH1 0x0 PUSH1 0x20 DUP3 ADD SWAP1 POP DUP2 DUP2 SUB PUSH1 0x0 DUP4 ADD MSTORE PUSH2 0x1CC2 DUP2 PUSH2 0x1C86 JUMP JUMPDEST SWAP1 POP SWAP2 SWAP1 POP JUMP JUMPDEST PUSH32 0x496E73756666696369656E742066756E647320696E20636F6E74726163740000 PUSH1 0x0 DUP3 ADD MSTORE POP JUMP JUMPDEST PUSH1 0x0 PUSH2 0x1CFF PUSH1 0x1E DUP4 PUSH2 0x18C6 JUMP JUMPDEST SWAP2 POP PUSH2 0x1D0A DUP3 PUSH2 0x1CC9 JUMP JUMPDEST PUSH1 0x20 DUP3 ADD SWAP1 POP SWAP2 SWAP1 POP JUMP JUMPDEST PUSH1 0x0 PUSH1 0x20 DUP3 ADD SWAP1 POP DUP2 DUP2 SUB PUSH1 0x0 DUP4 ADD MSTORE PUSH2 0x1D2E DUP2 PUSH2 0x1CF2 JUMP JUMPDEST SWAP1 POP SWAP2 SWAP1 POP JUMP JUMPDEST PUSH32 0x4F6E6C7920565246436F6F7264696E61746F722063616E2066756C66696C6C00 PUSH1 0x0 DUP3 ADD MSTORE POP JUMP JUMPDEST PUSH1 0x0 PUSH2 0x1D6B PUSH1 0x1F DUP4 PUSH2 0x18C6 JUMP JUMPDEST SWAP2 POP PUSH2 0x1D76 DUP3 PUSH2 0x1D35 JUMP JUMPDEST PUSH1 0x20 DUP3 ADD SWAP1 POP SWAP2 SWAP1 POP JUMP JUMPDEST PUSH1 0x0 PUSH1 0x20 DUP3 ADD SWAP1 POP DUP2 DUP2 SUB PUSH1 0x0 DUP4 ADD MSTORE PUSH2 0x1D9A DUP2 PUSH2 0x1D5E JUMP JUMPDEST SWAP1 POP SWAP2 SWAP1 POP JUMP JUMPDEST PUSH32 0x4E487B7100000000000000000000000000000000000000000000000000000000 PUSH1 0x0 MSTORE PUSH1 0x22 PUSH1 0x4 MSTORE PUSH1 0x24 PUSH1 0x0 REVERT JUMPDEST PUSH1 0x0 PUSH1 0x2 DUP3 DIV SWAP1 POP PUSH1 0x1 DUP3 AND DUP1 PUSH2 0x1DE8 JUMPI PUSH1 0x7F DUP3 AND SWAP2 POP JUMPDEST PUSH1 0x20 DUP3 LT DUP2 SUB PUSH2 0x1DFB JUMPI PUSH2 0x1DFA PUSH2 0x1DA1 JUMP JUMPDEST JUMPDEST POP SWAP2 SWAP1 POP JUMP JUMPDEST PUSH32 0x4D696E696D756D20626574206973207468652063757272656E74207072696365 PUSH1 0x0 DUP3 ADD MSTORE POP JUMP JUMPDEST PUSH1 0x0 PUSH2 0x1E37 PUSH1 0x20 DUP4 PUSH2 0x18C6 JUMP JUMPDEST SWAP2 POP PUSH2 0x1E42 DUP3 PUSH2 0x1E01 JUMP JUMPDEST PUSH1 0x20 DUP3 ADD SWAP1 POP SWAP2 SWAP1 POP JUMP JUMPDEST PUSH1 0x0 PUSH1 0x20 DUP3 ADD SWAP1 POP DUP2 DUP2 SUB PUSH1 0x0 DUP4 ADD MSTORE PUSH2 0x1E66 DUP2 PUSH2 0x1E2A JUMP JUMPDEST SWAP1 POP SWAP2 SWAP1 POP JUMP JUMPDEST PUSH32 0x50726576696F757320736C6F74206E6F7420636C61696D656400000000000000 PUSH1 0x0 DUP3 ADD MSTORE POP JUMP JUMPDEST PUSH1 0x0 PUSH2 0x1EA3 PUSH1 0x19 DUP4 PUSH2 0x18C6 JUMP JUMPDEST SWAP2 POP PUSH2 0x1EAE DUP3 PUSH2 0x1E6D JUMP JUMPDEST PUSH1 0x20 DUP3 ADD SWAP1 POP SWAP2 SWAP1 POP JUMP JUMPDEST PUSH1 0x0 PUSH1 0x20 DUP3 ADD SWAP1 POP DUP2 DUP2 SUB PUSH1 0x0 DUP4 ADD MSTORE PUSH2 0x1ED2 DUP2 PUSH2 0x1E96 JUMP JUMPDEST SWAP1 POP SWAP2 SWAP1 POP JUMP JUMPDEST PUSH32 0x4F776E61626C653A206E6577206F776E657220697320746865207A65726F2061 PUSH1 0x0 DUP3 ADD MSTORE PUSH32 0x6464726573730000000000000000000000000000000000000000000000000000 PUSH1 0x20 DUP3 ADD MSTORE POP JUMP JUMPDEST PUSH1 0x0 PUSH2 0x1F35 PUSH1 0x26 DUP4 PUSH2 0x18C6 JUMP JUMPDEST SWAP2 POP PUSH2 0x1F40 DUP3 PUSH2 0x1ED9 JUMP JUMPDEST PUSH1 0x40 DUP3 ADD SWAP1 POP SWAP2 SWAP1 POP JUMP JUMPDEST PUSH1 0x0 PUSH1 0x20 DUP3 ADD SWAP1 POP DUP2 DUP2 SUB PUSH1 0x0 DUP4 ADD MSTORE PUSH2 0x1F64 DUP2 PUSH2 0x1F28 JUMP JUMPDEST SWAP1 POP SWAP2 SWAP1 POP JUMP JUMPDEST PUSH32 0x4F776E61626C653A2063616C6C6572206973206E6F7420746865206F776E6572 PUSH1 0x0 DUP3 ADD MSTORE POP JUMP JUMPDEST PUSH1 0x0 PUSH2 0x1FA1 PUSH1 0x20 DUP4 PUSH2 0x18C6 JUMP JUMPDEST SWAP2 POP PUSH2 0x1FAC DUP3 PUSH2 0x1F6B JUMP JUMPDEST PUSH1 0x20 DUP3 ADD SWAP1 POP SWAP2 SWAP1 POP JUMP JUMPDEST PUSH1 0x0 PUSH1 0x20 DUP3 ADD SWAP1 POP DUP2 DUP2 SUB PUSH1 0x0 DUP4 ADD MSTORE PUSH2 0x1FD0 DUP2 PUSH2 0x1F94 JUMP JUMPDEST SWAP1 POP SWAP2 SWAP1 POP JUMP JUMPDEST PUSH32 0x4E487B7100000000000000000000000000000000000000000000000000000000 PUSH1 0x0 MSTORE PUSH1 0x11 PUSH1 0x4 MSTORE PUSH1 0x24 PUSH1 0x0 REVERT JUMPDEST PUSH1 0x0 PUSH2 0x2011 DUP3 PUSH2 0x1539 JUMP JUMPDEST SWAP2 POP PUSH2 0x201C DUP4 PUSH2 0x1539 JUMP JUMPDEST SWAP3 POP DUP3 DUP3 ADD SWAP1 POP DUP1 DUP3 GT ISZERO PUSH2 0x2034 JUMPI PUSH2 0x2033 PUSH2 0x1FD7 JUMP JUMPDEST JUMPDEST SWAP3 SWAP2 POP POP JUMP JUMPDEST PUSH2 0x2043 DUP2 PUSH2 0x1845 JUMP JUMPDEST DUP3 MSTORE POP POP JUMP JUMPDEST PUSH1 0x0 PUSH1 0x40 DUP3 ADD SWAP1 POP PUSH2 0x205E PUSH1 0x0 DUP4 ADD DUP6 PUSH2 0x203A JUMP JUMPDEST PUSH2 0x206B PUSH1 0x20 DUP4 ADD DUP5 PUSH2 0x1543 JUMP JUMPDEST SWAP4 SWAP3 POP POP POP JUMP JUMPDEST PUSH1 0x0 DUP2 MLOAD SWAP1 POP SWAP2 SWAP1 POP JUMP JUMPDEST PUSH1 0x0 DUP3 DUP3 MSTORE PUSH1 0x20 DUP3 ADD SWAP1 POP SWAP3 SWAP2 POP POP JUMP JUMPDEST PUSH1 0x0 PUSH2 0x2099 DUP3 PUSH2 0x2072 JUMP JUMPDEST PUSH2 0x20A3 DUP2 DUP6 PUSH2 0x207D JUMP JUMPDEST SWAP4 POP PUSH2 0x20B3 DUP2 DUP6 PUSH1 0x20 DUP7 ADD PUSH2 0x18D7 JUMP JUMPDEST PUSH2 0x20BC DUP2 PUSH2 0x15D0 JUMP JUMPDEST DUP5 ADD SWAP2 POP POP SWAP3 SWAP2 POP POP JUMP JUMPDEST PUSH1 0x0 PUSH1 0x60 DUP3 ADD SWAP1 POP PUSH2 0x20DC PUSH1 0x0 DUP4 ADD DUP7 PUSH2 0x181B JUMP JUMPDEST PUSH2 0x20E9 PUSH1 0x20 DUP4 ADD DUP6 PUSH2 0x1543 JUMP JUMPDEST DUP2 DUP2 SUB PUSH1 0x40 DUP4 ADD MSTORE PUSH2 0x20FB DUP2 DUP5 PUSH2 0x208E JUMP JUMPDEST SWAP1 POP SWAP5 SWAP4 POP POP POP POP JUMP JUMPDEST PUSH2 0x210E DUP2 PUSH2 0x1768 JUMP JUMPDEST DUP2 EQ PUSH2 0x2119 JUMPI PUSH1 0x0 DUP1 REVERT JUMPDEST POP JUMP JUMPDEST PUSH1 0x0 DUP2 MLOAD SWAP1 POP PUSH2 0x212B DUP2 PUSH2 0x2105 JUMP JUMPDEST SWAP3 SWAP2 POP POP JUMP JUMPDEST PUSH1 0x0 PUSH1 0x20 DUP3 DUP5 SUB SLT ISZERO PUSH2 0x2147 JUMPI PUSH2 0x2146 PUSH2 0x14A4 JUMP JUMPDEST JUMPDEST PUSH1 0x0 PUSH2 0x2155 DUP5 DUP3 DUP6 ADD PUSH2 0x211C JUMP JUMPDEST SWAP2 POP POP SWAP3 SWAP2 POP POP JUMP JUMPDEST PUSH32 0x4E487B7100000000000000000000000000000000000000000000000000000000 PUSH1 0x0 MSTORE PUSH1 0x12 PUSH1 0x4 MSTORE PUSH1 0x24 PUSH1 0x0 REVERT JUMPDEST PUSH1 0x0 PUSH2 0x2198 DUP3 PUSH2 0x1539 JUMP JUMPDEST SWAP2 POP PUSH2 0x21A3 DUP4 PUSH2 0x1539 JUMP JUMPDEST SWAP3 POP DUP3 PUSH2 0x21B3 JUMPI PUSH2 0x21B2 PUSH2 0x215E JUMP JUMPDEST JUMPDEST DUP3 DUP3 MOD SWAP1 POP SWAP3 SWAP2 POP POP JUMP JUMPDEST PUSH32 0x4E487B7100000000000000000000000000000000000000000000000000000000 PUSH1 0x0 MSTORE PUSH1 0x32 PUSH1 0x4 MSTORE PUSH1 0x24 PUSH1 0x0 REVERT JUMPDEST PUSH1 0x0 PUSH2 0x21F8 DUP3 PUSH2 0x1539 JUMP JUMPDEST SWAP2 POP PUSH2 0x2203 DUP4 PUSH2 0x1539 JUMP JUMPDEST SWAP3 POP DUP3 PUSH2 0x2213 JUMPI PUSH2 0x2212 PUSH2 0x215E JUMP JUMPDEST JUMPDEST DUP3 DUP3 DIV SWAP1 POP SWAP3 SWAP2 POP POP JUMP JUMPDEST PUSH1 0x0 PUSH2 0x2229 DUP3 PUSH2 0x1539 JUMP JUMPDEST SWAP2 POP PUSH32 0xFFFFFFFFFFFFFFFFFFFFFFFFFFFFFFFFFFFFFFFFFFFFFFFFFFFFFFFFFFFFFFFF DUP3 SUB PUSH2 0x225B JUMPI PUSH2 0x225A PUSH2 0x1FD7 JUMP JUMPDEST JUMPDEST PUSH1 0x1 DUP3 ADD SWAP1 POP SWAP2 SWAP1 POP JUMP JUMPDEST PUSH1 0x0 DUP2 SWAP1 POP DUP2 PUSH1 0x0 MSTORE PUSH1 0x20 PUSH1 0x0 KECCAK256 SWAP1 POP SWAP2 SWAP1 POP JUMP JUMPDEST PUSH1 0x0 DUP2 SLOAD PUSH2 0x2288 DUP2 PUSH2 0x1DD0 JUMP JUMPDEST PUSH2 0x2292 DUP2 DUP7 PUSH2 0x1C0A JUMP JUMPDEST SWAP5 POP PUSH1 0x1 DUP3 AND PUSH1 0x0 DUP2 EQ PUSH2 0x22AD JUMPI PUSH1 0x1 DUP2 EQ PUSH2 0x22C2 JUMPI PUSH2 0x22F5 JUMP JUMPDEST PUSH1 0xFF NOT DUP4 AND DUP7 MSTORE DUP2 ISZERO ISZERO DUP3 MUL DUP7 ADD SWAP4 POP PUSH2 0x22F5 JUMP JUMPDEST PUSH2 0x22CB DUP6 PUSH2 0x2266 JUMP JUMPDEST PUSH1 0x0 JUMPDEST DUP4 DUP2 LT ISZERO PUSH2 0x22ED JUMPI DUP2 SLOAD DUP2 DUP10 ADD MSTORE PUSH1 0x1 DUP3 ADD SWAP2 POP PUSH1 0x20 DUP2 ADD SWAP1 POP PUSH2 0x22CE JUMP JUMPDEST DUP4 DUP9 ADD SWAP6 POP POP POP JUMPDEST POP POP POP SWAP3 SWAP2 POP POP JUMP JUMPDEST PUSH1 0x0 PUSH2 0x230A DUP3 DUP5 PUSH2 0x227B JUMP JUMPDEST SWAP2 POP DUP2 SWAP1 POP SWAP3 SWAP2 POP POP JUMP JUMPDEST PUSH1 0x0 PUSH2 0x2320 DUP3 PUSH2 0x1539 JUMP JUMPDEST SWAP2 POP PUSH2 0x232B DUP4 PUSH2 0x1539 JUMP JUMPDEST SWAP3 POP DUP3 DUP3 MUL PUSH2 0x2339 DUP2 PUSH2 0x1539 JUMP JUMPDEST SWAP2 POP DUP3 DUP3 DIV DUP5 EQ DUP4 ISZERO OR PUSH2 0x2350 JUMPI PUSH2 0x234F PUSH2 0x1FD7 JUMP JUMPDEST JUMPDEST POP SWAP3 SWAP2 POP POP JUMP JUMPDEST PUSH1 0x0 PUSH1 0x80 DUP3 ADD SWAP1 POP PUSH2 0x236C PUSH1 0x0 DUP4 ADD DUP8 PUSH2 0x203A JUMP JUMPDEST PUSH2 0x2379 PUSH1 0x20 DUP4 ADD DUP7 PUSH2 0x1543 JUMP JUMPDEST PUSH2 0x2386 PUSH1 0x40 DUP4 ADD DUP6 PUSH2 0x181B JUMP JUMPDEST PUSH2 0x2393 PUSH1 0x60 DUP4 ADD DUP5 PUSH2 0x1543 JUMP JUMPDEST SWAP6 SWAP5 POP POP POP POP POP JUMP JUMPDEST PUSH1 0x0 DUP2 SWAP1 POP SWAP2 SWAP1 POP JUMP JUMPDEST PUSH2 0x23B7 PUSH2 0x23B2 DUP3 PUSH2 0x1845 JUMP JUMPDEST PUSH2 0x239C JUMP JUMPDEST DUP3 MSTORE POP POP JUMP JUMPDEST PUSH1 0x0 DUP2 SWAP1 POP SWAP2 SWAP1 POP JUMP JUMPDEST PUSH2 0x23D8 PUSH2 0x23D3 DUP3 PUSH2 0x1539 JUMP JUMPDEST PUSH2 0x23BD JUMP JUMPDEST DUP3 MSTORE POP POP JUMP JUMPDEST PUSH1 0x0 PUSH2 0x23EA DUP3 DUP6 PUSH2 0x23A6 JUMP JUMPDEST PUSH1 0x20 DUP3 ADD SWAP2 POP PUSH2 0x23FA DUP3 DUP5 PUSH2 0x23C7 JUMP JUMPDEST PUSH1 0x20 DUP3 ADD SWAP2 POP DUP2 SWAP1 POP SWAP4 SWAP3 POP POP POP JUMP JUMPDEST PUSH1 0x0 PUSH1 0x20 PUSH1 0x1F DUP4 ADD DIV SWAP1 POP SWAP2 SWAP1 POP JUMP JUMPDEST PUSH1 0x0 DUP3 DUP3 SHL SWAP1 POP SWAP3 SWAP2 POP POP JUMP JUMPDEST PUSH1 0x0 PUSH1 0x8 DUP4 MUL PUSH2 0x2457 PUSH32 0xFFFFFFFFFFFFFFFFFFFFFFFFFFFFFFFFFFFFFFFFFFFFFFFFFFFFFFFFFFFFFFFF DUP3 PUSH2 0x241A JUMP JUMPDEST PUSH2 0x2461 DUP7 DUP4 PUSH2 0x241A JUMP JUMPDEST SWAP6 POP DUP1 NOT DUP5 AND SWAP4 POP DUP1 DUP7 AND DUP5 OR SWAP3 POP POP POP SWAP4 SWAP3 POP POP POP JUMP JUMPDEST PUSH1 0x0 DUP2 SWAP1 POP SWAP2 SWAP1 POP JUMP JUMPDEST PUSH1 0x0 PUSH2 0x249E PUSH2 0x2499 PUSH2 0x2494 DUP5 PUSH2 0x1539 JUMP JUMPDEST PUSH2 0x2479 JUMP JUMPDEST PUSH2 0x1539 JUMP JUMPDEST SWAP1 POP SWAP2 SWAP1 POP JUMP JUMPDEST PUSH1 0x0 DUP2 SWAP1 POP SWAP2 SWAP1 POP JUMP JUMPDEST PUSH2 0x24B8 DUP4 PUSH2 0x2483 JUMP JUMPDEST PUSH2 0x24CC PUSH2 0x24C4 DUP3 PUSH2 0x24A5 JUMP JUMPDEST DUP5 DUP5 SLOAD PUSH2 0x2427 JUMP JUMPDEST DUP3 SSTORE POP POP POP POP JUMP JUMPDEST PUSH1 0x0 SWAP1 JUMP JUMPDEST PUSH2 0x24E1 PUSH2 0x24D4 JUMP JUMPDEST PUSH2 0x24EC DUP2 DUP5 DUP5 PUSH2 0x24AF JUMP JUMPDEST POP POP POP JUMP JUMPDEST JUMPDEST DUP2 DUP2 LT ISZERO PUSH2 0x2510 JUMPI PUSH2 0x2505 PUSH1 0x0 DUP3 PUSH2 0x24D9 JUMP JUMPDEST PUSH1 0x1 DUP2 ADD SWAP1 POP PUSH2 0x24F2 JUMP JUMPDEST POP POP JUMP JUMPDEST PUSH1 0x1F DUP3 GT ISZERO PUSH2 0x2555 JUMPI PUSH2 0x2526 DUP2 PUSH2 0x2266 JUMP JUMPDEST PUSH2 0x252F DUP5 PUSH2 0x240A JUMP JUMPDEST DUP2 ADD PUSH1 0x20 DUP6 LT ISZERO PUSH2 0x253E JUMPI DUP2 SWAP1 POP JUMPDEST PUSH2 0x2552 PUSH2 0x254A DUP6 PUSH2 0x240A JUMP JUMPDEST DUP4 ADD DUP3 PUSH2 0x24F1 JUMP JUMPDEST POP POP JUMPDEST POP POP POP JUMP JUMPDEST PUSH1 0x0 DUP3 DUP3 SHR SWAP1 POP SWAP3 SWAP2 POP POP JUMP JUMPDEST PUSH1 0x0 PUSH2 0x2578 PUSH1 0x0 NOT DUP5 PUSH1 0x8 MUL PUSH2 0x255A JUMP JUMPDEST NOT DUP1 DUP4 AND SWAP2 POP POP SWAP3 SWAP2 POP POP JUMP JUMPDEST PUSH1 0x0 PUSH2 0x2591 DUP4 DUP4 PUSH2 0x2567 JUMP JUMPDEST SWAP2 POP DUP3 PUSH1 0x2 MUL DUP3 OR SWAP1 POP SWAP3 SWAP2 POP POP JUMP JUMPDEST PUSH2 0x25AA DUP3 PUSH2 0x18BB JUMP JUMPDEST PUSH8 0xFFFFFFFFFFFFFFFF DUP2 GT ISZERO PUSH2 0x25C3 JUMPI PUSH2 0x25C2 PUSH2 0x15E1 JUMP JUMPDEST JUMPDEST PUSH2 0x25CD DUP3 SLOAD PUSH2 0x1DD0 JUMP JUMPDEST PUSH2 0x25D8 DUP3 DUP3 DUP6 PUSH2 0x2514 JUMP JUMPDEST PUSH1 0x0 PUSH1 0x20 SWAP1 POP PUSH1 0x1F DUP4 GT PUSH1 0x1 DUP2 EQ PUSH2 0x260B JUMPI PUSH1 0x0 DUP5 ISZERO PUSH2 0x25F9 JUMPI DUP3 DUP8 ADD MLOAD SWAP1 POP JUMPDEST PUSH2 0x2603 DUP6 DUP3 PUSH2 0x2585 JUMP JUMPDEST DUP7 SSTORE POP PUSH2 0x266B JUMP JUMPDEST PUSH1 0x1F NOT DUP5 AND PUSH2 0x2619 DUP7 PUSH2 0x2266 JUMP JUMPDEST PUSH1 0x0 JUMPDEST DUP3 DUP2 LT ISZERO PUSH2 0x2641 JUMPI DUP5 DUP10 ADD MLOAD DUP3 SSTORE PUSH1 0x1 DUP3 ADD SWAP2 POP PUSH1 0x20 DUP6 ADD SWAP5 POP PUSH1 0x20 DUP2 ADD SWAP1 POP PUSH2 0x261C JUMP JUMPDEST DUP7 DUP4 LT ISZERO PUSH2 0x265E JUMPI DUP5 DUP10 ADD MLOAD PUSH2 0x265A PUSH1 0x1F DUP10 AND DUP3 PUSH2 0x2567 JUMP JUMPDEST DUP4 SSTORE POP JUMPDEST PUSH1 0x1 PUSH1 0x2 DUP9 MUL ADD DUP9 SSTORE POP POP POP JUMPDEST POP POP POP POP POP POP JUMP INVALID LOG2 PUSH5 0x6970667358 0x22 SLT KECCAK256 0x2F 0x2A 0xAE CALL CALLDATASIZE 0xC1 EXTCODECOPY EXTCODECOPY SWAP11 0xEA 0xBD 0x2F 0xB5 SLT SHL EXTCODESIZE LOG1 SWAP7 EXTCODEHASH 0x4C 0xDD LOG4 PUSH1 0x96 EQ 0xDA SUB DUP2 0xDB PUSH9 0x66DE64736F6C634300 ADDMOD SGT STOP CALLER "},"methodIdentifiers":{"balances(address)":"27e235e3","cashOut()":"793cd71e","deposit()":"d0e30db0","owner()":"8da5cb5b","points(string,uint256)":"2f95e210","price()":"a035b1fe","rawFulfillRandomness(bytes32,uint256)":"94985ddd","renounceOwnership()":"715018a6","slots(address)":"39301427","spin()":"f0acd7d5","symbols(uint256)":"ccce413b","transferOwnership(address)":"f2fde38b","updatePoints(string,uint256,uint256)":"6f9f9ea7","updatePrice(uint256)":"8d6cc56d","userBalance()":"bf152765","withdraw(uint256)":"2e1a7d4d"}},"storageLayout":{"storage":[{"astId":273,"contract":"scripts/contracts/SlotMachine.sol:SlotMachine","label":"_owner","offset":0,"slot":"0","type":"t_address"},{"astId":79,"contract":"scripts/contracts/SlotMachine.sol:SlotMachine","label":"nonces","offset":0,"slot":"1","type":"t_mapping(t_bytes32,t_uint256)"},{"astId":418,"contract":"scripts/contracts/SlotMachine.sol:SlotMachine","label":"price","offset":0,"slot":"2","type":"t_uint256"},{"astId":424,"contract":"scripts/contracts/SlotMachine.sol:SlotMachine","label":"points","offset":0,"slot":"3","type":"t_mapping(t_string_memory_ptr,t_array(t_uint256)2_storage)"},{"astId":426,"contract":"scripts/contracts/SlotMachine.sol:SlotMachine","label":"keyHash","offset":0,"slot":"4","type":"t_bytes32"},{"astId":428,"contract":"scripts/contracts/SlotMachine.sol:SlotMachine","label":"fee","offset":0,"slot":"5","type":"t_uint256"},{"astId":532,"contract":"scripts/contracts/SlotMachine.sol:SlotMachine","label":"symbols","offset":0,"slot":"6","type":"t_array(t_string_storage)dyn_storage"},{"astId":546,"contract":"scripts/contracts/SlotMachine.sol:SlotMachine","label":"slots","offset":0,"slot":"7","type":"t_mapping(t_address,t_struct(Slot)541_storage)"},{"astId":550,"contract":"scripts/contracts/SlotMachine.sol:SlotMachine","label":"balances","offset":0,"slot":"8","type":"t_mapping(t_address,t_uint256)"}],"types":{"t_address":{"encoding":"inplace","label":"address","numberOfBytes":"20"},"t_array(t_string_storage)3_storage":{"base":"t_string_storage","encoding":"inplace","label":"string[3]","numberOfBytes":"96"},"t_array(t_string_storage)dyn_storage":{"base":"t_string_storage","encoding":"dynamic_array","label":"string[]","numberOfBytes":"32"},"t_array(t_uint256)2_storage":{"base":"t_uint256","encoding":"inplace","label":"uint256[2]","numberOfBytes":"64"},"t_bool":{"encoding":"inplace","label":"bool","numberOfBytes":"1"},"t_bytes32":{"encoding":"inplace","label":"bytes32","numberOfBytes":"32"},"t_mapping(t_address,t_struct(Slot)541_storage)":{"encoding":"mapping","key":"t_address","label":"mapping(address => struct SlotMachine.Slot)","numberOfBytes":"32","value":"t_struct(Slot)541_storage"},"t_mapping(t_address,t_uint256)":{"encoding":"mapping","key":"t_address","label":"mapping(address => uint256)","numberOfBytes":"32","value":"t_uint256"},"t_mapping(t_bytes32,t_uint256)":{"encoding":"mapping","key":"t_bytes32","label":"mapping(bytes32 => uint256)","numberOfBytes":"32","value":"t_uint256"},"t_mapping(t_string_memory_ptr,t_array(t_uint256)2_storage)":{"encoding":"mapping","key":"t_string_memory_ptr","label":"mapping(string => uint256[2])","numberOfBytes":"32","value":"t_array(t_uint256)2_storage"},"t_string_memory_ptr":{"encoding":"bytes","label":"string","numberOfBytes":"32"},"t_string_storage":{"encoding":"bytes","label":"string","numberOfBytes":"32"},"t_struct(Slot)541_storage":{"encoding":"inplace","label":"struct SlotMachine.Slot","members":[{"astId":534,"contract":"scripts/contracts/SlotMachine.sol:SlotMachine","label":"redeemed","offset":0,"slot":"0","type":"t_bool"},{"astId":538,"contract":"scripts/contracts/SlotMachine.sol:SlotMachine","label":"results","offset":0,"slot":"1","type":"t_array(t_string_storage)3_storage"},{"astId":540,"contract":"scripts/contracts/SlotMachine.sol:SlotMachine","label":"prize","offset":0,"slot":"4","type":"t_uint256"}],"numberOfBytes":"160"},"t_uint256":{"encoding":"inplace","label":"uint256","numberOfBytes":"32"}}}}}}