{
  "_format": "hh-sol-artifact-1",
  "contractName": "Bid",
  "sourceName": "src/lib/contracts/Bid.sol",
  "abi": [
    {
      "inputs": [],
      "stateMutability": "nonpayable",
      "type": "constructor"
    },
    {
      "anonymous": false,
      "inputs": [
        {
          "indexed": true,
          "internalType": "address",
          "name": "previousOwner",
          "type": "address"
        },
        {
          "indexed": true,
          "internalType": "address",
          "name": "newOwner",
          "type": "address"
        }
      ],
      "name": "OwnershipTransferred",
      "type": "event"
    },
    {
      "anonymous": false,
      "inputs": [
        {
          "indexed": false,
          "internalType": "address",
          "name": "sender",
          "type": "address"
        },
        {
          "indexed": false,
          "internalType": "uint256",
          "name": "value",
          "type": "uint256"
        }
      ],
      "name": "PURCHASE",
      "type": "event"
    },
    {
      "anonymous": false,
      "inputs": [
        {
          "indexed": false,
          "internalType": "address",
          "name": "sender",
          "type": "address"
        },
        {
          "indexed": false,
          "internalType": "uint256",
          "name": "value",
          "type": "uint256"
        }
      ],
      "name": "REDEEM",
      "type": "event"
    },
    {
      "inputs": [],
      "name": "owner",
      "outputs": [
        {
          "internalType": "address",
          "name": "",
          "type": "address"
        }
      ],
      "stateMutability": "view",
      "type": "function"
    },
    {
      "inputs": [],
      "name": "price",
      "outputs": [
        {
          "internalType": "uint256",
          "name": "",
          "type": "uint256"
        }
      ],
      "stateMutability": "view",
      "type": "function"
    },
    {
      "inputs": [],
      "name": "purchase",
      "outputs": [],
      "stateMutability": "payable",
      "type": "function"
    },
    {
      "inputs": [],
      "name": "redeem",
      "outputs": [],
      "stateMutability": "payable",
      "type": "function"
    },
    {
      "inputs": [],
      "name": "renounceOwnership",
      "outputs": [],
      "stateMutability": "nonpayable",
      "type": "function"
    },
    {
      "inputs": [
        {
          "internalType": "address",
          "name": "winner",
          "type": "address"
        },
        {
          "internalType": "uint256",
          "name": "value",
          "type": "uint256"
        }
      ],
      "name": "setPrize",
      "outputs": [],
      "stateMutability": "nonpayable",
      "type": "function"
    },
    {
      "inputs": [
        {
          "internalType": "address",
          "name": "newOwner",
          "type": "address"
        }
      ],
      "name": "transferOwnership",
      "outputs": [],
      "stateMutability": "nonpayable",
      "type": "function"
    },
    {
      "inputs": [
        {
          "internalType": "uint256",
          "name": "new_price",
          "type": "uint256"
        }
      ],
      "name": "updatePrice",
      "outputs": [],
      "stateMutability": "nonpayable",
      "type": "function"
    },
    {
      "inputs": [
        {
          "internalType": "uint256",
          "name": "amount",
          "type": "uint256"
        }
      ],
      "name": "withdrawBalance",
      "outputs": [],
      "stateMutability": "nonpayable",
      "type": "function"
    }
  ],
  "bytecode": "0x608060405234801561001057600080fd5b5061002d61002261004760201b60201c565b61004f60201b60201c565b6001808190555066038d7ea4c68000600281905550610113565b600033905090565b60008060009054906101000a900473ffffffffffffffffffffffffffffffffffffffff169050816000806101000a81548173ffffffffffffffffffffffffffffffffffffffff021916908373ffffffffffffffffffffffffffffffffffffffff1602179055508173ffffffffffffffffffffffffffffffffffffffff168173ffffffffffffffffffffffffffffffffffffffff167f8be0079c531659141344cd1fd0a4f28419497f9722a3daafe3b4186f6b6457e060405160405180910390a35050565b610b50806101226000396000f3fe6080604052600436106100865760003560e01c80638da5cb5b116100595780638da5cb5b146100fe578063a035b1fe14610129578063be040fb014610154578063da76d5cd1461015e578063f2fde38b1461018757610086565b806364edfbf01461008b578063715018a61461009557806373719ba2146100ac5780638d6cc56d146100d5575b600080fd5b6100936101b0565b005b3480156100a157600080fd5b506100aa6101fe565b005b3480156100b857600080fd5b506100d360048036038101906100ce9190610776565b610212565b005b3480156100e157600080fd5b506100fc60048036038101906100f791906107b6565b610262565b005b34801561010a57600080fd5b50610113610274565b60405161012091906107f2565b60405180910390f35b34801561013557600080fd5b5061013e61029d565b60405161014b919061081c565b60405180910390f35b61015c6102a3565b005b34801561016a57600080fd5b50610185600480360381019061018091906107b6565b610415565b005b34801561019357600080fd5b506101ae60048036038101906101a99190610837565b610510565b005b6000600254346101c09190610893565b90507f2682644f39313c876745cc1eb2911659dfd9102ea8337859e84b097189aaba3133826040516101f39291906108c4565b60405180910390a150565b610206610593565b6102106000610611565b565b61021a610593565b80600360008473ffffffffffffffffffffffffffffffffffffffff1673ffffffffffffffffffffffffffffffffffffffff168152602001908152602001600020819055505050565b61026a610593565b8060028190555050565b60008060009054906101000a900473ffffffffffffffffffffffffffffffffffffffff16905090565b60025481565b6000600360003373ffffffffffffffffffffffffffffffffffffffff1673ffffffffffffffffffffffffffffffffffffffff16815260200190815260200160002054905060003373ffffffffffffffffffffffffffffffffffffffff168260405161030d9061091e565b60006040518083038185875af1925050503d806000811461034a576040519150601f19603f3d011682016040523d82523d6000602084013e61034f565b606091505b5050905080610393576040517f08c379a000000000000000000000000000000000000000000000000000000000815260040161038a90610990565b60405180910390fd5b6000600360003373ffffffffffffffffffffffffffffffffffffffff1673ffffffffffffffffffffffffffffffffffffffff168152602001908152602001600020819055507f8b3cbb7f95cd199f1ef5fabeef750deec1a71c5dcfc8045cf51bee4fc68c130133836040516104099291906108c4565b60405180910390a15050565b61041d610593565b80471015610460576040517f08c379a0000000000000000000000000000000000000000000000000000000008152600401610457906109fc565b60405180910390fd5b60003373ffffffffffffffffffffffffffffffffffffffff16826040516104869061091e565b60006040518083038185875af1925050503d80600081146104c3576040519150601f19603f3d011682016040523d82523d6000602084013e6104c8565b606091505b505090508061050c576040517f08c379a000000000000000000000000000000000000000000000000000000000815260040161050390610990565b60405180910390fd5b5050565b610518610593565b600073ffffffffffffffffffffffffffffffffffffffff168173ffffffffffffffffffffffffffffffffffffffff1603610587576040517f08c379a000000000000000000000000000000000000000000000000000000000815260040161057e90610a8e565b60405180910390fd5b61059081610611565b50565b61059b6106d5565b73ffffffffffffffffffffffffffffffffffffffff166105b9610274565b73ffffffffffffffffffffffffffffffffffffffff161461060f576040517f08c379a000000000000000000000000000000000000000000000000000000000815260040161060690610afa565b60405180910390fd5b565b60008060009054906101000a900473ffffffffffffffffffffffffffffffffffffffff169050816000806101000a81548173ffffffffffffffffffffffffffffffffffffffff021916908373ffffffffffffffffffffffffffffffffffffffff1602179055508173ffffffffffffffffffffffffffffffffffffffff168173ffffffffffffffffffffffffffffffffffffffff167f8be0079c531659141344cd1fd0a4f28419497f9722a3daafe3b4186f6b6457e060405160405180910390a35050565b600033905090565b600080fd5b600073ffffffffffffffffffffffffffffffffffffffff82169050919050565b600061070d826106e2565b9050919050565b61071d81610702565b811461072857600080fd5b50565b60008135905061073a81610714565b92915050565b6000819050919050565b61075381610740565b811461075e57600080fd5b50565b6000813590506107708161074a565b92915050565b6000806040838503121561078d5761078c6106dd565b5b600061079b8582860161072b565b92505060206107ac85828601610761565b9150509250929050565b6000602082840312156107cc576107cb6106dd565b5b60006107da84828501610761565b91505092915050565b6107ec81610702565b82525050565b600060208201905061080760008301846107e3565b92915050565b61081681610740565b82525050565b6000602082019050610831600083018461080d565b92915050565b60006020828403121561084d5761084c6106dd565b5b600061085b8482850161072b565b91505092915050565b7f4e487b7100000000000000000000000000000000000000000000000000000000600052601260045260246000fd5b600061089e82610740565b91506108a983610740565b9250826108b9576108b8610864565b5b828204905092915050565b60006040820190506108d960008301856107e3565b6108e6602083018461080d565b9392505050565b600081905092915050565b50565b60006109086000836108ed565b9150610913826108f8565b600082019050919050565b6000610929826108fb565b9150819050919050565b600082825260208201905092915050565b7f5769746864726177206661696c65640000000000000000000000000000000000600082015250565b600061097a600f83610933565b915061098582610944565b602082019050919050565b600060208201905081810360008301526109a98161096d565b9050919050565b7f496e73756666696369656e742066756e64730000000000000000000000000000600082015250565b60006109e6601283610933565b91506109f1826109b0565b602082019050919050565b60006020820190508181036000830152610a15816109d9565b9050919050565b7f4f776e61626c653a206e6577206f776e657220697320746865207a65726f206160008201527f6464726573730000000000000000000000000000000000000000000000000000602082015250565b6000610a78602683610933565b9150610a8382610a1c565b604082019050919050565b60006020820190508181036000830152610aa781610a6b565b9050919050565b7f4f776e61626c653a2063616c6c6572206973206e6f7420746865206f776e6572600082015250565b6000610ae4602083610933565b9150610aef82610aae565b602082019050919050565b60006020820190508181036000830152610b1381610ad7565b905091905056fea264697066735822122094b179b994afa3bc78bb3f5b8896cec9ac00eaa310e87d426268237f2473573b64736f6c63430008130033",
  "linkReferences": {},
  "deployedLinkReferences": {}
}