{
  "_format": "hh-sol-artifact-1",
  "contractName": "SlotMachine",
  "sourceName": "scripts/contracts/SlotMachine.sol",
  "abi": [
    {
      "inputs": [],
      "stateMutability": "nonpayable",
      "type": "constructor"
    },
    {
      "anonymous": false,
      "inputs": [
        {
          "indexed": true,
          "internalType": "address",
          "name": "previousOwner",
          "type": "address"
        },
        {
          "indexed": true,
          "internalType": "address",
          "name": "newOwner",
          "type": "address"
        }
      ],
      "name": "OwnershipTransferred",
      "type": "event"
    },
    {
      "inputs": [
        {
          "internalType": "address",
          "name": "",
          "type": "address"
        }
      ],
      "name": "balances",
      "outputs": [
        {
          "internalType": "uint256",
          "name": "",
          "type": "uint256"
        }
      ],
      "stateMutability": "view",
      "type": "function"
    },
    {
      "inputs": [],
      "name": "cashOut",
      "outputs": [],
      "stateMutability": "nonpayable",
      "type": "function"
    },
    {
      "inputs": [],
      "name": "deposit",
      "outputs": [],
      "stateMutability": "payable",
      "type": "function"
    },
    {
      "inputs": [],
      "name": "owner",
      "outputs": [
        {
          "internalType": "address",
          "name": "",
          "type": "address"
        }
      ],
      "stateMutability": "view",
      "type": "function"
    },
    {
      "inputs": [
        {
          "internalType": "string",
          "name": "",
          "type": "string"
        },
        {
          "internalType": "uint256",
          "name": "",
          "type": "uint256"
        }
      ],
      "name": "points",
      "outputs": [
        {
          "internalType": "uint256",
          "name": "",
          "type": "uint256"
        }
      ],
      "stateMutability": "view",
      "type": "function"
    },
    {
      "inputs": [],
      "name": "price",
      "outputs": [
        {
          "internalType": "uint256",
          "name": "",
          "type": "uint256"
        }
      ],
      "stateMutability": "view",
      "type": "function"
    },
    {
      "inputs": [],
      "name": "renounceOwnership",
      "outputs": [],
      "stateMutability": "nonpayable",
      "type": "function"
    },
    {
      "inputs": [
        {
          "internalType": "address",
          "name": "",
          "type": "address"
        }
      ],
      "name": "slots",
      "outputs": [
        {
          "internalType": "bool",
          "name": "redeemed",
          "type": "bool"
        },
        {
          "internalType": "uint256",
          "name": "prize",
          "type": "uint256"
        }
      ],
      "stateMutability": "view",
      "type": "function"
    },
    {
      "inputs": [],
      "name": "spin",
      "outputs": [
        {
          "components": [
            {
              "internalType": "bool",
              "name": "redeemed",
              "type": "bool"
            },
            {
              "internalType": "string[3]",
              "name": "results",
              "type": "string[3]"
            },
            {
              "internalType": "uint256",
              "name": "prize",
              "type": "uint256"
            }
          ],
          "internalType": "struct SlotMachine.Slot",
          "name": "",
          "type": "tuple"
        }
      ],
      "stateMutability": "payable",
      "type": "function"
    },
    {
      "inputs": [
        {
          "internalType": "uint256",
          "name": "",
          "type": "uint256"
        }
      ],
      "name": "symbols",
      "outputs": [
        {
          "internalType": "string",
          "name": "",
          "type": "string"
        }
      ],
      "stateMutability": "view",
      "type": "function"
    },
    {
      "inputs": [
        {
          "internalType": "address",
          "name": "newOwner",
          "type": "address"
        }
      ],
      "name": "transferOwnership",
      "outputs": [],
      "stateMutability": "nonpayable",
      "type": "function"
    },
    {
      "inputs": [
        {
          "internalType": "string",
          "name": "symbol",
          "type": "string"
        },
        {
          "internalType": "uint256",
          "name": "twoMatchPayout",
          "type": "uint256"
        },
        {
          "internalType": "uint256",
          "name": "threeMatchPayout",
          "type": "uint256"
        }
      ],
      "name": "updatePoints",
      "outputs": [],
      "stateMutability": "nonpayable",
      "type": "function"
    },
    {
      "inputs": [
        {
          "internalType": "uint256",
          "name": "new_price",
          "type": "uint256"
        }
      ],
      "name": "updatePrice",
      "outputs": [],
      "stateMutability": "nonpayable",
      "type": "function"
    },
    {
      "inputs": [],
      "name": "userBalance",
      "outputs": [
        {
          "internalType": "uint256",
          "name": "",
          "type": "uint256"
        }
      ],
      "stateMutability": "view",
      "type": "function"
    },
    {
      "inputs": [
        {
          "internalType": "uint256",
          "name": "amount",
          "type": "uint256"
        }
      ],
      "name": "withdraw",
      "outputs": [],
      "stateMutability": "nonpayable",
      "type": "function"
    }
  ],
  "bytecode": "0x60806040526040518061010001604052806040518060400160405280600681526020017f436865727279000000000000000000000000000000000000000000000000000081525081526020016040518060400160405280600581526020017f4c656d6f6e00000000000000000000000000000000000000000000000000000081525081526020016040518060400160405280600481526020017f506c756d0000000000000000000000000000000000000000000000000000000081525081526020016040518060400160405280600681526020017f4f72616e6765000000000000000000000000000000000000000000000000000081525081526020016040518060400160405280600481526020017f42656c6c0000000000000000000000000000000000000000000000000000000081525081526020016040518060400160405280600581526020017f4d656c6f6e00000000000000000000000000000000000000000000000000000081525081526020016040518060400160405280600381526020017f426172000000000000000000000000000000000000000000000000000000000081525081526020016040518060400160405280600581526020017f536576656e0000000000000000000000000000000000000000000000000000008152508152506002906008620001f892919062000648565b503480156200020657600080fd5b50620002276200021b6200057c60201b60201c565b6200058460201b60201c565b67010a741a462780006001819055506040518060400160405280676f05b59d3b20000067ffffffffffffffff16815260200167de0b6b3a7640000067ffffffffffffffff1681525060036040516200027f90620007e1565b90815260200160405180910390209060026200029d929190620006a8565b506040518060400160405280676124fee993bc000067ffffffffffffffff16815260200167c249fdd32778000067ffffffffffffffff168152506003604051620002e79062000848565b908152602001604051809103902090600262000305929190620006a8565b5060405180604001604052806753444835ec58000067ffffffffffffffff16815260200167a688906bd8b0000067ffffffffffffffff1681525060036040516200034f90620008af565b90815260200160405180910390209060026200036d929190620006a8565b506040518060400160405280674563918244f4000067ffffffffffffffff168152602001678ac7230489e8000067ffffffffffffffff168152506003604051620003b79062000916565b9081526020016040518091039020906002620003d5929190620006a8565b506040518060400160405280673782dace9d90000067ffffffffffffffff168152602001676f05b59d3b20000067ffffffffffffffff1681525060036040516200041f906200097d565b90815260200160405180910390209060026200043d929190620006a8565b5060405180604001604052806729a2241af62c000067ffffffffffffffff1681526020016753444835ec58000067ffffffffffffffff1681525060036040516200048790620009e4565b9081526020016040518091039020906002620004a5929190620006a8565b506040518060400160405280671bc16d674ec8000067ffffffffffffffff168152602001673782dace9d90000067ffffffffffffffff168152506003604051620004ef9062000a4b565b90815260200160405180910390209060026200050d929190620006a8565b506040518060400160405280670de0b6b3a764000067ffffffffffffffff168152602001671bc16d674ec8000067ffffffffffffffff168152506003604051620005579062000ab2565b908152602001604051809103902090600262000575929190620006a8565b5062000e2a565b600033905090565b60008060009054906101000a900473ffffffffffffffffffffffffffffffffffffffff169050816000806101000a81548173ffffffffffffffffffffffffffffffffffffffff021916908373ffffffffffffffffffffffffffffffffffffffff1602179055508173ffffffffffffffffffffffffffffffffffffffff168173ffffffffffffffffffffffffffffffffffffffff167f8be0079c531659141344cd1fd0a4f28419497f9722a3daafe3b4186f6b6457e060405160405180910390a35050565b82805482825590600052602060002090810192821562000695579160200282015b828111156200069457825182908162000683919062000d43565b509160200191906001019062000669565b5b509050620006a49190620006f9565b5090565b8260028101928215620006e6579160200282015b82811115620006e5578251829067ffffffffffffffff16905591602001919060010190620006bc565b5b509050620006f5919062000721565b5090565b5b808211156200071d576000818162000713919062000740565b50600101620006fa565b5090565b5b808211156200073c57600081600090555060010162000722565b5090565b5080546200074e9062000b32565b6000825580601f1062000762575062000783565b601f01602090049060005260206000209081019062000782919062000721565b5b50565b600081905092915050565b7f4368657272790000000000000000000000000000000000000000000000000000600082015250565b6000620007c960068362000786565b9150620007d68262000791565b600682019050919050565b6000620007ee82620007ba565b9150819050919050565b7f4c656d6f6e000000000000000000000000000000000000000000000000000000600082015250565b60006200083060058362000786565b91506200083d82620007f8565b600582019050919050565b6000620008558262000821565b9150819050919050565b7f506c756d00000000000000000000000000000000000000000000000000000000600082015250565b60006200089760048362000786565b9150620008a4826200085f565b600482019050919050565b6000620008bc8262000888565b9150819050919050565b7f4f72616e67650000000000000000000000000000000000000000000000000000600082015250565b6000620008fe60068362000786565b91506200090b82620008c6565b600682019050919050565b60006200092382620008ef565b9150819050919050565b7f42656c6c00000000000000000000000000000000000000000000000000000000600082015250565b60006200096560048362000786565b915062000972826200092d565b600482019050919050565b60006200098a8262000956565b9150819050919050565b7f4d656c6f6e000000000000000000000000000000000000000000000000000000600082015250565b6000620009cc60058362000786565b9150620009d98262000994565b600582019050919050565b6000620009f182620009bd565b9150819050919050565b7f4261720000000000000000000000000000000000000000000000000000000000600082015250565b600062000a3360038362000786565b915062000a4082620009fb565b600382019050919050565b600062000a588262000a24565b9150819050919050565b7f536576656e000000000000000000000000000000000000000000000000000000600082015250565b600062000a9a60058362000786565b915062000aa78262000a62565b600582019050919050565b600062000abf8262000a8b565b9150819050919050565b600081519050919050565b7f4e487b7100000000000000000000000000000000000000000000000000000000600052604160045260246000fd5b7f4e487b7100000000000000000000000000000000000000000000000000000000600052602260045260246000fd5b6000600282049050600182168062000b4b57607f821691505b60208210810362000b615762000b6062000b03565b5b50919050565b60008190508160005260206000209050919050565b60006020601f8301049050919050565b600082821b905092915050565b60006008830262000bcb7fffffffffffffffffffffffffffffffffffffffffffffffffffffffffffffffff8262000b8c565b62000bd7868362000b8c565b95508019841693508086168417925050509392505050565b6000819050919050565b6000819050919050565b600062000c2462000c1e62000c188462000bef565b62000bf9565b62000bef565b9050919050565b6000819050919050565b62000c408362000c03565b62000c5862000c4f8262000c2b565b84845462000b99565b825550505050565b600090565b62000c6f62000c60565b62000c7c81848462000c35565b505050565b5b8181101562000ca45762000c9860008262000c65565b60018101905062000c82565b5050565b601f82111562000cf35762000cbd8162000b67565b62000cc88462000b7c565b8101602085101562000cd8578190505b62000cf062000ce78562000b7c565b83018262000c81565b50505b505050565b600082821c905092915050565b600062000d186000198460080262000cf8565b1980831691505092915050565b600062000d33838362000d05565b9150826002028217905092915050565b62000d4e8262000ac9565b67ffffffffffffffff81111562000d6a5762000d6962000ad4565b5b62000d76825462000b32565b62000d8382828562000ca8565b600060209050601f83116001811462000dbb576000841562000da6578287015190505b62000db2858262000d25565b86555062000e22565b601f19841662000dcb8662000b67565b60005b8281101562000df55784890151825560018201915060208501945060208101905062000dce565b8683101562000e15578489015162000e11601f89168262000d05565b8355505b6001600288020188555050505b505050505050565b6121608062000e3a6000396000f3fe6080604052600436106100e85760003560e01c80638d6cc56d1161008a578063ccce413b11610059578063ccce413b146102cf578063d0e30db01461030c578063f0acd7d514610316578063f2fde38b14610334576100e8565b80638d6cc56d146102255780638da5cb5b1461024e578063a035b1fe14610279578063bf152765146102a4576100e8565b806339301427116100c657806339301427146101905780636f9f9ea7146101ce578063715018a6146101f7578063793cd71e1461020e576100e8565b806327e235e3146100ed5780632e1a7d4d1461012a5780632f95e21014610153575b600080fd5b3480156100f957600080fd5b50610114600480360381019061010f919061129d565b61035d565b60405161012191906112e3565b60405180910390f35b34801561013657600080fd5b50610151600480360381019061014c919061132a565b610375565b005b34801561015f57600080fd5b5061017a6004803603810190610175919061149d565b610470565b60405161018791906112e3565b60405180910390f35b34801561019c57600080fd5b506101b760048036038101906101b2919061129d565b6104ae565b6040516101c5929190611514565b60405180910390f35b3480156101da57600080fd5b506101f560048036038101906101f0919061153d565b6104df565b005b34801561020357600080fd5b5061020c61052e565b005b34801561021a57600080fd5b50610223610542565b005b34801561023157600080fd5b5061024c6004803603810190610247919061132a565b6106be565b005b34801561025a57600080fd5b506102636106d0565b60405161027091906115bb565b60405180910390f35b34801561028557600080fd5b5061028e6106f9565b60405161029b91906112e3565b60405180910390f35b3480156102b057600080fd5b506102b96106ff565b6040516102c691906112e3565b60405180910390f35b3480156102db57600080fd5b506102f660048036038101906102f1919061132a565b610746565b6040516103039190611655565b60405180910390f35b6103146107f2565b005b61031e6107f4565b60405161032b91906117e5565b60405180910390f35b34801561034057600080fd5b5061035b6004803603810190610356919061129d565b610b1e565b005b60056020528060005260406000206000915090505481565b61037d610ba1565b804710156103c0576040517f08c379a00000000000000000000000000000000000000000000000000000000081526004016103b790611853565b60405180910390fd5b60003373ffffffffffffffffffffffffffffffffffffffff16826040516103e6906118a4565b60006040518083038185875af1925050503d8060008114610423576040519150601f19603f3d011682016040523d82523d6000602084013e610428565b606091505b505090508061046c576040517f08c379a000000000000000000000000000000000000000000000000000000000815260040161046390611905565b60405180910390fd5b5050565b60038280516020810182018051848252602083016020850120818352809550505050505081600281106104a257600080fd5b01600091509150505481565b60046020528060005260406000206000915090508060000160009054906101000a900460ff16908060040154905082565b6104e7610ba1565b60405180604001604052808381526020018281525060038460405161050c9190611961565b90815260200160405180910390209060026105289291906110ab565b50505050565b610536610ba1565b6105406000610c1f565b565b6000600560003373ffffffffffffffffffffffffffffffffffffffff1673ffffffffffffffffffffffffffffffffffffffff168152602001908152602001600020549050804710156105c9576040517f08c379a00000000000000000000000000000000000000000000000000000000081526004016105c090611853565b60405180910390fd5b6000600560003373ffffffffffffffffffffffffffffffffffffffff1673ffffffffffffffffffffffffffffffffffffffff1681526020019081526020016000208190555060003373ffffffffffffffffffffffffffffffffffffffff1682604051610634906118a4565b60006040518083038185875af1925050503d8060008114610671576040519150601f19603f3d011682016040523d82523d6000602084013e610676565b606091505b50509050806106ba576040517f08c379a00000000000000000000000000000000000000000000000000000000081526004016106b190611905565b60405180910390fd5b5050565b6106c6610ba1565b8060018190555050565b60008060009054906101000a900473ffffffffffffffffffffffffffffffffffffffff16905090565b60015481565b6000600560003373ffffffffffffffffffffffffffffffffffffffff1673ffffffffffffffffffffffffffffffffffffffff16815260200190815260200160002054905090565b6002818154811061075657600080fd5b906000526020600020016000915090508054610771906119a7565b80601f016020809104026020016040519081016040528092919081815260200182805461079d906119a7565b80156107ea5780601f106107bf576101008083540402835291602001916107ea565b820191906000526020600020905b8154815290600101906020018083116107cd57829003601f168201915b505050505081565b565b6107fc6110eb565b600154341015610841576040517f08c379a000000000000000000000000000000000000000000000000000000000815260040161083890611a24565b60405180910390fd5b600460003373ffffffffffffffffffffffffffffffffffffffff1673ffffffffffffffffffffffffffffffffffffffff16815260200190815260200160002060000160009054906101000a900460ff166108d0576040517f08c379a00000000000000000000000000000000000000000000000000000000081526004016108c790611a90565b60405180910390fd5b60006108da610ce3565b905060006108e782610dfa565b9050604051806060016040528060001515815260200183815260200182815250600460003373ffffffffffffffffffffffffffffffffffffffff1673ffffffffffffffffffffffffffffffffffffffff16815260200190815260200160002060008201518160000160006101000a81548160ff02191690831515021790555060208201518160010190600361097d929190611114565b506040820151816004015590505080600560003373ffffffffffffffffffffffffffffffffffffffff1673ffffffffffffffffffffffffffffffffffffffff16815260200190815260200160002060008282546109da9190611adf565b92505081905550600460003373ffffffffffffffffffffffffffffffffffffffff1673ffffffffffffffffffffffffffffffffffffffff1681526020019081526020016000206040518060600160405290816000820160009054906101000a900460ff1615151515815260200160018201600380602002604051908101604052809291906000905b82821015610b05578382018054610a78906119a7565b80601f0160208091040260200160405190810160405280929190818152602001828054610aa4906119a7565b8015610af15780601f10610ac657610100808354040283529160200191610af1565b820191906000526020600020905b815481529060010190602001808311610ad457829003601f168201915b505050505081526020019060010190610a62565b5050505081526020016004820154815250509250505090565b610b26610ba1565b600073ffffffffffffffffffffffffffffffffffffffff168173ffffffffffffffffffffffffffffffffffffffff1603610b95576040517f08c379a0000000000000000000000000000000000000000000000000000000008152600401610b8c90611b85565b60405180910390fd5b610b9e81610c1f565b50565b610ba961106a565b73ffffffffffffffffffffffffffffffffffffffff16610bc76106d0565b73ffffffffffffffffffffffffffffffffffffffff1614610c1d576040517f08c379a0000000000000000000000000000000000000000000000000000000008152600401610c1490611bf1565b60405180910390fd5b565b60008060009054906101000a900473ffffffffffffffffffffffffffffffffffffffff169050816000806101000a81548173ffffffffffffffffffffffffffffffffffffffff021916908373ffffffffffffffffffffffffffffffffffffffff1602179055508173ffffffffffffffffffffffffffffffffffffffff168173ffffffffffffffffffffffffffffffffffffffff167f8be0079c531659141344cd1fd0a4f28419497f9722a3daafe3b4186f6b6457e060405160405180910390a35050565b610ceb611160565b610cf3611160565b60005b6003811015610df2576000600280549050610d1083611072565b610d1a9190611c40565b905060028181548110610d3057610d2f611c71565b5b906000526020600020018054610d45906119a7565b80601f0160208091040260200160405190810160405280929190818152602001828054610d71906119a7565b8015610dbe5780601f10610d9357610100808354040283529160200191610dbe565b820191906000526020600020905b815481529060010190602001808311610da157829003601f168201915b5050505050838360038110610dd657610dd5611c71565b5b6020020181905250508080610dea90611ca0565b915050610cf6565b508091505090565b6000610e04611187565b60005b6003811015610ef85760005b600280549050811015610ee45760028181548110610e3457610e33611c71565b5b90600052602060002001604051602001610e4e9190611d80565b60405160208183030381529060405280519060200120858360038110610e7757610e76611c71565b5b6020020151604051602001610e8c9190611961565b6040516020818303038152906040528051906020012003610ed157828160088110610eba57610eb9611c71565b5b602002018051809190610ecc90611ca0565b815250505b8080610edc90611ca0565b915050610e13565b508080610ef090611ca0565b915050610e07565b5060008060005b6008811015610f585782848260088110610f1c57610f1b611c71565b5b60200201511115610f4557838160088110610f3a57610f39611c71565b5b602002015192508091505b8080610f5090611ca0565b915050610eff565b5060028203610fdb57670de0b6b3a7640000600154600360028481548110610f8357610f82611c71565b5b90600052602060002001604051610f9a9190611d80565b9081526020016040518091039020600060028110610fbb57610fba611c71565b5b0154610fc79190611d97565b610fd19190611dd9565b9350505050611065565b6003820361105d57670de0b6b3a764000060015460036002848154811061100557611004611c71565b5b9060005260206000200160405161101c9190611d80565b908152602001604051809103902060016002811061103d5761103c611c71565b5b01546110499190611d97565b6110539190611dd9565b9350505050611065565b600093505050505b919050565b600033905090565b60004244338460405160200161108b9493929190611e73565b6040516020818303038152906040528051906020012060001c9050919050565b82600281019282156110da579160200282015b828111156110d95782518255916020019190600101906110be565b5b5090506110e791906111aa565b5090565b6040518060600160405280600015158152602001611107611160565b8152602001600081525090565b826003810192821561114f579160200282015b8281111561114e57825182908161113e9190612058565b5091602001919060010190611127565b5b50905061115c91906111c7565b5090565b60405180606001604052806003905b606081526020019060019003908161116f5790505090565b604051806101000160405280600890602082028036833780820191505090505090565b5b808211156111c35760008160009055506001016111ab565b5090565b5b808211156111e757600081816111de91906111eb565b506001016111c8565b5090565b5080546111f7906119a7565b6000825580601f106112095750611228565b601f01602090049060005260206000209081019061122791906111aa565b5b50565b6000604051905090565b600080fd5b600080fd5b600073ffffffffffffffffffffffffffffffffffffffff82169050919050565b600061126a8261123f565b9050919050565b61127a8161125f565b811461128557600080fd5b50565b60008135905061129781611271565b92915050565b6000602082840312156112b3576112b2611235565b5b60006112c184828501611288565b91505092915050565b6000819050919050565b6112dd816112ca565b82525050565b60006020820190506112f860008301846112d4565b92915050565b611307816112ca565b811461131257600080fd5b50565b600081359050611324816112fe565b92915050565b6000602082840312156113405761133f611235565b5b600061134e84828501611315565b91505092915050565b600080fd5b600080fd5b6000601f19601f8301169050919050565b7f4e487b7100000000000000000000000000000000000000000000000000000000600052604160045260246000fd5b6113aa82611361565b810181811067ffffffffffffffff821117156113c9576113c8611372565b5b80604052505050565b60006113dc61122b565b90506113e882826113a1565b919050565b600067ffffffffffffffff82111561140857611407611372565b5b61141182611361565b9050602081019050919050565b82818337600083830152505050565b600061144061143b846113ed565b6113d2565b90508281526020810184848401111561145c5761145b61135c565b5b61146784828561141e565b509392505050565b600082601f83011261148457611483611357565b5b813561149484826020860161142d565b91505092915050565b600080604083850312156114b4576114b3611235565b5b600083013567ffffffffffffffff8111156114d2576114d161123a565b5b6114de8582860161146f565b92505060206114ef85828601611315565b9150509250929050565b60008115159050919050565b61150e816114f9565b82525050565b60006040820190506115296000830185611505565b61153660208301846112d4565b9392505050565b60008060006060848603121561155657611555611235565b5b600084013567ffffffffffffffff8111156115745761157361123a565b5b6115808682870161146f565b935050602061159186828701611315565b92505060406115a286828701611315565b9150509250925092565b6115b58161125f565b82525050565b60006020820190506115d060008301846115ac565b92915050565b600081519050919050565b600082825260208201905092915050565b60005b838110156116105780820151818401526020810190506115f5565b60008484015250505050565b6000611627826115d6565b61163181856115e1565b93506116418185602086016115f2565b61164a81611361565b840191505092915050565b6000602082019050818103600083015261166f818461161c565b905092915050565b611680816114f9565b82525050565b600060039050919050565b600081905092915050565b6000819050919050565b600082825260208201905092915050565b60006116c2826115d6565b6116cc81856116a6565b93506116dc8185602086016115f2565b6116e581611361565b840191505092915050565b60006116fc83836116b7565b905092915050565b6000602082019050919050565b600061171c82611686565b6117268185611691565b9350836020820285016117388561169c565b8060005b85811015611774578484038952815161175585826116f0565b945061176083611704565b925060208a0199505060018101905061173c565b50829750879550505050505092915050565b61178f816112ca565b82525050565b60006060830160008301516117ad6000860182611677565b50602083015184820360208601526117c58282611711565b91505060408301516117da6040860182611786565b508091505092915050565b600060208201905081810360008301526117ff8184611795565b905092915050565b7f496e73756666696369656e742066756e64730000000000000000000000000000600082015250565b600061183d6012836115e1565b915061184882611807565b602082019050919050565b6000602082019050818103600083015261186c81611830565b9050919050565b600081905092915050565b50565b600061188e600083611873565b91506118998261187e565b600082019050919050565b60006118af82611881565b9150819050919050565b7f5769746864726177206661696c65640000000000000000000000000000000000600082015250565b60006118ef600f836115e1565b91506118fa826118b9565b602082019050919050565b6000602082019050818103600083015261191e816118e2565b9050919050565b600081905092915050565b600061193b826115d6565b6119458185611925565b93506119558185602086016115f2565b80840191505092915050565b600061196d8284611930565b915081905092915050565b7f4e487b7100000000000000000000000000000000000000000000000000000000600052602260045260246000fd5b600060028204905060018216806119bf57607f821691505b6020821081036119d2576119d1611978565b5b50919050565b7f4d696e696d756d20626574206973207468652063757272656e74207072696365600082015250565b6000611a0e6020836115e1565b9150611a19826119d8565b602082019050919050565b60006020820190508181036000830152611a3d81611a01565b9050919050565b7f50726576696f757320736c6f74206e6f7420636c61696d656400000000000000600082015250565b6000611a7a6019836115e1565b9150611a8582611a44565b602082019050919050565b60006020820190508181036000830152611aa981611a6d565b9050919050565b7f4e487b7100000000000000000000000000000000000000000000000000000000600052601160045260246000fd5b6000611aea826112ca565b9150611af5836112ca565b9250828201905080821115611b0d57611b0c611ab0565b5b92915050565b7f4f776e61626c653a206e6577206f776e657220697320746865207a65726f206160008201527f6464726573730000000000000000000000000000000000000000000000000000602082015250565b6000611b6f6026836115e1565b9150611b7a82611b13565b604082019050919050565b60006020820190508181036000830152611b9e81611b62565b9050919050565b7f4f776e61626c653a2063616c6c6572206973206e6f7420746865206f776e6572600082015250565b6000611bdb6020836115e1565b9150611be682611ba5565b602082019050919050565b60006020820190508181036000830152611c0a81611bce565b9050919050565b7f4e487b7100000000000000000000000000000000000000000000000000000000600052601260045260246000fd5b6000611c4b826112ca565b9150611c56836112ca565b925082611c6657611c65611c11565b5b828206905092915050565b7f4e487b7100000000000000000000000000000000000000000000000000000000600052603260045260246000fd5b6000611cab826112ca565b91507fffffffffffffffffffffffffffffffffffffffffffffffffffffffffffffffff8203611cdd57611cdc611ab0565b5b600182019050919050565b60008190508160005260206000209050919050565b60008154611d0a816119a7565b611d148186611925565b94506001821660008114611d2f5760018114611d4457611d77565b60ff1983168652811515820286019350611d77565b611d4d85611ce8565b60005b83811015611d6f57815481890152600182019150602081019050611d50565b838801955050505b50505092915050565b6000611d8c8284611cfd565b915081905092915050565b6000611da2826112ca565b9150611dad836112ca565b9250828202611dbb816112ca565b91508282048414831517611dd257611dd1611ab0565b5b5092915050565b6000611de4826112ca565b9150611def836112ca565b925082611dff57611dfe611c11565b5b828204905092915050565b6000819050919050565b611e25611e20826112ca565b611e0a565b82525050565b60008160601b9050919050565b6000611e4382611e2b565b9050919050565b6000611e5582611e38565b9050919050565b611e6d611e688261125f565b611e4a565b82525050565b6000611e7f8287611e14565b602082019150611e8f8286611e14565b602082019150611e9f8285611e5c565b601482019150611eaf8284611e14565b60208201915081905095945050505050565b60006020601f8301049050919050565b600082821b905092915050565b600060088302611f0e7fffffffffffffffffffffffffffffffffffffffffffffffffffffffffffffffff82611ed1565b611f188683611ed1565b95508019841693508086168417925050509392505050565b6000819050919050565b6000611f55611f50611f4b846112ca565b611f30565b6112ca565b9050919050565b6000819050919050565b611f6f83611f3a565b611f83611f7b82611f5c565b848454611ede565b825550505050565b600090565b611f98611f8b565b611fa3818484611f66565b505050565b5b81811015611fc757611fbc600082611f90565b600181019050611fa9565b5050565b601f82111561200c57611fdd81611ce8565b611fe684611ec1565b81016020851015611ff5578190505b61200961200185611ec1565b830182611fa8565b50505b505050565b600082821c905092915050565b600061202f60001984600802612011565b1980831691505092915050565b6000612048838361201e565b9150826002028217905092915050565b612061826115d6565b67ffffffffffffffff81111561207a57612079611372565b5b61208482546119a7565b61208f828285611fcb565b600060209050601f8311600181146120c257600084156120b0578287015190505b6120ba858261203c565b865550612122565b601f1984166120d086611ce8565b60005b828110156120f8578489015182556001820191506020850194506020810190506120d3565b868310156121155784890151612111601f89168261201e565b8355505b6001600288020188555050505b50505050505056fea2646970667358221220b74864feb5c1566c046cf2b155bad1ee3407d0d2ac9f4dcebef2c1a60c7b5a6b64736f6c63430008130033",
  "linkReferences": {},
  "deployedLinkReferences": {}
}