{
  "_format": "hh-sol-artifact-1",
  "contractName": "SlotMachine",
  "sourceName": "scripts/contracts/SlotMachine.sol",
  "abi": [
    {
      "inputs": [],
      "stateMutability": "nonpayable",
      "type": "constructor"
    },
    {
      "anonymous": false,
      "inputs": [
        {
          "indexed": true,
          "internalType": "address",
          "name": "player",
          "type": "address"
        },
        {
          "indexed": false,
          "internalType": "uint256",
          "name": "amount",
          "type": "uint256"
        }
      ],
      "name": "CashOut",
      "type": "event"
    },
    {
      "anonymous": false,
      "inputs": [
        {
          "indexed": true,
          "internalType": "address",
          "name": "player",
          "type": "address"
        },
        {
          "indexed": false,
          "internalType": "uint256",
          "name": "amount",
          "type": "uint256"
        }
      ],
      "name": "Deposit",
      "type": "event"
    },
    {
      "anonymous": false,
      "inputs": [
        {
          "indexed": true,
          "internalType": "address",
          "name": "previousOwner",
          "type": "address"
        },
        {
          "indexed": true,
          "internalType": "address",
          "name": "newOwner",
          "type": "address"
        }
      ],
      "name": "OwnershipTransferred",
      "type": "event"
    },
    {
      "anonymous": false,
      "inputs": [
        {
          "indexed": false,
          "internalType": "uint256",
          "name": "newPrice",
          "type": "uint256"
        }
      ],
      "name": "PriceUpdated",
      "type": "event"
    },
    {
      "anonymous": false,
      "inputs": [
        {
          "indexed": true,
          "internalType": "address",
          "name": "player",
          "type": "address"
        },
        {
          "indexed": false,
          "internalType": "uint256",
          "name": "betAmount",
          "type": "uint256"
        }
      ],
      "name": "RequestSpin",
      "type": "event"
    },
    {
      "anonymous": false,
      "inputs": [
        {
          "indexed": true,
          "internalType": "address",
          "name": "player",
          "type": "address"
        },
        {
          "indexed": false,
          "internalType": "string[3]",
          "name": "results",
          "type": "string[3]"
        },
        {
          "indexed": false,
          "internalType": "uint256",
          "name": "prize",
          "type": "uint256"
        }
      ],
      "name": "SpinResult",
      "type": "event"
    },
    {
      "anonymous": false,
      "inputs": [
        {
          "indexed": true,
          "internalType": "address",
          "name": "owner",
          "type": "address"
        },
        {
          "indexed": false,
          "internalType": "uint256",
          "name": "amount",
          "type": "uint256"
        }
      ],
      "name": "Withdraw",
      "type": "event"
    },
    {
      "inputs": [
        {
          "internalType": "address",
          "name": "",
          "type": "address"
        }
      ],
      "name": "balances",
      "outputs": [
        {
          "internalType": "uint256",
          "name": "",
          "type": "uint256"
        }
      ],
      "stateMutability": "view",
      "type": "function"
    },
    {
      "inputs": [],
      "name": "cashOut",
      "outputs": [],
      "stateMutability": "nonpayable",
      "type": "function"
    },
    {
      "inputs": [],
      "name": "deposit",
      "outputs": [],
      "stateMutability": "payable",
      "type": "function"
    },
    {
      "inputs": [],
      "name": "lastSpin",
      "outputs": [
        {
          "internalType": "string[3]",
          "name": "results",
          "type": "string[3]"
        },
        {
          "internalType": "uint256",
          "name": "prize",
          "type": "uint256"
        }
      ],
      "stateMutability": "view",
      "type": "function"
    },
    {
      "inputs": [],
      "name": "owner",
      "outputs": [
        {
          "internalType": "address",
          "name": "",
          "type": "address"
        }
      ],
      "stateMutability": "view",
      "type": "function"
    },
    {
      "inputs": [],
      "name": "price",
      "outputs": [
        {
          "internalType": "uint256",
          "name": "",
          "type": "uint256"
        }
      ],
      "stateMutability": "view",
      "type": "function"
    },
    {
      "inputs": [],
      "name": "renounceOwnership",
      "outputs": [],
      "stateMutability": "nonpayable",
      "type": "function"
    },
    {
      "inputs": [
        {
          "internalType": "address",
          "name": "player",
          "type": "address"
        },
        {
          "internalType": "string",
          "name": "result_0",
          "type": "string"
        },
        {
          "internalType": "string",
          "name": "result_1",
          "type": "string"
        },
        {
          "internalType": "string",
          "name": "result_2",
          "type": "string"
        },
        {
          "internalType": "uint256",
          "name": "prize",
          "type": "uint256"
        }
      ],
      "name": "setSpinResult",
      "outputs": [],
      "stateMutability": "nonpayable",
      "type": "function"
    },
    {
      "inputs": [
        {
          "internalType": "address",
          "name": "",
          "type": "address"
        }
      ],
      "name": "slots",
      "outputs": [
        {
          "internalType": "uint256",
          "name": "prize",
          "type": "uint256"
        },
        {
          "internalType": "bool",
          "name": "redeemed",
          "type": "bool"
        }
      ],
      "stateMutability": "view",
      "type": "function"
    },
    {
      "inputs": [],
      "name": "spin",
      "outputs": [],
      "stateMutability": "payable",
      "type": "function"
    },
    {
      "inputs": [
        {
          "internalType": "address",
          "name": "newOwner",
          "type": "address"
        }
      ],
      "name": "transferOwnership",
      "outputs": [],
      "stateMutability": "nonpayable",
      "type": "function"
    },
    {
      "inputs": [
        {
          "internalType": "uint256",
          "name": "new_price",
          "type": "uint256"
        }
      ],
      "name": "updatePrice",
      "outputs": [],
      "stateMutability": "nonpayable",
      "type": "function"
    },
    {
      "inputs": [],
      "name": "userBalance",
      "outputs": [
        {
          "internalType": "uint256",
          "name": "",
          "type": "uint256"
        }
      ],
      "stateMutability": "view",
      "type": "function"
    },
    {
      "inputs": [
        {
          "internalType": "uint256",
          "name": "amount",
          "type": "uint256"
        }
      ],
      "name": "withdraw",
      "outputs": [],
      "stateMutability": "nonpayable",
      "type": "function"
    }
  ],
  "bytecode": "0x608060405234801561001057600080fd5b5061002d61002261004860201b60201c565b61005060201b60201c565b6001808190555067010a741a46278000600281905550610114565b600033905090565b60008060009054906101000a900473ffffffffffffffffffffffffffffffffffffffff169050816000806101000a81548173ffffffffffffffffffffffffffffffffffffffff021916908373ffffffffffffffffffffffffffffffffffffffff1602179055508173ffffffffffffffffffffffffffffffffffffffff168173ffffffffffffffffffffffffffffffffffffffff167f8be0079c531659141344cd1fd0a4f28419497f9722a3daafe3b4186f6b6457e060405160405180910390a35050565b611d3e806101236000396000f3fe6080604052600436106100dd5760003560e01c80638d6cc56d1161007f578063bf15276511610059578063bf15276514610288578063d0e30db0146102b3578063f0acd7d5146102bd578063f2fde38b146102c7576100dd565b80638d6cc56d146102095780638da5cb5b14610232578063a035b1fe1461025d576100dd565b806339301427116100bb57806339301427146101715780634e01b63f146101af578063715018a6146101db578063793cd71e146101f2576100dd565b80632511c652146100e257806327e235e31461010b5780632e1a7d4d14610148575b600080fd5b3480156100ee57600080fd5b506101096004803603810190610104919061105f565b6102f0565b005b34801561011757600080fd5b50610132600480360381019061012d919061112e565b6104f3565b60405161013f919061116a565b60405180910390f35b34801561015457600080fd5b5061016f600480360381019061016a9190611185565b61050b565b005b34801561017d57600080fd5b506101986004803603810190610193919061112e565b610654565b6040516101a69291906111cd565b60405180910390f35b3480156101bb57600080fd5b506101c4610685565b6040516101d292919061132b565b60405180910390f35b3480156101e757600080fd5b506101f06107a4565b005b3480156101fe57600080fd5b506102076107b8565b005b34801561021557600080fd5b50610230600480360381019061022b9190611185565b6109d5565b005b34801561023e57600080fd5b50610247610a1e565b604051610254919061136a565b60405180910390f35b34801561026957600080fd5b50610272610a47565b60405161027f919061116a565b60405180910390f35b34801561029457600080fd5b5061029d610a4d565b6040516102aa919061116a565b60405180910390f35b6102bb610a94565b005b6102c5610aec565b005b3480156102d357600080fd5b506102ee60048036038101906102e9919061112e565b610c25565b005b6102f8610ca8565b600073ffffffffffffffffffffffffffffffffffffffff168573ffffffffffffffffffffffffffffffffffffffff1603610367576040517f08c379a000000000000000000000000000000000000000000000000000000000815260040161035e906113e2565b60405180910390fd5b6000600460008773ffffffffffffffffffffffffffffffffffffffff1673ffffffffffffffffffffffffffffffffffffffff168152602001908152602001600020905060018160040160006101000a81548160ff02191690831515021790555081816003018190555084816000016000600381106103e8576103e7611402565b5b0190816103f5919061163d565b50838160000160016003811061040e5761040d611402565b5b01908161041b919061163d565b50828160000160026003811061043457610433611402565b5b019081610441919061163d565b5081600360008873ffffffffffffffffffffffffffffffffffffffff1673ffffffffffffffffffffffffffffffffffffffff1681526020019081526020016000206000828254610491919061173e565b925050819055508573ffffffffffffffffffffffffffffffffffffffff167f33863938e342fb675d5b55b6cc3df6f5d91f1e36615e7f8f442df95db0706f6d82600001846040516104e39291906118a0565b60405180910390a2505050505050565b60036020528060005260406000206000915090505481565b610513610ca8565b80471015610556576040517f08c379a000000000000000000000000000000000000000000000000000000000815260040161054d9061191c565b60405180910390fd5b60003373ffffffffffffffffffffffffffffffffffffffff168260405161057c9061196d565b60006040518083038185875af1925050503d80600081146105b9576040519150601f19603f3d011682016040523d82523d6000602084013e6105be565b606091505b5050905080610602576040517f08c379a00000000000000000000000000000000000000000000000000000000081526004016105f9906119ce565b60405180910390fd5b3373ffffffffffffffffffffffffffffffffffffffff167f884edad9ce6fa2440d8a54cc123490eb96d2768479d49ff9c7366125a942436483604051610648919061116a565b60405180910390a25050565b60046020528060005260406000206000915090508060030154908060040160009054906101000a900460ff16905082565b61068d610e4a565b600080600460003373ffffffffffffffffffffffffffffffffffffffff1673ffffffffffffffffffffffffffffffffffffffff168152602001908152602001600020905080600001816003015481600380602002604051908101604052809291906000905b8282101561079557838201805461070890611460565b80601f016020809104026020016040519081016040528092919081815260200182805461073490611460565b80156107815780601f1061075657610100808354040283529160200191610781565b820191906000526020600020905b81548152906001019060200180831161076457829003601f168201915b5050505050815260200190600101906106f2565b50505050915092509250509091565b6107ac610ca8565b6107b66000610d26565b565b6107c0610dea565b6000600360003373ffffffffffffffffffffffffffffffffffffffff1673ffffffffffffffffffffffffffffffffffffffff16815260200190815260200160002054905060008111610847576040517f08c379a000000000000000000000000000000000000000000000000000000000815260040161083e90611a3a565b60405180910390fd5b8047101561088a576040517f08c379a000000000000000000000000000000000000000000000000000000000815260040161088190611aa6565b60405180910390fd5b6000600360003373ffffffffffffffffffffffffffffffffffffffff1673ffffffffffffffffffffffffffffffffffffffff1681526020019081526020016000208190555060003373ffffffffffffffffffffffffffffffffffffffff16826040516108f59061196d565b60006040518083038185875af1925050503d8060008114610932576040519150601f19603f3d011682016040523d82523d6000602084013e610937565b606091505b505090508061097b576040517f08c379a0000000000000000000000000000000000000000000000000000000008152600401610972906119ce565b60405180910390fd5b3373ffffffffffffffffffffffffffffffffffffffff167fab933177d8753a66dd869151cf9aa88649e067b7a4e2dad9d5d192d61cf593b0836040516109c1919061116a565b60405180910390a250506109d3610e39565b565b6109dd610ca8565b806002819055507f66cbca4f3c64fecf1dcb9ce094abcf7f68c3450a1d4e3a8e917dd621edb4ebe081604051610a13919061116a565b60405180910390a150565b60008060009054906101000a900473ffffffffffffffffffffffffffffffffffffffff16905090565b60025481565b6000600360003373ffffffffffffffffffffffffffffffffffffffff1673ffffffffffffffffffffffffffffffffffffffff16815260200190815260200160002054905090565b610a9c610ca8565b3373ffffffffffffffffffffffffffffffffffffffff167fe1fffcc4923d04b559f4d29a8bfc6cda04eb5b0d3c460751c2402c5c5cc9109c34604051610ae2919061116a565b60405180910390a2565b600254341015610b31576040517f08c379a0000000000000000000000000000000000000000000000000000000008152600401610b2890611b12565b60405180910390fd5b6000600460003373ffffffffffffffffffffffffffffffffffffffff1673ffffffffffffffffffffffffffffffffffffffff16815260200190815260200160002090508060040160009054906101000a900460ff1680610b95575060008160030154145b610bd4576040517f08c379a0000000000000000000000000000000000000000000000000000000008152600401610bcb90611b7e565b60405180910390fd5b3373ffffffffffffffffffffffffffffffffffffffff167fb6c62b7148e12b962615cb07a4a7642d5ee20e3f60699a31ed55dbc454853bf434604051610c1a919061116a565b60405180910390a250565b610c2d610ca8565b600073ffffffffffffffffffffffffffffffffffffffff168173ffffffffffffffffffffffffffffffffffffffff1603610c9c576040517f08c379a0000000000000000000000000000000000000000000000000000000008152600401610c9390611c10565b60405180910390fd5b610ca581610d26565b50565b610cb0610e42565b73ffffffffffffffffffffffffffffffffffffffff16610cce610a1e565b73ffffffffffffffffffffffffffffffffffffffff1614610d24576040517f08c379a0000000000000000000000000000000000000000000000000000000008152600401610d1b90611c7c565b60405180910390fd5b565b60008060009054906101000a900473ffffffffffffffffffffffffffffffffffffffff169050816000806101000a81548173ffffffffffffffffffffffffffffffffffffffff021916908373ffffffffffffffffffffffffffffffffffffffff1602179055508173ffffffffffffffffffffffffffffffffffffffff168173ffffffffffffffffffffffffffffffffffffffff167f8be0079c531659141344cd1fd0a4f28419497f9722a3daafe3b4186f6b6457e060405160405180910390a35050565b600260015403610e2f576040517f08c379a0000000000000000000000000000000000000000000000000000000008152600401610e2690611ce8565b60405180910390fd5b6002600181905550565b60018081905550565b600033905090565b60405180606001604052806003905b6060815260200190600190039081610e595790505090565b6000604051905090565b600080fd5b600080fd5b600073ffffffffffffffffffffffffffffffffffffffff82169050919050565b6000610eb082610e85565b9050919050565b610ec081610ea5565b8114610ecb57600080fd5b50565b600081359050610edd81610eb7565b92915050565b600080fd5b600080fd5b6000601f19601f8301169050919050565b7f4e487b7100000000000000000000000000000000000000000000000000000000600052604160045260246000fd5b610f3682610eed565b810181811067ffffffffffffffff82111715610f5557610f54610efe565b5b80604052505050565b6000610f68610e71565b9050610f748282610f2d565b919050565b600067ffffffffffffffff821115610f9457610f93610efe565b5b610f9d82610eed565b9050602081019050919050565b82818337600083830152505050565b6000610fcc610fc784610f79565b610f5e565b905082815260208101848484011115610fe857610fe7610ee8565b5b610ff3848285610faa565b509392505050565b600082601f8301126110105761100f610ee3565b5b8135611020848260208601610fb9565b91505092915050565b6000819050919050565b61103c81611029565b811461104757600080fd5b50565b60008135905061105981611033565b92915050565b600080600080600060a0868803121561107b5761107a610e7b565b5b600061108988828901610ece565b955050602086013567ffffffffffffffff8111156110aa576110a9610e80565b5b6110b688828901610ffb565b945050604086013567ffffffffffffffff8111156110d7576110d6610e80565b5b6110e388828901610ffb565b935050606086013567ffffffffffffffff81111561110457611103610e80565b5b61111088828901610ffb565b92505060806111218882890161104a565b9150509295509295909350565b60006020828403121561114457611143610e7b565b5b600061115284828501610ece565b91505092915050565b61116481611029565b82525050565b600060208201905061117f600083018461115b565b92915050565b60006020828403121561119b5761119a610e7b565b5b60006111a98482850161104a565b91505092915050565b60008115159050919050565b6111c7816111b2565b82525050565b60006040820190506111e2600083018561115b565b6111ef60208301846111be565b9392505050565b600060039050919050565b600081905092915050565b6000819050919050565b600081519050919050565b600082825260208201905092915050565b60005b83811015611250578082015181840152602081019050611235565b60008484015250505050565b600061126782611216565b6112718185611221565b9350611281818560208601611232565b61128a81610eed565b840191505092915050565b60006112a1838361125c565b905092915050565b6000602082019050919050565b60006112c1826111f6565b6112cb8185611201565b9350836020820285016112dd8561120c565b8060005b8581101561131957848403895281516112fa8582611295565b9450611305836112a9565b925060208a019950506001810190506112e1565b50829750879550505050505092915050565b6000604082019050818103600083015261134581856112b6565b9050611354602083018461115b565b9392505050565b61136481610ea5565b82525050565b600060208201905061137f600083018461135b565b92915050565b600082825260208201905092915050565b7f496e76616c696420706c61796572206164647265737300000000000000000000600082015250565b60006113cc601683611385565b91506113d782611396565b602082019050919050565b600060208201905081810360008301526113fb816113bf565b9050919050565b7f4e487b7100000000000000000000000000000000000000000000000000000000600052603260045260246000fd5b7f4e487b7100000000000000000000000000000000000000000000000000000000600052602260045260246000fd5b6000600282049050600182168061147857607f821691505b60208210810361148b5761148a611431565b5b50919050565b60008190508160005260206000209050919050565b60006020601f8301049050919050565b600082821b905092915050565b6000600883026114f37fffffffffffffffffffffffffffffffffffffffffffffffffffffffffffffffff826114b6565b6114fd86836114b6565b95508019841693508086168417925050509392505050565b6000819050919050565b600061153a61153561153084611029565b611515565b611029565b9050919050565b6000819050919050565b6115548361151f565b61156861156082611541565b8484546114c3565b825550505050565b600090565b61157d611570565b61158881848461154b565b505050565b5b818110156115ac576115a1600082611575565b60018101905061158e565b5050565b601f8211156115f1576115c281611491565b6115cb846114a6565b810160208510156115da578190505b6115ee6115e6856114a6565b83018261158d565b50505b505050565b600082821c905092915050565b6000611614600019846008026115f6565b1980831691505092915050565b600061162d8383611603565b9150826002028217905092915050565b61164682611216565b67ffffffffffffffff81111561165f5761165e610efe565b5b6116698254611460565b6116748282856115b0565b600060209050601f8311600181146116a75760008415611695578287015190505b61169f8582611621565b865550611707565b601f1984166116b586611491565b60005b828110156116dd578489015182556001820191506020850194506020810190506116b8565b868310156116fa57848901516116f6601f891682611603565b8355505b6001600288020188555050505b505050505050565b7f4e487b7100000000000000000000000000000000000000000000000000000000600052601160045260246000fd5b600061174982611029565b915061175483611029565b925082820190508082111561176c5761176b61170f565b5b92915050565b600060039050919050565b6000819050919050565b6000815461179481611460565b61179e8186611221565b945060018216600081146117b957600181146117cf57611802565b60ff198316865281151560200286019350611802565b6117d885611491565b60005b838110156117fa578154818901526001820191506020810190506117db565b808801955050505b50505092915050565b60006118178383611787565b905092915050565b6000600182019050919050565b600061183782611772565b6118418185611201565b9350836020820285016118538561177d565b8060005b8581101561188e5784840389528161186f858261180b565b945061187a8361181f565b925060208a01995050600181019050611857565b50829750879550505050505092915050565b600060408201905081810360008301526118ba818561182c565b90506118c9602083018461115b565b9392505050565b7f496e73756666696369656e742066756e64730000000000000000000000000000600082015250565b6000611906601283611385565b9150611911826118d0565b602082019050919050565b60006020820190508181036000830152611935816118f9565b9050919050565b600081905092915050565b50565b600061195760008361193c565b915061196282611947565b600082019050919050565b60006119788261194a565b9150819050919050565b7f5769746864726177206661696c65640000000000000000000000000000000000600082015250565b60006119b8600f83611385565b91506119c382611982565b602082019050919050565b600060208201905081810360008301526119e7816119ab565b9050919050565b7f4e6f2062616c616e636520746f2063617368206f757400000000000000000000600082015250565b6000611a24601683611385565b9150611a2f826119ee565b602082019050919050565b60006020820190508181036000830152611a5381611a17565b9050919050565b7f496e73756666696369656e742066756e647320696e20636f6e74726163740000600082015250565b6000611a90601e83611385565b9150611a9b82611a5a565b602082019050919050565b60006020820190508181036000830152611abf81611a83565b9050919050565b7f4d696e696d756d20626574206973207468652063757272656e74207072696365600082015250565b6000611afc602083611385565b9150611b0782611ac6565b602082019050919050565b60006020820190508181036000830152611b2b81611aef565b9050919050565b7f50726576696f757320736c6f74206e6f7420636c61696d656400000000000000600082015250565b6000611b68601983611385565b9150611b7382611b32565b602082019050919050565b60006020820190508181036000830152611b9781611b5b565b9050919050565b7f4f776e61626c653a206e6577206f776e657220697320746865207a65726f206160008201527f6464726573730000000000000000000000000000000000000000000000000000602082015250565b6000611bfa602683611385565b9150611c0582611b9e565b604082019050919050565b60006020820190508181036000830152611c2981611bed565b9050919050565b7f4f776e61626c653a2063616c6c6572206973206e6f7420746865206f776e6572600082015250565b6000611c66602083611385565b9150611c7182611c30565b602082019050919050565b60006020820190508181036000830152611c9581611c59565b9050919050565b7f5265656e7472616e637947756172643a207265656e7472616e742063616c6c00600082015250565b6000611cd2601f83611385565b9150611cdd82611c9c565b602082019050919050565b60006020820190508181036000830152611d0181611cc5565b905091905056fea2646970667358221220b559d5a43ef5e8e818fa6e20f13119187e1751f6ee6b7bb349a2f503c6cb9b9064736f6c63430008130033",
  "linkReferences": {},
  "deployedLinkReferences": {}
}